{"contracts/DebatePoolV2.sol":{"DebatePoolV2":{"abi":[{"inputs":[{"internalType":"address","name":"_usdcToken","type":"address"},{"internalType":"address","name":"_oracle","type":"address"}],"stateMutability":"nonpayable","type":"constructor"},{"inputs":[],"name":"ECDSAInvalidSignature","type":"error"},{"inputs":[{"internalType":"uint256","name":"length","type":"uint256"}],"name":"ECDSAInvalidSignatureLength","type":"error"},{"inputs":[{"internalType":"bytes32","name":"s","type":"bytes32"}],"name":"ECDSAInvalidSignatureS","type":"error"},{"inputs":[],"name":"InvalidShortString","type":"error"},{"inputs":[{"internalType":"address","name":"owner","type":"address"}],"name":"OwnableInvalidOwner","type":"error"},{"inputs":[{"internalType":"address","name":"account","type":"address"}],"name":"OwnableUnauthorizedAccount","type":"error"},{"inputs":[],"name":"ReentrancyGuardReentrantCall","type":"error"},{"inputs":[{"internalType":"string","name":"str","type":"string"}],"name":"StringTooLong","type":"error"},{"anonymous":false,"inputs":[{"indexed":true,"internalType":"address","name":"user","type":"address"},{"indexed":false,"internalType":"uint256","name":"amount","type":"uint256"},{"indexed":false,"internalType":"uint256","name":"points","type":"uint256"}],"name":"AirdropClaimed","type":"event"},{"anonymous":false,"inputs":[{"indexed":true,"internalType":"address","name":"token","type":"address"},{"indexed":false,"internalType":"uint256","name":"totalAmount","type":"uint256"},{"indexed":false,"internalType":"uint256","name":"snapshotBlock","type":"uint256"}],"name":"AirdropSetup","type":"event"},{"anonymous":false,"inputs":[{"indexed":true,"internalType":"uint256","name":"debateId","type":"uint256"},{"indexed":false,"internalType":"string","name":"topic","type":"string"},{"indexed":false,"internalType":"uint256","name":"entryFee","type":"uint256"}],"name":"DebateCreated","type":"event"},{"anonymous":false,"inputs":[],"name":"EIP712DomainChanged","type":"event"},{"anonymous":false,"inputs":[{"indexed":false,"internalType":"bool","name":"paused","type":"bool"}],"name":"EmergencyPauseToggled","type":"event"},{"anonymous":false,"inputs":[{"indexed":true,"internalType":"address","name":"previousOwner","type":"address"},{"indexed":true,"internalType":"address","name":"newOwner","type":"address"}],"name":"OwnershipTransferred","type":"event"},{"anonymous":false,"inputs":[{"indexed":true,"internalType":"uint256","name":"debateId","type":"uint256"},{"indexed":false,"internalType":"address","name":"participant","type":"address"}],"name":"ParticipantJoined","type":"event"},{"anonymous":false,"inputs":[{"indexed":true,"internalType":"address","name":"user","type":"address"},{"indexed":false,"internalType":"uint256","name":"points","type":"uint256"},{"indexed":false,"internalType":"string","name":"reason","type":"string"}],"name":"PointsAwarded","type":"event"},{"anonymous":false,"inputs":[{"indexed":true,"internalType":"uint256","name":"debateId","type":"uint256"},{"indexed":false,"internalType":"address","name":"participant","type":"address"},{"indexed":false,"internalType":"uint256","name":"amount","type":"uint256"}],"name":"RefundProcessed","type":"event"},{"anonymous":false,"inputs":[{"indexed":true,"internalType":"uint256","name":"debateId","type":"uint256"},{"indexed":false,"internalType":"address","name":"winner","type":"address"},{"indexed":false,"internalType":"uint256","name":"prize","type":"uint256"}],"name":"WinnerDeclared","type":"event"},{"inputs":[],"name":"BASIS_POINTS","outputs":[{"internalType":"uint256","name":"","type":"uint256"}],"stateMutability":"view","type":"function"},{"inputs":[],"name":"DEBATE_PARTICIPATION_POINTS","outputs":[{"internalType":"uint256","name":"","type":"uint256"}],"stateMutability":"view","type":"function"},{"inputs":[],"name":"DEBATE_WINNER_POINTS","outputs":[{"internalType":"uint256","name":"","type":"uint256"}],"stateMutability":"view","type":"function"},{"inputs":[],"name":"LIKE_POINTS","outputs":[{"internalType":"uint256","name":"","type":"uint256"}],"stateMutability":"view","type":"function"},{"inputs":[],"name":"PLATFORM_FEE_PERCENTAGE","outputs":[{"internalType":"uint256","name":"","type":"uint256"}],"stateMutability":"view","type":"function"},{"inputs":[],"name":"REFUND_PERIOD","outputs":[{"internalType":"uint256","name":"","type":"uint256"}],"stateMutability":"view","type":"function"},{"inputs":[],"name":"SHARE_POINTS","outputs":[{"internalType":"uint256","name":"","type":"uint256"}],"stateMutability":"view","type":"function"},{"inputs":[],"name":"TIMEOUT_PERIOD","outputs":[{"internalType":"uint256","name":"","type":"uint256"}],"stateMutability":"view","type":"function"},{"inputs":[{"internalType":"address","name":"","type":"address"}],"name":"airdropClaimed","outputs":[{"internalType":"uint256","name":"","type":"uint256"}],"stateMutability":"view","type":"function"},{"inputs":[],"name":"airdropEnabled","outputs":[{"internalType":"bool","name":"","type":"bool"}],"stateMutability":"view","type":"function"},{"inputs":[],"name":"airdropSnapshotBlock","outputs":[{"internalType":"uint256","name":"","type":"uint256"}],"stateMutability":"view","type":"function"},{"inputs":[],"name":"airdropToken","outputs":[{"internalType":"contract IERC20","name":"","type":"address"}],"stateMutability":"view","type":"function"},{"inputs":[{"components":[{"internalType":"address","name":"user","type":"address"},{"internalType":"uint256","name":"points","type":"uint256"},{"internalType":"string","name":"reason","type":"string"},{"internalType":"uint256","name":"timestamp","type":"uint256"},{"internalType":"bytes","name":"signature","type":"bytes"}],"internalType":"struct DebatePoolV2.PointsAward","name":"award","type":"tuple"}],"name":"awardLikePoints","outputs":[],"stateMutability":"nonpayable","type":"function"},{"inputs":[{"components":[{"internalType":"address","name":"user","type":"address"},{"internalType":"uint256","name":"points","type":"uint256"},{"internalType":"string","name":"reason","type":"string"},{"internalType":"uint256","name":"timestamp","type":"uint256"},{"internalType":"bytes","name":"signature","type":"bytes"}],"internalType":"struct DebatePoolV2.PointsAward","name":"award","type":"tuple"}],"name":"awardPoints","outputs":[],"stateMutability":"nonpayable","type":"function"},{"inputs":[{"components":[{"internalType":"address","name":"user","type":"address"},{"internalType":"uint256","name":"points","type":"uint256"},{"internalType":"string","name":"reason","type":"string"},{"internalType":"uint256","name":"timestamp","type":"uint256"},{"internalType":"bytes","name":"signature","type":"bytes"}],"internalType":"struct DebatePoolV2.PointsAward","name":"award","type":"tuple"}],"name":"awardSharePoints","outputs":[],"stateMutability":"nonpayable","type":"function"},{"inputs":[{"internalType":"uint256","name":"userPointsAmount","type":"uint256"},{"internalType":"uint256","name":"totalPoints","type":"uint256"},{"internalType":"bytes32","name":"messageHash","type":"bytes32"},{"internalType":"bytes","name":"signature","type":"bytes"}],"name":"claimAirdrop","outputs":[],"stateMutability":"nonpayable","type":"function"},{"inputs":[{"internalType":"string","name":"topic","type":"string"},{"internalType":"uint256","name":"entryFee","type":"uint256"},{"internalType":"uint256","name":"maxParticipants","type":"uint256"},{"internalType":"uint256","name":"duration","type":"uint256"}],"name":"createDebate","outputs":[{"internalType":"uint256","name":"","type":"uint256"}],"stateMutability":"nonpayable","type":"function"},{"inputs":[{"internalType":"uint256","name":"","type":"uint256"}],"name":"debates","outputs":[{"internalType":"uint256","name":"id","type":"uint256"},{"internalType":"string","name":"topic","type":"string"},{"internalType":"uint256","name":"entryFee","type":"uint256"},{"internalType":"uint256","name":"maxParticipants","type":"uint256"},{"internalType":"uint256","name":"startTime","type":"uint256"},{"internalType":"uint256","name":"endTime","type":"uint256"},{"internalType":"address","name":"winner","type":"address"},{"internalType":"bool","name":"isActive","type":"bool"},{"internalType":"bool","name":"isCompleted","type":"bool"}],"stateMutability":"view","type":"function"},{"inputs":[{"components":[{"internalType":"uint256","name":"debateId","type":"uint256"},{"internalType":"address","name":"winner","type":"address"},{"internalType":"uint256","name":"timestamp","type":"uint256"},{"internalType":"bytes","name":"signature","type":"bytes"}],"internalType":"struct DebatePoolV2.WinnerResult","name":"result","type":"tuple"}],"name":"declareWinner","outputs":[],"stateMutability":"nonpayable","type":"function"},{"inputs":[],"name":"eip712Domain","outputs":[{"internalType":"bytes1","name":"fields","type":"bytes1"},{"internalType":"string","name":"name","type":"string"},{"internalType":"string","name":"version","type":"string"},{"internalType":"uint256","name":"chainId","type":"uint256"},{"internalType":"address","name":"verifyingContract","type":"address"},{"internalType":"bytes32","name":"salt","type":"bytes32"},{"internalType":"uint256[]","name":"extensions","type":"uint256[]"}],"stateMutability":"view","type":"function"},{"inputs":[],"name":"emergencyPaused","outputs":[{"internalType":"bool","name":"","type":"bool"}],"stateMutability":"view","type":"function"},{"inputs":[{"internalType":"uint256","name":"debateId","type":"uint256"}],"name":"emergencyRefund","outputs":[],"stateMutability":"nonpayable","type":"function"},{"inputs":[{"internalType":"uint256","name":"debateId","type":"uint256"}],"name":"getDebate","outputs":[{"components":[{"internalType":"uint256","name":"id","type":"uint256"},{"internalType":"string","name":"topic","type":"string"},{"internalType":"uint256","name":"entryFee","type":"uint256"},{"internalType":"uint256","name":"maxParticipants","type":"uint256"},{"internalType":"uint256","name":"startTime","type":"uint256"},{"internalType":"uint256","name":"endTime","type":"uint256"},{"internalType":"address[]","name":"participants","type":"address[]"},{"internalType":"address","name":"winner","type":"address"},{"internalType":"bool","name":"isActive","type":"bool"},{"internalType":"bool","name":"isCompleted","type":"bool"}],"internalType":"struct DebatePoolV2.Debate","name":"","type":"tuple"}],"stateMutability":"view","type":"function"},{"inputs":[{"internalType":"address","name":"user","type":"address"}],"name":"getUserDebates","outputs":[{"internalType":"uint256[]","name":"","type":"uint256[]"}],"stateMutability":"view","type":"function"},{"inputs":[{"internalType":"address","name":"user","type":"address"}],"name":"getUserPoints","outputs":[{"internalType":"uint256","name":"","type":"uint256"}],"stateMutability":"view","type":"function"},{"inputs":[{"internalType":"uint256","name":"debateId","type":"uint256"},{"internalType":"address","name":"user","type":"address"}],"name":"isParticipant","outputs":[{"internalType":"bool","name":"","type":"bool"}],"stateMutability":"view","type":"function"},{"inputs":[{"internalType":"uint256","name":"debateId","type":"uint256"}],"name":"joinDebate","outputs":[],"stateMutability":"nonpayable","type":"function"},{"inputs":[],"name":"nextDebateId","outputs":[{"internalType":"uint256","name":"","type":"uint256"}],"stateMutability":"view","type":"function"},{"inputs":[],"name":"oracle","outputs":[{"internalType":"address","name":"","type":"address"}],"stateMutability":"view","type":"function"},{"inputs":[],"name":"owner","outputs":[{"internalType":"address","name":"","type":"address"}],"stateMutability":"view","type":"function"},{"inputs":[{"internalType":"uint256","name":"debateId","type":"uint256"}],"name":"processExpiredDebate","outputs":[],"stateMutability":"nonpayable","type":"function"},{"inputs":[{"internalType":"uint256","name":"","type":"uint256"}],"name":"refundDeadlines","outputs":[{"internalType":"uint256","name":"","type":"uint256"}],"stateMutability":"view","type":"function"},{"inputs":[],"name":"renounceOwnership","outputs":[],"stateMutability":"nonpayable","type":"function"},{"inputs":[{"internalType":"uint256","name":"debateId","type":"uint256"}],"name":"requestRefund","outputs":[],"stateMutability":"nonpayable","type":"function"},{"inputs":[{"internalType":"address","name":"_airdropToken","type":"address"},{"internalType":"uint256","name":"_totalAmount","type":"uint256"}],"name":"setupAirdrop","outputs":[],"stateMutability":"nonpayable","type":"function"},{"inputs":[],"name":"toggleEmergencyPause","outputs":[],"stateMutability":"nonpayable","type":"function"},{"inputs":[],"name":"totalAirdropAmount","outputs":[{"internalType":"uint256","name":"","type":"uint256"}],"stateMutability":"view","type":"function"},{"inputs":[{"internalType":"address","name":"newOwner","type":"address"}],"name":"transferOwnership","outputs":[],"stateMutability":"nonpayable","type":"function"},{"inputs":[],"name":"usdcToken","outputs":[{"internalType":"contract IERC20","name":"","type":"address"}],"stateMutability":"view","type":"function"},{"inputs":[{"internalType":"address","name":"","type":"address"},{"internalType":"uint256","name":"","type":"uint256"}],"name":"userDebates","outputs":[{"internalType":"uint256","name":"","type":"uint256"}],"stateMutability":"view","type":"function"},{"inputs":[{"internalType":"address","name":"","type":"address"}],"name":"userPoints","outputs":[{"internalType":"uint256","name":"","type":"uint256"}],"stateMutability":"view","type":"function"},{"inputs":[],"name":"withdrawPlatformFees","outputs":[],"stateMutability":"nonpayable","type":"function"}],"devdoc":{"details":"Enhanced debate pool contract with fund safety mechanisms and points system","errors":{"ECDSAInvalidSignature()":[{"details":"The signature derives the `address(0)`."}],"ECDSAInvalidSignatureLength(uint256)":[{"details":"The signature has an invalid length."}],"ECDSAInvalidSignatureS(bytes32)":[{"details":"The signature has an S value that is in the upper half order."}],"OwnableInvalidOwner(address)":[{"details":"The owner is not a valid owner account. (eg. `address(0)`)"}],"OwnableUnauthorizedAccount(address)":[{"details":"The caller account is not authorized to perform an operation."}],"ReentrancyGuardReentrantCall()":[{"details":"Unauthorized reentrant call."}]},"events":{"EIP712DomainChanged()":{"details":"MAY be emitted to signal that the domain could have changed."}},"kind":"dev","methods":{"awardLikePoints((address,uint256,string,uint256,bytes))":{"details":"Award like points with EIP-712 signature verification","params":{"award":"Points award with signature"}},"awardPoints((address,uint256,string,uint256,bytes))":{"details":"Award points to user with EIP-712 signature verification","params":{"award":"Points award with signature"}},"awardSharePoints((address,uint256,string,uint256,bytes))":{"details":"Award share points with EIP-712 signature verification","params":{"award":"Points award with signature"}},"claimAirdrop(uint256,uint256,bytes32,bytes)":{"details":"Claim airdrop based on points","params":{"messageHash":"Hash of the points data","signature":"Oracle signature","totalPoints":"Total points in system","userPointsAmount":"User's total points"}},"constructor":{"details":"Constructor","params":{"_oracle":"Oracle address (AI judge backend)","_usdcToken":"USDC token address on Base Sepolia"}},"createDebate(string,uint256,uint256,uint256)":{"details":"Create a new debate","params":{"duration":"Duration in seconds","entryFee":"Entry fee in USDC (with decimals)","maxParticipants":"Maximum number of participants","topic":"Debate topic"},"returns":{"_0":"debateId The ID of the created debate"}},"declareWinner((uint256,address,uint256,bytes))":{"details":"Declare winner and distribute rewards","params":{"result":"Winner result with signature"}},"eip712Domain()":{"details":"returns the fields and values that describe the domain separator used by this contract for EIP-712 signature."},"emergencyRefund(uint256)":{"details":"Emergency refund by owner","params":{"debateId":"ID of the debate to refund"}},"joinDebate(uint256)":{"details":"Join a debate by paying entry fee","params":{"debateId":"ID of the debate to join"}},"owner()":{"details":"Returns the address of the current owner."},"processExpiredDebate(uint256)":{"details":"Process expired debates and refund all participants","params":{"debateId":"ID of the expired debate"}},"renounceOwnership()":{"details":"Leaves the contract without owner. It will not be possible to call `onlyOwner` functions. Can only be called by the current owner. NOTE: Renouncing ownership will leave the contract without an owner, thereby disabling any functionality that is only available to the owner."},"requestRefund(uint256)":{"details":"Request refund for expired debate","params":{"debateId":"ID of the debate to refund"}},"setupAirdrop(address,uint256)":{"details":"Setup airdrop (future-ready)","params":{"_airdropToken":"Token to airdrop","_totalAmount":"Total tokens to distribute"}},"toggleEmergencyPause()":{"details":"Toggle emergency pause"},"transferOwnership(address)":{"details":"Transfers ownership of the contract to a new account (`newOwner`). Can only be called by the current owner."},"withdrawPlatformFees()":{"details":"Withdraw platform fees"}},"title":"DebatePoolV2","version":1},"evm":{"bytecode":{"linkReferences":{},"object":"6101a060405260016004556005805460ff19169055600a805460ff60a01b191690553480156200002e57600080fd5b506040516200411538038062004115833981016040819052620000519162000349565b604080518082018252600c81526b2232b130ba32a837b7b62b1960a11b60208083019190915282518084019093526001808452603160f81b91840191909152600055903380620000bc57604051631e4fbdf760e01b8152600060048201526024015b60405180910390fd5b620000c7816200025e565b50620000d5826002620002b0565b61012052620000e6816003620002b0565b61014052815160208084019190912060e052815190820120610100524660a0526200017460e05161010051604080517f8b73c3c69bb8fe3d512ecc4cf759cc79239f7b179b0ffacaa9a75d522b39400f60208201529081019290925260608201524660808201523060a082015260009060c00160405160208183030381529060405280519060200120905090565b60805250503060c0526001600160a01b038216620001e05760405162461bcd60e51b815260206004820152602260248201527f446562617465506f6f6c56323a20496e76616c69642055534443206164647265604482015261737360f01b6064820152608401620000b3565b6001600160a01b038116620002445760405162461bcd60e51b8152602060048201526024808201527f446562617465506f6f6c56323a20496e76616c6964206f7261636c65206164646044820152637265737360e01b6064820152608401620000b3565b6001600160a01b0391821661016052166101805262000567565b600180546001600160a01b038381166001600160a01b0319831681179093556040519116919082907f8be0079c531659141344cd1fd0a4f28419497f9722a3daafe3b4186f6b6457e090600090a35050565b6000602083511015620002d057620002c883620002e9565b9050620002e3565b81620002dd848262000426565b5060ff90505b92915050565b600080829050601f8151111562000317578260405163305a27a960e01b8152600401620000b39190620004f2565b8051620003248262000542565b179392505050565b80516001600160a01b03811681146200034457600080fd5b919050565b600080604083850312156200035d57600080fd5b62000368836200032c565b915062000378602084016200032c565b90509250929050565b634e487b7160e01b600052604160045260246000fd5b600181811c90821680620003ac57607f821691505b602082108103620003cd57634e487b7160e01b600052602260045260246000fd5b50919050565b601f8211156200042157600081815260208120601f850160051c81016020861015620003fc5750805b601f850160051c820191505b818110156200041d5782815560010162000408565b5050505b505050565b81516001600160401b0381111562000442576200044262000381565b6200045a8162000453845462000397565b84620003d3565b602080601f831160018114620004925760008415620004795750858301515b600019600386901b1c1916600185901b1785556200041d565b600085815260208120601f198616915b82811015620004c357888601518255948401946001909101908401620004a2565b5085821015620004e25787850151600019600388901b60f8161c191681555b5050505050600190811b01905550565b600060208083528351808285015260005b81811015620005215785810183015185820160400152820162000503565b506000604082860101526040601f19601f8301168501019250505092915050565b80516020808301519190811015620003cd5760001960209190910360031b1b16919050565b60805160a05160c05160e0516101005161012051610140516101605161018051613af062000625600039600081816103d90152818161065f01528181610a2d015281816113f90152612bc20152600081816102680152818161084c01528181610f7c0152818161171901528181611b7501528181611c47015281816121f80152612647015260006129730152600061294101526000612e1e01526000612df601526000612d5101526000612d7b01526000612da50152613af06000f3fe608060405234801561001057600080fd5b506004361061025e5760003560e01c80638da5cb5b11610146578063d1b6dd30116100c3578063f2fde38b11610087578063f2fde38b1461054a578063f50ddbc71461055d578063f5d8e5d91461057d578063f5fce24514610590578063f67dc95f1461059a578063fde59fa3146102c757600080fd5b8063d1b6dd30146104e8578063dd8704c114610508578063dd9151291461051b578063e1f1c4a71461052e578063f0f588361461053757600080fd5b8063b073f6871161010a578063b073f687146104a8578063b0f3c981146104b1578063b68c72b9146104c4578063be3d48c6146104cd578063d0b7830b146104e057600080fd5b80638da5cb5b1461042857806398d336af14610439578063a29cdc7214610459578063a4b2409e1461046c578063aeefe31f1461047f57600080fd5b80634d06068a116101df578063715018a6116101a3578063715018a6146103b9578063758d9b89146103c15780637dc0d1d0146103d45780637f6578d3146103fb57806384b0196e146104055780638c7971c51461042057600080fd5b80634d06068a1461033857806359758fcf1461034b5780635abead8a14610373578063704115ad1461038657806370e5deb9146103a657600080fd5b8063201042891161022657806320104289146102e257806327c830a914610306578063361955131461031357806336dc37ab1461031c5780633a73d46e1461032f57600080fd5b806311eac85514610263578063147e291f146102a757806315548232146102b15780631c2155d6146102c75780631eca9561146102cf575b600080fd5b61028a7f000000000000000000000000000000000000000000000000000000000000000081565b6040516001600160a01b0390911681526020015b60405180910390f35b6102af6105ba565b005b6102b9601481565b60405190815260200161029e565b6102b9600a81565b6102b96102dd366004613141565b61060f565b600a546102f690600160a01b900460ff1681565b604051901515815260200161029e565b6005546102f69060ff1681565b6102b960045481565b6102af61032a36600461316b565b610640565b6102b9600b5481565b600a5461028a906001600160a01b031681565b61035e61035936600461316b565b61093d565b60405161029e999897969594939291906131ca565b6102b96103813660046132f6565b610a20565b61039961039436600461334a565b610e72565b60405161029e91906133a0565b6102af6103b436600461316b565b610ede565b6102af611049565b6102f66103cf3660046133b3565b61105d565b61028a7f000000000000000000000000000000000000000000000000000000000000000081565b6102b962093a8081565b61040d611072565b60405161029e97969594939291906133df565b6102b9606481565b6001546001600160a01b031661028a565b61044c61044736600461316b565b6110b8565b60405161029e9190613488565b6102af61046736600461353c565b6112cf565b6102af61047a36600461316b565b61157a565b6102b961048d36600461334a565b6001600160a01b031660009081526009602052604090205490565b6102b9600c5481565b6102af6104bf366004613596565b61183c565b6102b96103e881565b6102af6104db366004613596565b6119b3565b6102af611b55565b6102b96104f636600461334a565b600d6020526000908152604090205481565b6102af610516366004613141565b611d33565b6102af610529366004613596565b611e50565b6102b961271081565b6102af61054536600461364c565b611fef565b6102af61055836600461334a565b61239f565b6102b961056b36600461334a565b60096020526000908152604090205481565b6102af61058b36600461316b565b6123da565b6102b96201518081565b6102b96105a836600461316b565b60086020526000908152604090205481565b6105c2612814565b6005805460ff8082161560ff1990921682179092556040519116151581527fb5838f871ddee4623a406029b1a0b6013e0ec30f2dc114307f21459a800a82969060200160405180910390a1565b6007602052816000526040600020818154811061062b57600080fd5b90600052602060002001600091509150505481565b6001546001600160a01b03163314806106815750336001600160a01b037f000000000000000000000000000000000000000000000000000000000000000016145b6106f85760405162461bcd60e51b815260206004820152603960248201527f446562617465506f6f6c56323a204f6e6c79206f776e6572206f72206f72616360448201527f6c652063616e2063616c6c20746869732066756e6374696f6e0000000000000060648201526084015b60405180910390fd5b8060008111801561070a575060045481105b6107265760405162461bcd60e51b81526004016106ef906136f4565b61072e612841565b6000828152600660205260409020600581015461074f906201518090613741565b421161079d5760405162461bcd60e51b815260206004820152601d60248201527f446562617465506f6f6c56323a204e6f7420657870697265642079657400000060448201526064016106ef565b6007810154600160a81b900460ff16156107f95760405162461bcd60e51b815260206004820152601f60248201527f446562617465506f6f6c56323a20416c726561647920636f6d706c657465640060448201526064016106ef565b60005b600682015481101561091957600082600601828154811061081f5761081f613754565b600091825260209091200154600284015460405163a9059cbb60e01b81526001600160a01b0392831693507f00000000000000000000000000000000000000000000000000000000000000009092169163a9059cbb916108849185919060040161376a565b6020604051808303816000875af11580156108a3573d6000803e3d6000fd5b505050506040513d601f19601f820116820180604052508101906108c79190613783565b50847f79ff6a60b3e21b3630b207e2a7b0b50b69b197d3d7ca776108ed2afb8fbac8dc8285600201546040516108fe92919061376a565b60405180910390a25080610911816137ac565b9150506107fc565b50600701805461ffff60a01b1916600160a81b1790556109396001600055565b5050565b6006602052600090815260409020805460018201805491929161095f906137c5565b80601f016020809104026020016040519081016040528092919081815260200182805461098b906137c5565b80156109d85780601f106109ad576101008083540402835291602001916109d8565b820191906000526020600020905b8154815290600101906020018083116109bb57829003601f168201915b50505060028401546003850154600486015460058701546007909701549596929591945092506001600160a01b0381169060ff600160a01b8204811691600160a81b90041689565b6000336001600160a01b037f00000000000000000000000000000000000000000000000000000000000000001614610ab35760405162461bcd60e51b815260206004820152603060248201527f446562617465506f6f6c56323a204f6e6c79206f7261636c652063616e20636160448201526f3636103a3434b990333ab731ba34b7b760811b60648201526084016106ef565b60055460ff1615610b065760405162461bcd60e51b815260206004820181905260248201527f446562617465506f6f6c56323a20436f6e74726163742069732070617573656460448201526064016106ef565b6000855111610b635760405162461bcd60e51b815260206004820152602360248201527f446562617465506f6f6c56323a20546f7069632063616e6e6f7420626520656d60448201526270747960e81b60648201526084016106ef565b60008411610bca5760405162461bcd60e51b815260206004820152602e60248201527f446562617465506f6f6c56323a20456e74727920666565206d7573742062652060448201526d067726561746572207468616e20360941b60648201526084016106ef565b60018311610c335760405162461bcd60e51b815260206004820152603060248201527f446562617465506f6f6c56323a204d75737420616c6c6f77206174206c65617360448201526f742032207061727469636970616e747360801b60648201526084016106ef565b60008211610c995760405162461bcd60e51b815260206004820152602d60248201527f446562617465506f6f6c56323a204475726174696f6e206d757374206265206760448201526c0726561746572207468616e203609c1b60648201526084016106ef565b6004805460009182610caa836137ac565b909155509050426000610cbd8583613741565b9050604051806101400160405280848152602001898152602001888152602001878152602001838152602001828152602001600067ffffffffffffffff811115610d0957610d0961322a565b604051908082528060200260200182016040528015610d32578160200160208202803683370190505b50815260006020808301829052600160408085018290526060909401839052878352600682529290912083518155908301519091820190610d739082613848565b5060408201516002820155606082015160038201556080820151600482015560a0820151600582015560c08201518051610db79160068401916020909101906130ab565b5060e082015160079091018054610100840151610120909401511515600160a81b0260ff60a81b19941515600160a01b026001600160a81b03199092166001600160a01b03909416939093171792909216179055610e1862093a8082613741565b60008481526008602052604090819020919091555183907f6f1ada89a34bf137d8ad7b96784cda535ed20442ace125386c0ab1efe849aa4890610e5e908b908b90613908565b60405180910390a250909695505050505050565b6001600160a01b038116600090815260076020908152604091829020805483518184028101840190945280845260609392830182828015610ed257602002820191906000526020600020905b815481526020019060010190808311610ebe575b50505050509050919050565b610ee6612814565b80600081118015610ef8575060045481105b610f145760405162461bcd60e51b81526004016106ef906136f4565b610f1c612841565b6000828152600660205260408120905b6006820154811015610919576000826006018281548110610f4f57610f4f613754565b600091825260209091200154600284015460405163a9059cbb60e01b81526001600160a01b0392831693507f00000000000000000000000000000000000000000000000000000000000000009092169163a9059cbb91610fb49185919060040161376a565b6020604051808303816000875af1158015610fd3573d6000803e3d6000fd5b505050506040513d601f19601f82011682018060405250810190610ff79190613783565b50847f79ff6a60b3e21b3630b207e2a7b0b50b69b197d3d7ca776108ed2afb8fbac8dc82856002015460405161102e92919061376a565b60405180910390a25080611041816137ac565b915050610f2c565b611051612814565b61105b600061286b565b565b600061106983836128bd565b90505b92915050565b60006060806000806000606061108661293a565b61108e61296c565b60408051600080825260208201909252600f60f81b9b939a50919850469750309650945092509050565b61111b6040518061014001604052806000815260200160608152602001600081526020016000815260200160008152602001600081526020016060815260200160006001600160a01b031681526020016000151581526020016000151581525090565b8160008111801561112d575060045481105b6111495760405162461bcd60e51b81526004016106ef906136f4565b600660008481526020019081526020016000206040518061014001604052908160008201548152602001600182018054611182906137c5565b80601f01602080910402602001604051908101604052809291908181526020018280546111ae906137c5565b80156111fb5780601f106111d0576101008083540402835291602001916111fb565b820191906000526020600020905b8154815290600101906020018083116111de57829003601f168201915b50505050508152602001600282015481526020016003820154815260200160048201548152602001600582015481526020016006820180548060200260200160405190810160405280929190818152602001828054801561128557602002820191906000526020600020905b81546001600160a01b03168152600190910190602001808311611267575b5050509183525050600791909101546001600160a01b038116602083015260ff600160a01b8204811615156040840152600160a81b90910416151560609091015291505b50919050565b6112d7612841565b600a54600160a01b900460ff166113305760405162461bcd60e51b815260206004820181905260248201527f446562617465506f6f6c56323a2041697264726f70206e6f742061637469766560448201526064016106ef565b600084116113805760405162461bcd60e51b815260206004820181905260248201527f446562617465506f6f6c56323a204e6f20706f696e747320746f20636c61696d60448201526064016106ef565b604080517f09abcf75d4d2eff6e6e603a9b1412f04c8e2c793239c046c8c6ba628cf522c2a6020820152908101859052606081018490526080810183905260009060a00160405160208183030381529060405280519060200120905060006113e782612999565b905060006113f582856129c6565b90507f00000000000000000000000000000000000000000000000000000000000000006001600160a01b0316816001600160a01b0316146114485760405162461bcd60e51b81526004016106ef9061392a565b600086600c54896114599190613961565b6114639190613978565b9050600081116114b55760405162461bcd60e51b815260206004820181905260248201527f446562617465506f6f6c56323a204e6f20746f6b656e7320746f20636c61696d60448201526064016106ef565b600a5460405163a9059cbb60e01b81526001600160a01b039091169063a9059cbb906114e7903390859060040161376a565b6020604051808303816000875af1158015611506573d6000803e3d6000fd5b505050506040513d601f19601f8201168201806040525081019061152a9190613783565b5060408051828152602081018a905233917fd0755a9ef5a74f50d34b3503bb5b65ad71a112c001b76dfa6412c9aa4a1f43b0910160405180910390a2505050506115746001600055565b50505050565b8060008111801561158c575060045481105b6115a85760405162461bcd60e51b81526004016106ef906136f4565b6115b0612841565b6000828152600660205260409020600581015442116116115760405162461bcd60e51b815260206004820181905260248201527f446562617465506f6f6c56323a20446562617465206e6f74206578706972656460448201526064016106ef565b6007810154600160a81b900460ff161561163d5760405162461bcd60e51b81526004016106ef9061399a565b61164783336128bd565b6116935760405162461bcd60e51b815260206004820152601f60248201527f446562617465506f6f6c56323a204e6f742061207061727469636970616e740060448201526064016106ef565b6000838152600860205260409020544211156116fd5760405162461bcd60e51b815260206004820152602360248201527f446562617465506f6f6c56323a20526566756e6420706572696f6420657870696044820152621c995960ea1b60648201526084016106ef565b600281015460405163a9059cbb60e01b81526001600160a01b037f0000000000000000000000000000000000000000000000000000000000000000169163a9059cbb9161174e91339160040161376a565b6020604051808303816000875af115801561176d573d6000803e3d6000fd5b505050506040513d601f19601f820116820180604052508101906117919190613783565b6117e95760405162461bcd60e51b8152602060048201526024808201527f446562617465506f6f6c56323a20526566756e64207472616e736665722066616044820152631a5b195960e21b60648201526084016106ef565b6117f383336129f0565b827f79ff6a60b3e21b3630b207e2a7b0b50b69b197d3d7ca776108ed2afb8fbac8dc33836002015460405161182992919061376a565b60405180910390a2506109396001600055565b611844612841565b60008160200151116118ac5760405162461bcd60e51b815260206004820152602b60248201527f446562617465506f6f6c56323a20506f696e7473206d7573742062652067726560448201526a061746572207468616e20360ac1b60648201526084016106ef565b60008160400151511161190d5760405162461bcd60e51b8152602060048201526024808201527f446562617465506f6f6c56323a20526561736f6e2063616e6e6f7420626520656044820152636d70747960e01b60648201526084016106ef565b61191681612b0f565b6119325760405162461bcd60e51b81526004016106ef9061392a565b60208082015182516001600160a01b03166000908152600990925260408220805491929091611962908490613741565b9250508190555080600001516001600160a01b0316600080516020613a9b8339815191528260200151836040015160405161199e9291906139df565b60405180910390a26119b06001600055565b50565b6119bb612841565b600a816020015114611a215760405162461bcd60e51b815260206004820152602960248201527f446562617465506f6f6c56323a20496e76616c696420736861726520706f696e6044820152681d1cc8185b5bdd5b9d60ba1b60648201526084016106ef565b6040805180820182526005815264736861726560d81b6020918201529082015180519101207fc4cdc3d8a828364413eb5a76eb1fa4225d58cb47d3674544d05ebb54f20c552914611ab45760405162461bcd60e51b815260206004820152601c60248201527f446562617465506f6f6c56323a20496e76616c696420726561736f6e0000000060448201526064016106ef565b611abd81612b0f565b611ad95760405162461bcd60e51b81526004016106ef9061392a565b80516001600160a01b031660009081526009602052604081208054600a9290611b03908490613741565b9250508190555080600001516001600160a01b0316600080516020613a9b833981519152600a60405161199e91815260406020820181905260059082015264736861726560d81b606082015260800190565b611b5d612814565b6040516370a0823160e01b81523060048201526000907f00000000000000000000000000000000000000000000000000000000000000006001600160a01b0316906370a0823190602401602060405180830381865afa158015611bc4573d6000803e3d6000fd5b505050506040513d601f19601f82011682018060405250810190611be89190613a00565b905060008111611c455760405162461bcd60e51b815260206004820152602260248201527f446562617465506f6f6c56323a204e6f2066756e647320746f20776974686472604482015261617760f01b60648201526084016106ef565b7f00000000000000000000000000000000000000000000000000000000000000006001600160a01b031663a9059cbb611c866001546001600160a01b031690565b836040518363ffffffff1660e01b8152600401611ca492919061376a565b6020604051808303816000875af1158015611cc3573d6000803e3d6000fd5b505050506040513d601f19601f82011682018060405250810190611ce79190613783565b6119b05760405162461bcd60e51b815260206004820152601f60248201527f446562617465506f6f6c56323a205769746864726177616c206661696c65640060448201526064016106ef565b611d3b612814565b6001600160a01b038216611d915760405162461bcd60e51b815260206004820152601b60248201527f446562617465506f6f6c56323a20496e76616c696420746f6b656e000000000060448201526064016106ef565b60008111611de15760405162461bcd60e51b815260206004820152601c60248201527f446562617465506f6f6c56323a20496e76616c696420616d6f756e740000000060448201526064016106ef565b600a8054600c83905543600b8190556001600160a81b03199091166001600160a01b038516908117600160a01b179092556040805184815260208101929092527fed7f60bf056d1b78417c82bbbc5fe32284e4ff57356f801daa6844f110322a41910160405180910390a25050565b611e58612841565b600a816020015114611ebd5760405162461bcd60e51b815260206004820152602860248201527f446562617465506f6f6c56323a20496e76616c6964206c696b6520706f696e746044820152671cc8185b5bdd5b9d60c21b60648201526084016106ef565b60408051808201825260048152636c696b6560e01b6020918201529082015180519101207f16a69a64601e323737c13af3e3dd037eca589d19787dde3fb106c4d760353fed14611f4f5760405162461bcd60e51b815260206004820152601c60248201527f446562617465506f6f6c56323a20496e76616c696420726561736f6e0000000060448201526064016106ef565b611f5881612b0f565b611f745760405162461bcd60e51b81526004016106ef9061392a565b80516001600160a01b031660009081526009602052604081208054600a9290611f9e908490613741565b9250508190555080600001516001600160a01b0316600080516020613a9b833981519152600a60405161199e918152604060208201819052600490820152636c696b6560e01b606082015260800190565b80518015801590612001575060045481105b61201d5760405162461bcd60e51b81526004016106ef906136f4565b612025612841565b815160009081526006602052604090206007810154600160a01b900460ff166120605760405162461bcd60e51b81526004016106ef90613a19565b6007810154600160a81b900460ff161561208c5760405162461bcd60e51b81526004016106ef9061399a565b60068101546120dd5760405162461bcd60e51b815260206004820152601d60248201527f446562617465506f6f6c56323a204e6f207061727469636970616e747300000060448201526064016106ef565b6120ef836000015184602001516128bd565b61214a5760405162461bcd60e51b815260206004820152602660248201527f446562617465506f6f6c56323a2057696e6e6572206e6f74206120706172746960448201526518da5c185b9d60d21b60648201526084016106ef565b61215383612bff565b61216f5760405162461bcd60e51b81526004016106ef9061392a565b6006810154600282015460009161218591613961565b90506000612710612197601484613961565b6121a19190613978565b905060006121af8284613a5b565b6020870151600786018054600160a81b6001600160a01b03808516600161ff0160a01b0319909316929092171760ff60a01b191690915560405163a9059cbb60e01b81529293507f0000000000000000000000000000000000000000000000000000000000000000169163a9059cbb9161222d91859060040161376a565b6020604051808303816000875af115801561224c573d6000803e3d6000fd5b505050506040513d601f19601f820116820180604052508101906122709190613783565b6122c85760405162461bcd60e51b8152602060048201526024808201527f446562617465506f6f6c56323a2057696e6e6572207472616e736665722066616044820152631a5b195960e21b60648201526084016106ef565b6020808701516001600160a01b0316600090815260099091526040812080546103e892906122f7908490613741565b9091555050602080870151604080516103e88152928301819052600d908301526c3232b130ba32afbbb4b73732b960991b60608301526001600160a01b031690600080516020613a9b8339815191529060800160405180910390a2855160208701516040517f7ed5face07afb2b0e99df53523951350d2a3d4f5d105a0dd2110703efe3995379161238991859061376a565b60405180910390a2505050506109396001600055565b6123a7612814565b6001600160a01b0381166123d157604051631e4fbdf760e01b8152600060048201526024016106ef565b6119b08161286b565b806000811180156123ec575060045481105b6124085760405162461bcd60e51b81526004016106ef906136f4565b60008281526006602052604090206007810154839190600160a01b900460ff166124445760405162461bcd60e51b81526004016106ef90613a19565b80600401544210156124a45760405162461bcd60e51b8152602060048201526024808201527f446562617465506f6f6c56323a2044656261746520686173206e6f74207374616044820152631c9d195960e21b60648201526084016106ef565b80600501544211156124f85760405162461bcd60e51b815260206004820152601e60248201527f446562617465506f6f6c56323a204465626174652068617320656e646564000060448201526064016106ef565b60055460ff161561254b5760405162461bcd60e51b815260206004820181905260248201527f446562617465506f6f6c56323a20436f6e74726163742069732070617573656460448201526064016106ef565b612553612841565b60008481526006602081905260409091206003810154918101549091116125bc5760405162461bcd60e51b815260206004820152601c60248201527f446562617465506f6f6c56323a204465626174652069732066756c6c0000000060448201526064016106ef565b6125c685336128bd565b1561261f5760405162461bcd60e51b815260206004820152602360248201527f446562617465506f6f6c56323a20416c72656164792070617274696369706174604482015262696e6760e81b60648201526084016106ef565b60028101546040516323b872dd60e01b815233600482015230602482015260448101919091527f00000000000000000000000000000000000000000000000000000000000000006001600160a01b0316906323b872dd906064016020604051808303816000875af1158015612698573d6000803e3d6000fd5b505050506040513d601f19601f820116820180604052508101906126bc9190613783565b6127135760405162461bcd60e51b815260206004820152602260248201527f446562617465506f6f6c56323a2055534443207472616e73666572206661696c604482015261195960f21b60648201526084016106ef565b600681018054600181810183556000928352602080842090920180546001600160a01b03191633908117909155808452600783526040808520805493840181558552838520909201899055835260099091528120805460649290612778908490613741565b90915550506040513390600080516020613a9b833981519152906127cc9060648152604060208201819052601490820152733232b130ba32afb830b93a34b1b4b830ba34b7b760611b606082015260800190565b60405180910390a260405133815285907f7dd8cb04159701bc1976c246434d7d96812782e7489e6c5c34db49a388fe9e809060200160405180910390a2506115746001600055565b6001546001600160a01b0316331461105b5760405163118cdaa760e01b81523360048201526024016106ef565b60026000540361286457604051633ee5aeb560e01b815260040160405180910390fd5b6002600055565b600180546001600160a01b038381166001600160a01b0319831681179093556040519116919082907f8be0079c531659141344cd1fd0a4f28419497f9722a3daafe3b4186f6b6457e090600090a35050565b6000828152600660205260408120815b600682015481101561292f57836001600160a01b03168260060182815481106128f8576128f8613754565b6000918252602090912001546001600160a01b03160361291d5760019250505061106c565b80612927816137ac565b9150506128cd565b506000949350505050565b60606129677f00000000000000000000000000000000000000000000000000000000000000006002612c99565b905090565b60606129677f00000000000000000000000000000000000000000000000000000000000000006003612c99565b600061106c6129a6612d44565b8360405161190160f01b8152600281019290925260228201526042902090565b6000806000806129d68686612e6f565b9250925092506129e68282612ebc565b5090949350505050565b6000828152600660205260408120905b600682015481101561157457826001600160a01b0316826006018281548110612a2b57612a2b613754565b6000918252602090912001546001600160a01b031603612afd57600682018054612a5790600190613a5b565b81548110612a6757612a67613754565b6000918252602090912001546006830180546001600160a01b039092169183908110612a9557612a95613754565b9060005260206000200160006101000a8154816001600160a01b0302191690836001600160a01b0316021790555081600601805480612ad657612ad6613a6e565b600082815260209020810160001990810180546001600160a01b0319169055019055611574565b80612b07816137ac565b915050612a00565b6000807f3f1d2751ce91023ddbb199169d15e32e1da24b78acebc8791e2543f34520bd93836000015184602001518560400151805190602001208660600151604051602001612b899594939291909485526001600160a01b0393909316602085015260408401919091526060830152608082015260a00190565b6040516020818303038152906040528051906020012090506000612bac82612999565b90506000612bbe8286608001516129c6565b90507f00000000000000000000000000000000000000000000000000000000000000006001600160a01b0316816001600160a01b0316149350505050919050565b6000807fb117e7df7afc3d596b66d8aed8b3987c92d6781a819d58bfe89281bd26f969c7836000015184602001518560400151604051602001612c64949392919093845260208401929092526001600160a01b03166040830152606082015260800190565b6040516020818303038152906040528051906020012090506000612c8782612999565b90506000612bbe8286606001516129c6565b606060ff8314612cb357612cac83612f75565b905061106c565b818054612cbf906137c5565b80601f0160208091040260200160405190810160405280929190818152602001828054612ceb906137c5565b8015612d385780601f10612d0d57610100808354040283529160200191612d38565b820191906000526020600020905b815481529060010190602001808311612d1b57829003601f168201915b5050505050905061106c565b6000306001600160a01b037f000000000000000000000000000000000000000000000000000000000000000016148015612d9d57507f000000000000000000000000000000000000000000000000000000000000000046145b15612dc757507f000000000000000000000000000000000000000000000000000000000000000090565b612967604080517f8b73c3c69bb8fe3d512ecc4cf759cc79239f7b179b0ffacaa9a75d522b39400f60208201527f0000000000000000000000000000000000000000000000000000000000000000918101919091527f000000000000000000000000000000000000000000000000000000000000000060608201524660808201523060a082015260009060c00160405160208183030381529060405280519060200120905090565b60008060008351604103612ea95760208401516040850151606086015160001a612e9b88828585612fb4565b955095509550505050612eb5565b50508151600091506002905b9250925092565b6000826003811115612ed057612ed0613a84565b03612ed9575050565b6001826003811115612eed57612eed613a84565b03612f0b5760405163f645eedf60e01b815260040160405180910390fd5b6002826003811115612f1f57612f1f613a84565b03612f405760405163fce698f760e01b8152600481018290526024016106ef565b6003826003811115612f5457612f54613a84565b03610939576040516335e2f38360e21b8152600481018290526024016106ef565b60606000612f8283613083565b604080516020808252818301909252919250600091906020820181803683375050509182525060208101929092525090565b600080807f7fffffffffffffffffffffffffffffff5d576e7357a4501ddfe92f46681b20a0841115612fef5750600091506003905082613079565b604080516000808252602082018084528a905260ff891692820192909252606081018790526080810186905260019060a0016020604051602081039080840390855afa158015613043573d6000803e3d6000fd5b5050604051601f1901519150506001600160a01b03811661306f57506000925060019150829050613079565b9250600091508190505b9450945094915050565b600060ff8216601f81111561106c57604051632cd44ac360e21b815260040160405180910390fd5b828054828255906000526020600020908101928215613100579160200282015b8281111561310057825182546001600160a01b0319166001600160a01b039091161782556020909201916001909101906130cb565b5061310c929150613110565b5090565b5b8082111561310c5760008155600101613111565b80356001600160a01b038116811461313c57600080fd5b919050565b6000806040838503121561315457600080fd5b61315d83613125565b946020939093013593505050565b60006020828403121561317d57600080fd5b5035919050565b6000815180845260005b818110156131aa5760208185018101518683018201520161318e565b506000602082860101526020601f19601f83011685010191505092915050565b60006101208b83528060208401526131e48184018c613184565b604084019a909a5250506060810196909652608086019490945260a08501929092526001600160a01b031660c0840152151560e083015215156101009091015292915050565b634e487b7160e01b600052604160045260246000fd5b60405160a0810167ffffffffffffffff811182821017156132635761326361322a565b60405290565b600082601f83011261327a57600080fd5b813567ffffffffffffffff808211156132955761329561322a565b604051601f8301601f19908116603f011681019082821181831017156132bd576132bd61322a565b816040528381528660208588010111156132d657600080fd5b836020870160208301376000602085830101528094505050505092915050565b6000806000806080858703121561330c57600080fd5b843567ffffffffffffffff81111561332357600080fd5b61332f87828801613269565b97602087013597506040870135966060013595509350505050565b60006020828403121561335c57600080fd5b61106982613125565b600081518084526020808501945080840160005b8381101561339557815187529582019590820190600101613379565b509495945050505050565b6020815260006110696020830184613365565b600080604083850312156133c657600080fd5b823591506133d660208401613125565b90509250929050565b60ff60f81b8816815260e0602082015260006133fe60e0830189613184565b82810360408401526134108189613184565b606084018890526001600160a01b038716608085015260a0840186905283810360c085015290506134418185613365565b9a9950505050505050505050565b600081518084526020808501945080840160005b838110156133955781516001600160a01b031687529582019590820190600101613463565b6020815281516020820152600060208301516101408060408501526134b1610160850183613184565b91506040850151606085015260608501516080850152608085015160a085015260a085015160c085015260c0850151601f198584030160e08601526134f6838261344f565b92505060e0850151610100613515818701836001600160a01b03169052565b860151905061012061352a8682018315159052565b90950151151593019290925250919050565b6000806000806080858703121561355257600080fd5b843593506020850135925060408501359150606085013567ffffffffffffffff81111561357e57600080fd5b61358a87828801613269565b91505092959194509250565b6000602082840312156135a857600080fd5b813567ffffffffffffffff808211156135c057600080fd5b9083019060a082860312156135d457600080fd5b6135dc613240565b6135e583613125565b81526020830135602082015260408301358281111561360357600080fd5b61360f87828601613269565b6040830152506060830135606082015260808301358281111561363157600080fd5b61363d87828601613269565b60808301525095945050505050565b60006020828403121561365e57600080fd5b813567ffffffffffffffff8082111561367657600080fd5b908301906080828603121561368a57600080fd5b6040516080810181811083821117156136a5576136a561322a565b604052823581526136b860208401613125565b6020820152604083013560408201526060830135828111156136d957600080fd5b6136e587828601613269565b60608301525095945050505050565b6020808252601f908201527f446562617465506f6f6c56323a20496e76616c69642064656261746520494400604082015260600190565b634e487b7160e01b600052601160045260246000fd5b8082018082111561106c5761106c61372b565b634e487b7160e01b600052603260045260246000fd5b6001600160a01b03929092168252602082015260400190565b60006020828403121561379557600080fd5b815180151581146137a557600080fd5b9392505050565b6000600182016137be576137be61372b565b5060010190565b600181811c908216806137d957607f821691505b6020821081036112c957634e487b7160e01b600052602260045260246000fd5b601f82111561384357600081815260208120601f850160051c810160208610156138205750805b601f850160051c820191505b8181101561383f5782815560010161382c565b5050505b505050565b815167ffffffffffffffff8111156138625761386261322a565b6138768161387084546137c5565b846137f9565b602080601f8311600181146138ab57600084156138935750858301515b600019600386901b1c1916600185901b17855561383f565b600085815260208120601f198616915b828110156138da578886015182559484019460019091019084016138bb565b50858210156138f85787850151600019600388901b60f8161c191681555b5050505050600190811b01905550565b60408152600061391b6040830185613184565b90508260208301529392505050565b6020808252601f908201527f446562617465506f6f6c56323a20496e76616c6964207369676e617475726500604082015260600190565b808202811582820484141761106c5761106c61372b565b60008261399557634e487b7160e01b600052601260045260246000fd5b500490565b60208082526025908201527f446562617465506f6f6c56323a2057696e6e657220616c7265616479206465636040820152641b185c995960da1b606082015260800190565b8281526040602082015260006139f86040830184613184565b949350505050565b600060208284031215613a1257600080fd5b5051919050565b60208082526022908201527f446562617465506f6f6c56323a20446562617465206973206e6f742061637469604082015261766560f01b606082015260800190565b8181038181111561106c5761106c61372b565b634e487b7160e01b600052603160045260246000fd5b634e487b7160e01b600052602160045260246000fdfe4c3089477cda1ac100291a040b3ac97ff5f55b6d8b2acfb56a59b9419d95ce04a2646970667358221220ca19df4d2361d55cbc2c89623f6fa9eed5452554f158f5cb99afd999ae81715c64736f6c63430008140033","opcodes":"PUSH2 0x1A0 PUSH1 0x40 MSTORE PUSH1 0x1 PUSH1 0x4 SSTORE PUSH1 0x5 DUP1 SLOAD PUSH1 0xFF NOT AND SWAP1 SSTORE PUSH1 0xA DUP1 SLOAD PUSH1 0xFF PUSH1 0xA0 SHL NOT AND SWAP1 SSTORE CALLVALUE DUP1 ISZERO PUSH3 0x2E JUMPI PUSH1 0x0 DUP1 REVERT JUMPDEST POP PUSH1 0x40 MLOAD PUSH3 0x4115 CODESIZE SUB DUP1 PUSH3 0x4115 DUP4 CODECOPY DUP2 ADD PUSH1 0x40 DUP2 SWAP1 MSTORE PUSH3 0x51 SWAP2 PUSH3 0x349 JUMP JUMPDEST PUSH1 0x40 DUP1 MLOAD DUP1 DUP3 ADD DUP3 MSTORE PUSH1 0xC DUP2 MSTORE PUSH12 0x2232B130BA32A837B7B62B19 PUSH1 0xA1 SHL PUSH1 0x20 DUP1 DUP4 ADD SWAP2 SWAP1 SWAP2 MSTORE DUP3 MLOAD DUP1 DUP5 ADD SWAP1 SWAP4 MSTORE PUSH1 0x1 DUP1 DUP5 MSTORE PUSH1 0x31 PUSH1 0xF8 SHL SWAP2 DUP5 ADD SWAP2 SWAP1 SWAP2 MSTORE PUSH1 0x0 SSTORE SWAP1 CALLER DUP1 PUSH3 0xBC JUMPI PUSH1 0x40 MLOAD PUSH4 0x1E4FBDF7 PUSH1 0xE0 SHL DUP2 MSTORE PUSH1 0x0 PUSH1 0x4 DUP3 ADD MSTORE PUSH1 0x24 ADD JUMPDEST PUSH1 0x40 MLOAD DUP1 SWAP2 SUB SWAP1 REVERT JUMPDEST PUSH3 0xC7 DUP2 PUSH3 0x25E JUMP JUMPDEST POP PUSH3 0xD5 DUP3 PUSH1 0x2 PUSH3 0x2B0 JUMP JUMPDEST PUSH2 0x120 MSTORE PUSH3 0xE6 DUP2 PUSH1 0x3 PUSH3 0x2B0 JUMP JUMPDEST PUSH2 0x140 MSTORE DUP2 MLOAD PUSH1 0x20 DUP1 DUP5 ADD SWAP2 SWAP1 SWAP2 KECCAK256 PUSH1 0xE0 MSTORE DUP2 MLOAD SWAP1 DUP3 ADD KECCAK256 PUSH2 0x100 MSTORE CHAINID PUSH1 0xA0 MSTORE PUSH3 0x174 PUSH1 0xE0 MLOAD PUSH2 0x100 MLOAD PUSH1 0x40 DUP1 MLOAD PUSH32 0x8B73C3C69BB8FE3D512ECC4CF759CC79239F7B179B0FFACAA9A75D522B39400F PUSH1 0x20 DUP3 ADD MSTORE SWAP1 DUP2 ADD SWAP3 SWAP1 SWAP3 MSTORE PUSH1 0x60 DUP3 ADD MSTORE CHAINID PUSH1 0x80 DUP3 ADD MSTORE ADDRESS PUSH1 0xA0 DUP3 ADD MSTORE PUSH1 0x0 SWAP1 PUSH1 0xC0 ADD PUSH1 0x40 MLOAD PUSH1 0x20 DUP2 DUP4 SUB SUB DUP2 MSTORE SWAP1 PUSH1 0x40 MSTORE DUP1 MLOAD SWAP1 PUSH1 0x20 ADD KECCAK256 SWAP1 POP SWAP1 JUMP JUMPDEST PUSH1 0x80 MSTORE POP POP ADDRESS PUSH1 0xC0 MSTORE PUSH1 0x1 PUSH1 0x1 PUSH1 0xA0 SHL SUB DUP3 AND PUSH3 0x1E0 JUMPI PUSH1 0x40 MLOAD PUSH3 0x461BCD PUSH1 0xE5 SHL DUP2 MSTORE PUSH1 0x20 PUSH1 0x4 DUP3 ADD MSTORE PUSH1 0x22 PUSH1 0x24 DUP3 ADD MSTORE PUSH32 0x446562617465506F6F6C56323A20496E76616C69642055534443206164647265 PUSH1 0x44 DUP3 ADD MSTORE PUSH2 0x7373 PUSH1 0xF0 SHL PUSH1 0x64 DUP3 ADD MSTORE PUSH1 0x84 ADD PUSH3 0xB3 JUMP JUMPDEST PUSH1 0x1 PUSH1 0x1 PUSH1 0xA0 SHL SUB DUP2 AND PUSH3 0x244 JUMPI PUSH1 0x40 MLOAD PUSH3 0x461BCD PUSH1 0xE5 SHL DUP2 MSTORE PUSH1 0x20 PUSH1 0x4 DUP3 ADD MSTORE PUSH1 0x24 DUP1 DUP3 ADD MSTORE PUSH32 0x446562617465506F6F6C56323A20496E76616C6964206F7261636C6520616464 PUSH1 0x44 DUP3 ADD MSTORE PUSH4 0x72657373 PUSH1 0xE0 SHL PUSH1 0x64 DUP3 ADD MSTORE PUSH1 0x84 ADD PUSH3 0xB3 JUMP JUMPDEST PUSH1 0x1 PUSH1 0x1 PUSH1 0xA0 SHL SUB SWAP2 DUP3 AND PUSH2 0x160 MSTORE AND PUSH2 0x180 MSTORE PUSH3 0x567 JUMP JUMPDEST PUSH1 0x1 DUP1 SLOAD PUSH1 0x1 PUSH1 0x1 PUSH1 0xA0 SHL SUB DUP4 DUP2 AND PUSH1 0x1 PUSH1 0x1 PUSH1 0xA0 SHL SUB NOT DUP4 AND DUP2 OR SWAP1 SWAP4 SSTORE PUSH1 0x40 MLOAD SWAP2 AND SWAP2 SWAP1 DUP3 SWAP1 PUSH32 0x8BE0079C531659141344CD1FD0A4F28419497F9722A3DAAFE3B4186F6B6457E0 SWAP1 PUSH1 0x0 SWAP1 LOG3 POP POP JUMP JUMPDEST PUSH1 0x0 PUSH1 0x20 DUP4 MLOAD LT ISZERO PUSH3 0x2D0 JUMPI PUSH3 0x2C8 DUP4 PUSH3 0x2E9 JUMP JUMPDEST SWAP1 POP PUSH3 0x2E3 JUMP JUMPDEST DUP2 PUSH3 0x2DD DUP5 DUP3 PUSH3 0x426 JUMP JUMPDEST POP PUSH1 0xFF SWAP1 POP JUMPDEST SWAP3 SWAP2 POP POP JUMP JUMPDEST PUSH1 0x0 DUP1 DUP3 SWAP1 POP PUSH1 0x1F DUP2 MLOAD GT ISZERO PUSH3 0x317 JUMPI DUP3 PUSH1 0x40 MLOAD PUSH4 0x305A27A9 PUSH1 0xE0 SHL DUP2 MSTORE PUSH1 0x4 ADD PUSH3 0xB3 SWAP2 SWAP1 PUSH3 0x4F2 JUMP JUMPDEST DUP1 MLOAD PUSH3 0x324 DUP3 PUSH3 0x542 JUMP JUMPDEST OR SWAP4 SWAP3 POP POP POP JUMP JUMPDEST DUP1 MLOAD PUSH1 0x1 PUSH1 0x1 PUSH1 0xA0 SHL SUB DUP2 AND DUP2 EQ PUSH3 0x344 JUMPI PUSH1 0x0 DUP1 REVERT JUMPDEST SWAP2 SWAP1 POP JUMP JUMPDEST PUSH1 0x0 DUP1 PUSH1 0x40 DUP4 DUP6 SUB SLT ISZERO PUSH3 0x35D JUMPI PUSH1 0x0 DUP1 REVERT JUMPDEST PUSH3 0x368 DUP4 PUSH3 0x32C JUMP JUMPDEST SWAP2 POP PUSH3 0x378 PUSH1 0x20 DUP5 ADD PUSH3 0x32C JUMP JUMPDEST SWAP1 POP SWAP3 POP SWAP3 SWAP1 POP JUMP JUMPDEST PUSH4 0x4E487B71 PUSH1 0xE0 SHL PUSH1 0x0 MSTORE PUSH1 0x41 PUSH1 0x4 MSTORE PUSH1 0x24 PUSH1 0x0 REVERT JUMPDEST PUSH1 0x1 DUP2 DUP2 SHR SWAP1 DUP3 AND DUP1 PUSH3 0x3AC JUMPI PUSH1 0x7F DUP3 AND SWAP2 POP JUMPDEST PUSH1 0x20 DUP3 LT DUP2 SUB PUSH3 0x3CD JUMPI PUSH4 0x4E487B71 PUSH1 0xE0 SHL PUSH1 0x0 MSTORE PUSH1 0x22 PUSH1 0x4 MSTORE PUSH1 0x24 PUSH1 0x0 REVERT JUMPDEST POP SWAP2 SWAP1 POP JUMP JUMPDEST PUSH1 0x1F DUP3 GT ISZERO PUSH3 0x421 JUMPI PUSH1 0x0 DUP2 DUP2 MSTORE PUSH1 0x20 DUP2 KECCAK256 PUSH1 0x1F DUP6 ADD PUSH1 0x5 SHR DUP2 ADD PUSH1 0x20 DUP7 LT ISZERO PUSH3 0x3FC JUMPI POP DUP1 JUMPDEST PUSH1 0x1F DUP6 ADD PUSH1 0x5 SHR DUP3 ADD SWAP2 POP JUMPDEST DUP2 DUP2 LT ISZERO PUSH3 0x41D JUMPI DUP3 DUP2 SSTORE PUSH1 0x1 ADD PUSH3 0x408 JUMP JUMPDEST POP POP POP JUMPDEST POP POP POP JUMP JUMPDEST DUP2 MLOAD PUSH1 0x1 PUSH1 0x1 PUSH1 0x40 SHL SUB DUP2 GT ISZERO PUSH3 0x442 JUMPI PUSH3 0x442 PUSH3 0x381 JUMP JUMPDEST PUSH3 0x45A DUP2 PUSH3 0x453 DUP5 SLOAD PUSH3 0x397 JUMP JUMPDEST DUP5 PUSH3 0x3D3 JUMP JUMPDEST PUSH1 0x20 DUP1 PUSH1 0x1F DUP4 GT PUSH1 0x1 DUP2 EQ PUSH3 0x492 JUMPI PUSH1 0x0 DUP5 ISZERO PUSH3 0x479 JUMPI POP DUP6 DUP4 ADD MLOAD JUMPDEST PUSH1 0x0 NOT PUSH1 0x3 DUP7 SWAP1 SHL SHR NOT AND PUSH1 0x1 DUP6 SWAP1 SHL OR DUP6 SSTORE PUSH3 0x41D JUMP JUMPDEST PUSH1 0x0 DUP6 DUP2 MSTORE PUSH1 0x20 DUP2 KECCAK256 PUSH1 0x1F NOT DUP7 AND SWAP2 JUMPDEST DUP3 DUP2 LT ISZERO PUSH3 0x4C3 JUMPI DUP9 DUP7 ADD MLOAD DUP3 SSTORE SWAP5 DUP5 ADD SWAP5 PUSH1 0x1 SWAP1 SWAP2 ADD SWAP1 DUP5 ADD PUSH3 0x4A2 JUMP JUMPDEST POP DUP6 DUP3 LT ISZERO PUSH3 0x4E2 JUMPI DUP8 DUP6 ADD MLOAD PUSH1 0x0 NOT PUSH1 0x3 DUP9 SWAP1 SHL PUSH1 0xF8 AND SHR NOT AND DUP2 SSTORE JUMPDEST POP POP POP POP POP PUSH1 0x1 SWAP1 DUP2 SHL ADD SWAP1 SSTORE POP JUMP JUMPDEST PUSH1 0x0 PUSH1 0x20 DUP1 DUP4 MSTORE DUP4 MLOAD DUP1 DUP3 DUP6 ADD MSTORE PUSH1 0x0 JUMPDEST DUP2 DUP2 LT ISZERO PUSH3 0x521 JUMPI DUP6 DUP2 ADD DUP4 ADD MLOAD DUP6 DUP3 ADD PUSH1 0x40 ADD MSTORE DUP3 ADD PUSH3 0x503 JUMP JUMPDEST POP PUSH1 0x0 PUSH1 0x40 DUP3 DUP7 ADD ADD MSTORE PUSH1 0x40 PUSH1 0x1F NOT PUSH1 0x1F DUP4 ADD AND DUP6 ADD ADD SWAP3 POP POP POP SWAP3 SWAP2 POP POP JUMP JUMPDEST DUP1 MLOAD PUSH1 0x20 DUP1 DUP4 ADD MLOAD SWAP2 SWAP1 DUP2 LT ISZERO PUSH3 0x3CD JUMPI PUSH1 0x0 NOT PUSH1 0x20 SWAP2 SWAP1 SWAP2 SUB PUSH1 0x3 SHL SHL AND SWAP2 SWAP1 POP JUMP JUMPDEST PUSH1 0x80 MLOAD PUSH1 0xA0 MLOAD PUSH1 0xC0 MLOAD PUSH1 0xE0 MLOAD PUSH2 0x100 MLOAD PUSH2 0x120 MLOAD PUSH2 0x140 MLOAD PUSH2 0x160 MLOAD PUSH2 0x180 MLOAD PUSH2 0x3AF0 PUSH3 0x625 PUSH1 0x0 CODECOPY PUSH1 0x0 DUP2 DUP2 PUSH2 0x3D9 ADD MSTORE DUP2 DUP2 PUSH2 0x65F ADD MSTORE DUP2 DUP2 PUSH2 0xA2D ADD MSTORE DUP2 DUP2 PUSH2 0x13F9 ADD MSTORE PUSH2 0x2BC2 ADD MSTORE PUSH1 0x0 DUP2 DUP2 PUSH2 0x268 ADD MSTORE DUP2 DUP2 PUSH2 0x84C ADD MSTORE DUP2 DUP2 PUSH2 0xF7C ADD MSTORE DUP2 DUP2 PUSH2 0x1719 ADD MSTORE DUP2 DUP2 PUSH2 0x1B75 ADD MSTORE DUP2 DUP2 PUSH2 0x1C47 ADD MSTORE DUP2 DUP2 PUSH2 0x21F8 ADD MSTORE PUSH2 0x2647 ADD MSTORE PUSH1 0x0 PUSH2 0x2973 ADD MSTORE PUSH1 0x0 PUSH2 0x2941 ADD MSTORE PUSH1 0x0 PUSH2 0x2E1E ADD MSTORE PUSH1 0x0 PUSH2 0x2DF6 ADD MSTORE PUSH1 0x0 PUSH2 0x2D51 ADD MSTORE PUSH1 0x0 PUSH2 0x2D7B ADD MSTORE PUSH1 0x0 PUSH2 0x2DA5 ADD MSTORE PUSH2 0x3AF0 PUSH1 0x0 RETURN INVALID PUSH1 0x80 PUSH1 0x40 MSTORE CALLVALUE DUP1 ISZERO PUSH2 0x10 JUMPI PUSH1 0x0 DUP1 REVERT JUMPDEST POP PUSH1 0x4 CALLDATASIZE LT PUSH2 0x25E JUMPI PUSH1 0x0 CALLDATALOAD PUSH1 0xE0 SHR DUP1 PUSH4 0x8DA5CB5B GT PUSH2 0x146 JUMPI DUP1 PUSH4 0xD1B6DD30 GT PUSH2 0xC3 JUMPI DUP1 PUSH4 0xF2FDE38B GT PUSH2 0x87 JUMPI DUP1 PUSH4 0xF2FDE38B EQ PUSH2 0x54A JUMPI DUP1 PUSH4 0xF50DDBC7 EQ PUSH2 0x55D JUMPI DUP1 PUSH4 0xF5D8E5D9 EQ PUSH2 0x57D JUMPI DUP1 PUSH4 0xF5FCE245 EQ PUSH2 0x590 JUMPI DUP1 PUSH4 0xF67DC95F EQ PUSH2 0x59A JUMPI DUP1 PUSH4 0xFDE59FA3 EQ PUSH2 0x2C7 JUMPI PUSH1 0x0 DUP1 REVERT JUMPDEST DUP1 PUSH4 0xD1B6DD30 EQ PUSH2 0x4E8 JUMPI DUP1 PUSH4 0xDD8704C1 EQ PUSH2 0x508 JUMPI DUP1 PUSH4 0xDD915129 EQ PUSH2 0x51B JUMPI DUP1 PUSH4 0xE1F1C4A7 EQ PUSH2 0x52E JUMPI DUP1 PUSH4 0xF0F58836 EQ PUSH2 0x537 JUMPI PUSH1 0x0 DUP1 REVERT JUMPDEST DUP1 PUSH4 0xB073F687 GT PUSH2 0x10A JUMPI DUP1 PUSH4 0xB073F687 EQ PUSH2 0x4A8 JUMPI DUP1 PUSH4 0xB0F3C981 EQ PUSH2 0x4B1 JUMPI DUP1 PUSH4 0xB68C72B9 EQ PUSH2 0x4C4 JUMPI DUP1 PUSH4 0xBE3D48C6 EQ PUSH2 0x4CD JUMPI DUP1 PUSH4 0xD0B7830B EQ PUSH2 0x4E0 JUMPI PUSH1 0x0 DUP1 REVERT JUMPDEST DUP1 PUSH4 0x8DA5CB5B EQ PUSH2 0x428 JUMPI DUP1 PUSH4 0x98D336AF EQ PUSH2 0x439 JUMPI DUP1 PUSH4 0xA29CDC72 EQ PUSH2 0x459 JUMPI DUP1 PUSH4 0xA4B2409E EQ PUSH2 0x46C JUMPI DUP1 PUSH4 0xAEEFE31F EQ PUSH2 0x47F JUMPI PUSH1 0x0 DUP1 REVERT JUMPDEST DUP1 PUSH4 0x4D06068A GT PUSH2 0x1DF JUMPI DUP1 PUSH4 0x715018A6 GT PUSH2 0x1A3 JUMPI DUP1 PUSH4 0x715018A6 EQ PUSH2 0x3B9 JUMPI DUP1 PUSH4 0x758D9B89 EQ PUSH2 0x3C1 JUMPI DUP1 PUSH4 0x7DC0D1D0 EQ PUSH2 0x3D4 JUMPI DUP1 PUSH4 0x7F6578D3 EQ PUSH2 0x3FB JUMPI DUP1 PUSH4 0x84B0196E EQ PUSH2 0x405 JUMPI DUP1 PUSH4 0x8C7971C5 EQ PUSH2 0x420 JUMPI PUSH1 0x0 DUP1 REVERT JUMPDEST DUP1 PUSH4 0x4D06068A EQ PUSH2 0x338 JUMPI DUP1 PUSH4 0x59758FCF EQ PUSH2 0x34B JUMPI DUP1 PUSH4 0x5ABEAD8A EQ PUSH2 0x373 JUMPI DUP1 PUSH4 0x704115AD EQ PUSH2 0x386 JUMPI DUP1 PUSH4 0x70E5DEB9 EQ PUSH2 0x3A6 JUMPI PUSH1 0x0 DUP1 REVERT JUMPDEST DUP1 PUSH4 0x20104289 GT PUSH2 0x226 JUMPI DUP1 PUSH4 0x20104289 EQ PUSH2 0x2E2 JUMPI DUP1 PUSH4 0x27C830A9 EQ PUSH2 0x306 JUMPI DUP1 PUSH4 0x36195513 EQ PUSH2 0x313 JUMPI DUP1 PUSH4 0x36DC37AB EQ PUSH2 0x31C JUMPI DUP1 PUSH4 0x3A73D46E EQ PUSH2 0x32F JUMPI PUSH1 0x0 DUP1 REVERT JUMPDEST DUP1 PUSH4 0x11EAC855 EQ PUSH2 0x263 JUMPI DUP1 PUSH4 0x147E291F EQ PUSH2 0x2A7 JUMPI DUP1 PUSH4 0x15548232 EQ PUSH2 0x2B1 JUMPI DUP1 PUSH4 0x1C2155D6 EQ PUSH2 0x2C7 JUMPI DUP1 PUSH4 0x1ECA9561 EQ PUSH2 0x2CF JUMPI JUMPDEST PUSH1 0x0 DUP1 REVERT JUMPDEST PUSH2 0x28A PUSH32 0x0 DUP2 JUMP JUMPDEST PUSH1 0x40 MLOAD PUSH1 0x1 PUSH1 0x1 PUSH1 0xA0 SHL SUB SWAP1 SWAP2 AND DUP2 MSTORE PUSH1 0x20 ADD JUMPDEST PUSH1 0x40 MLOAD DUP1 SWAP2 SUB SWAP1 RETURN JUMPDEST PUSH2 0x2AF PUSH2 0x5BA JUMP JUMPDEST STOP JUMPDEST PUSH2 0x2B9 PUSH1 0x14 DUP2 JUMP JUMPDEST PUSH1 0x40 MLOAD SWAP1 DUP2 MSTORE PUSH1 0x20 ADD PUSH2 0x29E JUMP JUMPDEST PUSH2 0x2B9 PUSH1 0xA DUP2 JUMP JUMPDEST PUSH2 0x2B9 PUSH2 0x2DD CALLDATASIZE PUSH1 0x4 PUSH2 0x3141 JUMP JUMPDEST PUSH2 0x60F JUMP JUMPDEST PUSH1 0xA SLOAD PUSH2 0x2F6 SWAP1 PUSH1 0x1 PUSH1 0xA0 SHL SWAP1 DIV PUSH1 0xFF AND DUP2 JUMP JUMPDEST PUSH1 0x40 MLOAD SWAP1 ISZERO ISZERO DUP2 MSTORE PUSH1 0x20 ADD PUSH2 0x29E JUMP JUMPDEST PUSH1 0x5 SLOAD PUSH2 0x2F6 SWAP1 PUSH1 0xFF AND DUP2 JUMP JUMPDEST PUSH2 0x2B9 PUSH1 0x4 SLOAD DUP2 JUMP JUMPDEST PUSH2 0x2AF PUSH2 0x32A CALLDATASIZE PUSH1 0x4 PUSH2 0x316B JUMP JUMPDEST PUSH2 0x640 JUMP JUMPDEST PUSH2 0x2B9 PUSH1 0xB SLOAD DUP2 JUMP JUMPDEST PUSH1 0xA SLOAD PUSH2 0x28A SWAP1 PUSH1 0x1 PUSH1 0x1 PUSH1 0xA0 SHL SUB AND DUP2 JUMP JUMPDEST PUSH2 0x35E PUSH2 0x359 CALLDATASIZE PUSH1 0x4 PUSH2 0x316B JUMP JUMPDEST PUSH2 0x93D JUMP JUMPDEST PUSH1 0x40 MLOAD PUSH2 0x29E SWAP10 SWAP9 SWAP8 SWAP7 SWAP6 SWAP5 SWAP4 SWAP3 SWAP2 SWAP1 PUSH2 0x31CA JUMP JUMPDEST PUSH2 0x2B9 PUSH2 0x381 CALLDATASIZE PUSH1 0x4 PUSH2 0x32F6 JUMP JUMPDEST PUSH2 0xA20 JUMP JUMPDEST PUSH2 0x399 PUSH2 0x394 CALLDATASIZE PUSH1 0x4 PUSH2 0x334A JUMP JUMPDEST PUSH2 0xE72 JUMP JUMPDEST PUSH1 0x40 MLOAD PUSH2 0x29E SWAP2 SWAP1 PUSH2 0x33A0 JUMP JUMPDEST PUSH2 0x2AF PUSH2 0x3B4 CALLDATASIZE PUSH1 0x4 PUSH2 0x316B JUMP JUMPDEST PUSH2 0xEDE JUMP JUMPDEST PUSH2 0x2AF PUSH2 0x1049 JUMP JUMPDEST PUSH2 0x2F6 PUSH2 0x3CF CALLDATASIZE PUSH1 0x4 PUSH2 0x33B3 JUMP JUMPDEST PUSH2 0x105D JUMP JUMPDEST PUSH2 0x28A PUSH32 0x0 DUP2 JUMP JUMPDEST PUSH2 0x2B9 PUSH3 0x93A80 DUP2 JUMP JUMPDEST PUSH2 0x40D PUSH2 0x1072 JUMP JUMPDEST PUSH1 0x40 MLOAD PUSH2 0x29E SWAP8 SWAP7 SWAP6 SWAP5 SWAP4 SWAP3 SWAP2 SWAP1 PUSH2 0x33DF JUMP JUMPDEST PUSH2 0x2B9 PUSH1 0x64 DUP2 JUMP JUMPDEST PUSH1 0x1 SLOAD PUSH1 0x1 PUSH1 0x1 PUSH1 0xA0 SHL SUB AND PUSH2 0x28A JUMP JUMPDEST PUSH2 0x44C PUSH2 0x447 CALLDATASIZE PUSH1 0x4 PUSH2 0x316B JUMP JUMPDEST PUSH2 0x10B8 JUMP JUMPDEST PUSH1 0x40 MLOAD PUSH2 0x29E SWAP2 SWAP1 PUSH2 0x3488 JUMP JUMPDEST PUSH2 0x2AF PUSH2 0x467 CALLDATASIZE PUSH1 0x4 PUSH2 0x353C JUMP JUMPDEST PUSH2 0x12CF JUMP JUMPDEST PUSH2 0x2AF PUSH2 0x47A CALLDATASIZE PUSH1 0x4 PUSH2 0x316B JUMP JUMPDEST PUSH2 0x157A JUMP JUMPDEST PUSH2 0x2B9 PUSH2 0x48D CALLDATASIZE PUSH1 0x4 PUSH2 0x334A JUMP JUMPDEST PUSH1 0x1 PUSH1 0x1 PUSH1 0xA0 SHL SUB AND PUSH1 0x0 SWAP1 DUP2 MSTORE PUSH1 0x9 PUSH1 0x20 MSTORE PUSH1 0x40 SWAP1 KECCAK256 SLOAD SWAP1 JUMP JUMPDEST PUSH2 0x2B9 PUSH1 0xC SLOAD DUP2 JUMP JUMPDEST PUSH2 0x2AF PUSH2 0x4BF CALLDATASIZE PUSH1 0x4 PUSH2 0x3596 JUMP JUMPDEST PUSH2 0x183C JUMP JUMPDEST PUSH2 0x2B9 PUSH2 0x3E8 DUP2 JUMP JUMPDEST PUSH2 0x2AF PUSH2 0x4DB CALLDATASIZE PUSH1 0x4 PUSH2 0x3596 JUMP JUMPDEST PUSH2 0x19B3 JUMP JUMPDEST PUSH2 0x2AF PUSH2 0x1B55 JUMP JUMPDEST PUSH2 0x2B9 PUSH2 0x4F6 CALLDATASIZE PUSH1 0x4 PUSH2 0x334A JUMP JUMPDEST PUSH1 0xD PUSH1 0x20 MSTORE PUSH1 0x0 SWAP1 DUP2 MSTORE PUSH1 0x40 SWAP1 KECCAK256 SLOAD DUP2 JUMP JUMPDEST PUSH2 0x2AF PUSH2 0x516 CALLDATASIZE PUSH1 0x4 PUSH2 0x3141 JUMP JUMPDEST PUSH2 0x1D33 JUMP JUMPDEST PUSH2 0x2AF PUSH2 0x529 CALLDATASIZE PUSH1 0x4 PUSH2 0x3596 JUMP JUMPDEST PUSH2 0x1E50 JUMP JUMPDEST PUSH2 0x2B9 PUSH2 0x2710 DUP2 JUMP JUMPDEST PUSH2 0x2AF PUSH2 0x545 CALLDATASIZE PUSH1 0x4 PUSH2 0x364C JUMP JUMPDEST PUSH2 0x1FEF JUMP JUMPDEST PUSH2 0x2AF PUSH2 0x558 CALLDATASIZE PUSH1 0x4 PUSH2 0x334A JUMP JUMPDEST PUSH2 0x239F JUMP JUMPDEST PUSH2 0x2B9 PUSH2 0x56B CALLDATASIZE PUSH1 0x4 PUSH2 0x334A JUMP JUMPDEST PUSH1 0x9 PUSH1 0x20 MSTORE PUSH1 0x0 SWAP1 DUP2 MSTORE PUSH1 0x40 SWAP1 KECCAK256 SLOAD DUP2 JUMP JUMPDEST PUSH2 0x2AF PUSH2 0x58B CALLDATASIZE PUSH1 0x4 PUSH2 0x316B JUMP JUMPDEST PUSH2 0x23DA JUMP JUMPDEST PUSH2 0x2B9 PUSH3 0x15180 DUP2 JUMP JUMPDEST PUSH2 0x2B9 PUSH2 0x5A8 CALLDATASIZE PUSH1 0x4 PUSH2 0x316B JUMP JUMPDEST PUSH1 0x8 PUSH1 0x20 MSTORE PUSH1 0x0 SWAP1 DUP2 MSTORE PUSH1 0x40 SWAP1 KECCAK256 SLOAD DUP2 JUMP JUMPDEST PUSH2 0x5C2 PUSH2 0x2814 JUMP JUMPDEST PUSH1 0x5 DUP1 SLOAD PUSH1 0xFF DUP1 DUP3 AND ISZERO PUSH1 0xFF NOT SWAP1 SWAP3 AND DUP3 OR SWAP1 SWAP3 SSTORE PUSH1 0x40 MLOAD SWAP2 AND ISZERO ISZERO DUP2 MSTORE PUSH32 0xB5838F871DDEE4623A406029B1A0B6013E0EC30F2DC114307F21459A800A8296 SWAP1 PUSH1 0x20 ADD PUSH1 0x40 MLOAD DUP1 SWAP2 SUB SWAP1 LOG1 JUMP JUMPDEST PUSH1 0x7 PUSH1 0x20 MSTORE DUP2 PUSH1 0x0 MSTORE PUSH1 0x40 PUSH1 0x0 KECCAK256 DUP2 DUP2 SLOAD DUP2 LT PUSH2 0x62B JUMPI PUSH1 0x0 DUP1 REVERT JUMPDEST SWAP1 PUSH1 0x0 MSTORE PUSH1 0x20 PUSH1 0x0 KECCAK256 ADD PUSH1 0x0 SWAP2 POP SWAP2 POP POP SLOAD DUP2 JUMP JUMPDEST PUSH1 0x1 SLOAD PUSH1 0x1 PUSH1 0x1 PUSH1 0xA0 SHL SUB AND CALLER EQ DUP1 PUSH2 0x681 JUMPI POP CALLER PUSH1 0x1 PUSH1 0x1 PUSH1 0xA0 SHL SUB PUSH32 0x0 AND EQ JUMPDEST PUSH2 0x6F8 JUMPI PUSH1 0x40 MLOAD PUSH3 0x461BCD PUSH1 0xE5 SHL DUP2 MSTORE PUSH1 0x20 PUSH1 0x4 DUP3 ADD MSTORE PUSH1 0x39 PUSH1 0x24 DUP3 ADD MSTORE PUSH32 0x446562617465506F6F6C56323A204F6E6C79206F776E6572206F72206F726163 PUSH1 0x44 DUP3 ADD MSTORE PUSH32 0x6C652063616E2063616C6C20746869732066756E6374696F6E00000000000000 PUSH1 0x64 DUP3 ADD MSTORE PUSH1 0x84 ADD JUMPDEST PUSH1 0x40 MLOAD DUP1 SWAP2 SUB SWAP1 REVERT JUMPDEST DUP1 PUSH1 0x0 DUP2 GT DUP1 ISZERO PUSH2 0x70A JUMPI POP PUSH1 0x4 SLOAD DUP2 LT JUMPDEST PUSH2 0x726 JUMPI PUSH1 0x40 MLOAD PUSH3 0x461BCD PUSH1 0xE5 SHL DUP2 MSTORE PUSH1 0x4 ADD PUSH2 0x6EF SWAP1 PUSH2 0x36F4 JUMP JUMPDEST PUSH2 0x72E PUSH2 0x2841 JUMP JUMPDEST PUSH1 0x0 DUP3 DUP2 MSTORE PUSH1 0x6 PUSH1 0x20 MSTORE PUSH1 0x40 SWAP1 KECCAK256 PUSH1 0x5 DUP2 ADD SLOAD PUSH2 0x74F SWAP1 PUSH3 0x15180 SWAP1 PUSH2 0x3741 JUMP JUMPDEST TIMESTAMP GT PUSH2 0x79D JUMPI PUSH1 0x40 MLOAD PUSH3 0x461BCD PUSH1 0xE5 SHL DUP2 MSTORE PUSH1 0x20 PUSH1 0x4 DUP3 ADD MSTORE PUSH1 0x1D PUSH1 0x24 DUP3 ADD MSTORE PUSH32 0x446562617465506F6F6C56323A204E6F74206578706972656420796574000000 PUSH1 0x44 DUP3 ADD MSTORE PUSH1 0x64 ADD PUSH2 0x6EF JUMP JUMPDEST PUSH1 0x7 DUP2 ADD SLOAD PUSH1 0x1 PUSH1 0xA8 SHL SWAP1 DIV PUSH1 0xFF AND ISZERO PUSH2 0x7F9 JUMPI PUSH1 0x40 MLOAD PUSH3 0x461BCD PUSH1 0xE5 SHL DUP2 MSTORE PUSH1 0x20 PUSH1 0x4 DUP3 ADD MSTORE PUSH1 0x1F PUSH1 0x24 DUP3 ADD MSTORE PUSH32 0x446562617465506F6F6C56323A20416C726561647920636F6D706C6574656400 PUSH1 0x44 DUP3 ADD MSTORE PUSH1 0x64 ADD PUSH2 0x6EF JUMP JUMPDEST PUSH1 0x0 JUMPDEST PUSH1 0x6 DUP3 ADD SLOAD DUP2 LT ISZERO PUSH2 0x919 JUMPI PUSH1 0x0 DUP3 PUSH1 0x6 ADD DUP3 DUP2 SLOAD DUP2 LT PUSH2 0x81F JUMPI PUSH2 0x81F PUSH2 0x3754 JUMP JUMPDEST PUSH1 0x0 SWAP2 DUP3 MSTORE PUSH1 0x20 SWAP1 SWAP2 KECCAK256 ADD SLOAD PUSH1 0x2 DUP5 ADD SLOAD PUSH1 0x40 MLOAD PUSH4 0xA9059CBB PUSH1 0xE0 SHL DUP2 MSTORE PUSH1 0x1 PUSH1 0x1 PUSH1 0xA0 SHL SUB SWAP3 DUP4 AND SWAP4 POP PUSH32 0x0 SWAP1 SWAP3 AND SWAP2 PUSH4 0xA9059CBB SWAP2 PUSH2 0x884 SWAP2 DUP6 SWAP2 SWAP1 PUSH1 0x4 ADD PUSH2 0x376A JUMP JUMPDEST PUSH1 0x20 PUSH1 0x40 MLOAD DUP1 DUP4 SUB DUP2 PUSH1 0x0 DUP8 GAS CALL ISZERO DUP1 ISZERO PUSH2 0x8A3 JUMPI RETURNDATASIZE PUSH1 0x0 DUP1 RETURNDATACOPY RETURNDATASIZE PUSH1 0x0 REVERT JUMPDEST POP POP POP POP PUSH1 0x40 MLOAD RETURNDATASIZE PUSH1 0x1F NOT PUSH1 0x1F DUP3 ADD AND DUP3 ADD DUP1 PUSH1 0x40 MSTORE POP DUP2 ADD SWAP1 PUSH2 0x8C7 SWAP2 SWAP1 PUSH2 0x3783 JUMP JUMPDEST POP DUP5 PUSH32 0x79FF6A60B3E21B3630B207E2A7B0B50B69B197D3D7CA776108ED2AFB8FBAC8DC DUP3 DUP6 PUSH1 0x2 ADD SLOAD PUSH1 0x40 MLOAD PUSH2 0x8FE SWAP3 SWAP2 SWAP1 PUSH2 0x376A JUMP JUMPDEST PUSH1 0x40 MLOAD DUP1 SWAP2 SUB SWAP1 LOG2 POP DUP1 PUSH2 0x911 DUP2 PUSH2 0x37AC JUMP JUMPDEST SWAP2 POP POP PUSH2 0x7FC JUMP JUMPDEST POP PUSH1 0x7 ADD DUP1 SLOAD PUSH2 0xFFFF PUSH1 0xA0 SHL NOT AND PUSH1 0x1 PUSH1 0xA8 SHL OR SWAP1 SSTORE PUSH2 0x939 PUSH1 0x1 PUSH1 0x0 SSTORE JUMP JUMPDEST POP POP JUMP JUMPDEST PUSH1 0x6 PUSH1 0x20 MSTORE PUSH1 0x0 SWAP1 DUP2 MSTORE PUSH1 0x40 SWAP1 KECCAK256 DUP1 SLOAD PUSH1 0x1 DUP3 ADD DUP1 SLOAD SWAP2 SWAP3 SWAP2 PUSH2 0x95F SWAP1 PUSH2 0x37C5 JUMP JUMPDEST DUP1 PUSH1 0x1F ADD PUSH1 0x20 DUP1 SWAP2 DIV MUL PUSH1 0x20 ADD PUSH1 0x40 MLOAD SWAP1 DUP2 ADD PUSH1 0x40 MSTORE DUP1 SWAP3 SWAP2 SWAP1 DUP2 DUP2 MSTORE PUSH1 0x20 ADD DUP3 DUP1 SLOAD PUSH2 0x98B SWAP1 PUSH2 0x37C5 JUMP JUMPDEST DUP1 ISZERO PUSH2 0x9D8 JUMPI DUP1 PUSH1 0x1F LT PUSH2 0x9AD JUMPI PUSH2 0x100 DUP1 DUP4 SLOAD DIV MUL DUP4 MSTORE SWAP2 PUSH1 0x20 ADD SWAP2 PUSH2 0x9D8 JUMP JUMPDEST DUP3 ADD SWAP2 SWAP1 PUSH1 0x0 MSTORE PUSH1 0x20 PUSH1 0x0 KECCAK256 SWAP1 JUMPDEST DUP2 SLOAD DUP2 MSTORE SWAP1 PUSH1 0x1 ADD SWAP1 PUSH1 0x20 ADD DUP1 DUP4 GT PUSH2 0x9BB JUMPI DUP3 SWAP1 SUB PUSH1 0x1F AND DUP3 ADD SWAP2 JUMPDEST POP POP POP PUSH1 0x2 DUP5 ADD SLOAD PUSH1 0x3 DUP6 ADD SLOAD PUSH1 0x4 DUP7 ADD SLOAD PUSH1 0x5 DUP8 ADD SLOAD PUSH1 0x7 SWAP1 SWAP8 ADD SLOAD SWAP6 SWAP7 SWAP3 SWAP6 SWAP2 SWAP5 POP SWAP3 POP PUSH1 0x1 PUSH1 0x1 PUSH1 0xA0 SHL SUB DUP2 AND SWAP1 PUSH1 0xFF PUSH1 0x1 PUSH1 0xA0 SHL DUP3 DIV DUP2 AND SWAP2 PUSH1 0x1 PUSH1 0xA8 SHL SWAP1 DIV AND DUP10 JUMP JUMPDEST PUSH1 0x0 CALLER PUSH1 0x1 PUSH1 0x1 PUSH1 0xA0 SHL SUB PUSH32 0x0 AND EQ PUSH2 0xAB3 JUMPI PUSH1 0x40 MLOAD PUSH3 0x461BCD PUSH1 0xE5 SHL DUP2 MSTORE PUSH1 0x20 PUSH1 0x4 DUP3 ADD MSTORE PUSH1 0x30 PUSH1 0x24 DUP3 ADD MSTORE PUSH32 0x446562617465506F6F6C56323A204F6E6C79206F7261636C652063616E206361 PUSH1 0x44 DUP3 ADD MSTORE PUSH16 0x3636103A3434B990333AB731BA34B7B7 PUSH1 0x81 SHL PUSH1 0x64 DUP3 ADD MSTORE PUSH1 0x84 ADD PUSH2 0x6EF JUMP JUMPDEST PUSH1 0x5 SLOAD PUSH1 0xFF AND ISZERO PUSH2 0xB06 JUMPI PUSH1 0x40 MLOAD PUSH3 0x461BCD PUSH1 0xE5 SHL DUP2 MSTORE PUSH1 0x20 PUSH1 0x4 DUP3 ADD DUP2 SWAP1 MSTORE PUSH1 0x24 DUP3 ADD MSTORE PUSH32 0x446562617465506F6F6C56323A20436F6E747261637420697320706175736564 PUSH1 0x44 DUP3 ADD MSTORE PUSH1 0x64 ADD PUSH2 0x6EF JUMP JUMPDEST PUSH1 0x0 DUP6 MLOAD GT PUSH2 0xB63 JUMPI PUSH1 0x40 MLOAD PUSH3 0x461BCD PUSH1 0xE5 SHL DUP2 MSTORE PUSH1 0x20 PUSH1 0x4 DUP3 ADD MSTORE PUSH1 0x23 PUSH1 0x24 DUP3 ADD MSTORE PUSH32 0x446562617465506F6F6C56323A20546F7069632063616E6E6F7420626520656D PUSH1 0x44 DUP3 ADD MSTORE PUSH3 0x707479 PUSH1 0xE8 SHL PUSH1 0x64 DUP3 ADD MSTORE PUSH1 0x84 ADD PUSH2 0x6EF JUMP JUMPDEST PUSH1 0x0 DUP5 GT PUSH2 0xBCA JUMPI PUSH1 0x40 MLOAD PUSH3 0x461BCD PUSH1 0xE5 SHL DUP2 MSTORE PUSH1 0x20 PUSH1 0x4 DUP3 ADD MSTORE PUSH1 0x2E PUSH1 0x24 DUP3 ADD MSTORE PUSH32 0x446562617465506F6F6C56323A20456E74727920666565206D75737420626520 PUSH1 0x44 DUP3 ADD MSTORE PUSH14 0x67726561746572207468616E203 PUSH1 0x94 SHL PUSH1 0x64 DUP3 ADD MSTORE PUSH1 0x84 ADD PUSH2 0x6EF JUMP JUMPDEST PUSH1 0x1 DUP4 GT PUSH2 0xC33 JUMPI PUSH1 0x40 MLOAD PUSH3 0x461BCD PUSH1 0xE5 SHL DUP2 MSTORE PUSH1 0x20 PUSH1 0x4 DUP3 ADD MSTORE PUSH1 0x30 PUSH1 0x24 DUP3 ADD MSTORE PUSH32 0x446562617465506F6F6C56323A204D75737420616C6C6F77206174206C656173 PUSH1 0x44 DUP3 ADD MSTORE PUSH16 0x742032207061727469636970616E7473 PUSH1 0x80 SHL PUSH1 0x64 DUP3 ADD MSTORE PUSH1 0x84 ADD PUSH2 0x6EF JUMP JUMPDEST PUSH1 0x0 DUP3 GT PUSH2 0xC99 JUMPI PUSH1 0x40 MLOAD PUSH3 0x461BCD PUSH1 0xE5 SHL DUP2 MSTORE PUSH1 0x20 PUSH1 0x4 DUP3 ADD MSTORE PUSH1 0x2D PUSH1 0x24 DUP3 ADD MSTORE PUSH32 0x446562617465506F6F6C56323A204475726174696F6E206D7573742062652067 PUSH1 0x44 DUP3 ADD MSTORE PUSH13 0x726561746572207468616E203 PUSH1 0x9C SHL PUSH1 0x64 DUP3 ADD MSTORE PUSH1 0x84 ADD PUSH2 0x6EF JUMP JUMPDEST PUSH1 0x4 DUP1 SLOAD PUSH1 0x0 SWAP2 DUP3 PUSH2 0xCAA DUP4 PUSH2 0x37AC JUMP JUMPDEST SWAP1 SWAP2 SSTORE POP SWAP1 POP TIMESTAMP PUSH1 0x0 PUSH2 0xCBD DUP6 DUP4 PUSH2 0x3741 JUMP JUMPDEST SWAP1 POP PUSH1 0x40 MLOAD DUP1 PUSH2 0x140 ADD PUSH1 0x40 MSTORE DUP1 DUP5 DUP2 MSTORE PUSH1 0x20 ADD DUP10 DUP2 MSTORE PUSH1 0x20 ADD DUP9 DUP2 MSTORE PUSH1 0x20 ADD DUP8 DUP2 MSTORE PUSH1 0x20 ADD DUP4 DUP2 MSTORE PUSH1 0x20 ADD DUP3 DUP2 MSTORE PUSH1 0x20 ADD PUSH1 0x0 PUSH8 0xFFFFFFFFFFFFFFFF DUP2 GT ISZERO PUSH2 0xD09 JUMPI PUSH2 0xD09 PUSH2 0x322A JUMP JUMPDEST PUSH1 0x40 MLOAD SWAP1 DUP1 DUP3 MSTORE DUP1 PUSH1 0x20 MUL PUSH1 0x20 ADD DUP3 ADD PUSH1 0x40 MSTORE DUP1 ISZERO PUSH2 0xD32 JUMPI DUP2 PUSH1 0x20 ADD PUSH1 0x20 DUP3 MUL DUP1 CALLDATASIZE DUP4 CALLDATACOPY ADD SWAP1 POP JUMPDEST POP DUP2 MSTORE PUSH1 0x0 PUSH1 0x20 DUP1 DUP4 ADD DUP3 SWAP1 MSTORE PUSH1 0x1 PUSH1 0x40 DUP1 DUP6 ADD DUP3 SWAP1 MSTORE PUSH1 0x60 SWAP1 SWAP5 ADD DUP4 SWAP1 MSTORE DUP8 DUP4 MSTORE PUSH1 0x6 DUP3 MSTORE SWAP3 SWAP1 SWAP2 KECCAK256 DUP4 MLOAD DUP2 SSTORE SWAP1 DUP4 ADD MLOAD SWAP1 SWAP2 DUP3 ADD SWAP1 PUSH2 0xD73 SWAP1 DUP3 PUSH2 0x3848 JUMP JUMPDEST POP PUSH1 0x40 DUP3 ADD MLOAD PUSH1 0x2 DUP3 ADD SSTORE PUSH1 0x60 DUP3 ADD MLOAD PUSH1 0x3 DUP3 ADD SSTORE PUSH1 0x80 DUP3 ADD MLOAD PUSH1 0x4 DUP3 ADD SSTORE PUSH1 0xA0 DUP3 ADD MLOAD PUSH1 0x5 DUP3 ADD SSTORE PUSH1 0xC0 DUP3 ADD MLOAD DUP1 MLOAD PUSH2 0xDB7 SWAP2 PUSH1 0x6 DUP5 ADD SWAP2 PUSH1 0x20 SWAP1 SWAP2 ADD SWAP1 PUSH2 0x30AB JUMP JUMPDEST POP PUSH1 0xE0 DUP3 ADD MLOAD PUSH1 0x7 SWAP1 SWAP2 ADD DUP1 SLOAD PUSH2 0x100 DUP5 ADD MLOAD PUSH2 0x120 SWAP1 SWAP5 ADD MLOAD ISZERO ISZERO PUSH1 0x1 PUSH1 0xA8 SHL MUL PUSH1 0xFF PUSH1 0xA8 SHL NOT SWAP5 ISZERO ISZERO PUSH1 0x1 PUSH1 0xA0 SHL MUL PUSH1 0x1 PUSH1 0x1 PUSH1 0xA8 SHL SUB NOT SWAP1 SWAP3 AND PUSH1 0x1 PUSH1 0x1 PUSH1 0xA0 SHL SUB SWAP1 SWAP5 AND SWAP4 SWAP1 SWAP4 OR OR SWAP3 SWAP1 SWAP3 AND OR SWAP1 SSTORE PUSH2 0xE18 PUSH3 0x93A80 DUP3 PUSH2 0x3741 JUMP JUMPDEST PUSH1 0x0 DUP5 DUP2 MSTORE PUSH1 0x8 PUSH1 0x20 MSTORE PUSH1 0x40 SWAP1 DUP2 SWAP1 KECCAK256 SWAP2 SWAP1 SWAP2 SSTORE MLOAD DUP4 SWAP1 PUSH32 0x6F1ADA89A34BF137D8AD7B96784CDA535ED20442ACE125386C0AB1EFE849AA48 SWAP1 PUSH2 0xE5E SWAP1 DUP12 SWAP1 DUP12 SWAP1 PUSH2 0x3908 JUMP JUMPDEST PUSH1 0x40 MLOAD DUP1 SWAP2 SUB SWAP1 LOG2 POP SWAP1 SWAP7 SWAP6 POP POP POP POP POP POP JUMP JUMPDEST PUSH1 0x1 PUSH1 0x1 PUSH1 0xA0 SHL SUB DUP2 AND PUSH1 0x0 SWAP1 DUP2 MSTORE PUSH1 0x7 PUSH1 0x20 SWAP1 DUP2 MSTORE PUSH1 0x40 SWAP2 DUP3 SWAP1 KECCAK256 DUP1 SLOAD DUP4 MLOAD DUP2 DUP5 MUL DUP2 ADD DUP5 ADD SWAP1 SWAP5 MSTORE DUP1 DUP5 MSTORE PUSH1 0x60 SWAP4 SWAP3 DUP4 ADD DUP3 DUP3 DUP1 ISZERO PUSH2 0xED2 JUMPI PUSH1 0x20 MUL DUP3 ADD SWAP2 SWAP1 PUSH1 0x0 MSTORE PUSH1 0x20 PUSH1 0x0 KECCAK256 SWAP1 JUMPDEST DUP2 SLOAD DUP2 MSTORE PUSH1 0x20 ADD SWAP1 PUSH1 0x1 ADD SWAP1 DUP1 DUP4 GT PUSH2 0xEBE JUMPI JUMPDEST POP POP POP POP POP SWAP1 POP SWAP2 SWAP1 POP JUMP JUMPDEST PUSH2 0xEE6 PUSH2 0x2814 JUMP JUMPDEST DUP1 PUSH1 0x0 DUP2 GT DUP1 ISZERO PUSH2 0xEF8 JUMPI POP PUSH1 0x4 SLOAD DUP2 LT JUMPDEST PUSH2 0xF14 JUMPI PUSH1 0x40 MLOAD PUSH3 0x461BCD PUSH1 0xE5 SHL DUP2 MSTORE PUSH1 0x4 ADD PUSH2 0x6EF SWAP1 PUSH2 0x36F4 JUMP JUMPDEST PUSH2 0xF1C PUSH2 0x2841 JUMP JUMPDEST PUSH1 0x0 DUP3 DUP2 MSTORE PUSH1 0x6 PUSH1 0x20 MSTORE PUSH1 0x40 DUP2 KECCAK256 SWAP1 JUMPDEST PUSH1 0x6 DUP3 ADD SLOAD DUP2 LT ISZERO PUSH2 0x919 JUMPI PUSH1 0x0 DUP3 PUSH1 0x6 ADD DUP3 DUP2 SLOAD DUP2 LT PUSH2 0xF4F JUMPI PUSH2 0xF4F PUSH2 0x3754 JUMP JUMPDEST PUSH1 0x0 SWAP2 DUP3 MSTORE PUSH1 0x20 SWAP1 SWAP2 KECCAK256 ADD SLOAD PUSH1 0x2 DUP5 ADD SLOAD PUSH1 0x40 MLOAD PUSH4 0xA9059CBB PUSH1 0xE0 SHL DUP2 MSTORE PUSH1 0x1 PUSH1 0x1 PUSH1 0xA0 SHL SUB SWAP3 DUP4 AND SWAP4 POP PUSH32 0x0 SWAP1 SWAP3 AND SWAP2 PUSH4 0xA9059CBB SWAP2 PUSH2 0xFB4 SWAP2 DUP6 SWAP2 SWAP1 PUSH1 0x4 ADD PUSH2 0x376A JUMP JUMPDEST PUSH1 0x20 PUSH1 0x40 MLOAD DUP1 DUP4 SUB DUP2 PUSH1 0x0 DUP8 GAS CALL ISZERO DUP1 ISZERO PUSH2 0xFD3 JUMPI RETURNDATASIZE PUSH1 0x0 DUP1 RETURNDATACOPY RETURNDATASIZE PUSH1 0x0 REVERT JUMPDEST POP POP POP POP PUSH1 0x40 MLOAD RETURNDATASIZE PUSH1 0x1F NOT PUSH1 0x1F DUP3 ADD AND DUP3 ADD DUP1 PUSH1 0x40 MSTORE POP DUP2 ADD SWAP1 PUSH2 0xFF7 SWAP2 SWAP1 PUSH2 0x3783 JUMP JUMPDEST POP DUP5 PUSH32 0x79FF6A60B3E21B3630B207E2A7B0B50B69B197D3D7CA776108ED2AFB8FBAC8DC DUP3 DUP6 PUSH1 0x2 ADD SLOAD PUSH1 0x40 MLOAD PUSH2 0x102E SWAP3 SWAP2 SWAP1 PUSH2 0x376A JUMP JUMPDEST PUSH1 0x40 MLOAD DUP1 SWAP2 SUB SWAP1 LOG2 POP DUP1 PUSH2 0x1041 DUP2 PUSH2 0x37AC JUMP JUMPDEST SWAP2 POP POP PUSH2 0xF2C JUMP JUMPDEST PUSH2 0x1051 PUSH2 0x2814 JUMP JUMPDEST PUSH2 0x105B PUSH1 0x0 PUSH2 0x286B JUMP JUMPDEST JUMP JUMPDEST PUSH1 0x0 PUSH2 0x1069 DUP4 DUP4 PUSH2 0x28BD JUMP JUMPDEST SWAP1 POP JUMPDEST SWAP3 SWAP2 POP POP JUMP JUMPDEST PUSH1 0x0 PUSH1 0x60 DUP1 PUSH1 0x0 DUP1 PUSH1 0x0 PUSH1 0x60 PUSH2 0x1086 PUSH2 0x293A JUMP JUMPDEST PUSH2 0x108E PUSH2 0x296C JUMP JUMPDEST PUSH1 0x40 DUP1 MLOAD PUSH1 0x0 DUP1 DUP3 MSTORE PUSH1 0x20 DUP3 ADD SWAP1 SWAP3 MSTORE PUSH1 0xF PUSH1 0xF8 SHL SWAP12 SWAP4 SWAP11 POP SWAP2 SWAP9 POP CHAINID SWAP8 POP ADDRESS SWAP7 POP SWAP5 POP SWAP3 POP SWAP1 POP JUMP JUMPDEST PUSH2 0x111B PUSH1 0x40 MLOAD DUP1 PUSH2 0x140 ADD PUSH1 0x40 MSTORE DUP1 PUSH1 0x0 DUP2 MSTORE PUSH1 0x20 ADD PUSH1 0x60 DUP2 MSTORE PUSH1 0x20 ADD PUSH1 0x0 DUP2 MSTORE PUSH1 0x20 ADD PUSH1 0x0 DUP2 MSTORE PUSH1 0x20 ADD PUSH1 0x0 DUP2 MSTORE PUSH1 0x20 ADD PUSH1 0x0 DUP2 MSTORE PUSH1 0x20 ADD PUSH1 0x60 DUP2 MSTORE PUSH1 0x20 ADD PUSH1 0x0 PUSH1 0x1 PUSH1 0x1 PUSH1 0xA0 SHL SUB AND DUP2 MSTORE PUSH1 0x20 ADD PUSH1 0x0 ISZERO ISZERO DUP2 MSTORE PUSH1 0x20 ADD PUSH1 0x0 ISZERO ISZERO DUP2 MSTORE POP SWAP1 JUMP JUMPDEST DUP2 PUSH1 0x0 DUP2 GT DUP1 ISZERO PUSH2 0x112D JUMPI POP PUSH1 0x4 SLOAD DUP2 LT JUMPDEST PUSH2 0x1149 JUMPI PUSH1 0x40 MLOAD PUSH3 0x461BCD PUSH1 0xE5 SHL DUP2 MSTORE PUSH1 0x4 ADD PUSH2 0x6EF SWAP1 PUSH2 0x36F4 JUMP JUMPDEST PUSH1 0x6 PUSH1 0x0 DUP5 DUP2 MSTORE PUSH1 0x20 ADD SWAP1 DUP2 MSTORE PUSH1 0x20 ADD PUSH1 0x0 KECCAK256 PUSH1 0x40 MLOAD DUP1 PUSH2 0x140 ADD PUSH1 0x40 MSTORE SWAP1 DUP2 PUSH1 0x0 DUP3 ADD SLOAD DUP2 MSTORE PUSH1 0x20 ADD PUSH1 0x1 DUP3 ADD DUP1 SLOAD PUSH2 0x1182 SWAP1 PUSH2 0x37C5 JUMP JUMPDEST DUP1 PUSH1 0x1F ADD PUSH1 0x20 DUP1 SWAP2 DIV MUL PUSH1 0x20 ADD PUSH1 0x40 MLOAD SWAP1 DUP2 ADD PUSH1 0x40 MSTORE DUP1 SWAP3 SWAP2 SWAP1 DUP2 DUP2 MSTORE PUSH1 0x20 ADD DUP3 DUP1 SLOAD PUSH2 0x11AE SWAP1 PUSH2 0x37C5 JUMP JUMPDEST DUP1 ISZERO PUSH2 0x11FB JUMPI DUP1 PUSH1 0x1F LT PUSH2 0x11D0 JUMPI PUSH2 0x100 DUP1 DUP4 SLOAD DIV MUL DUP4 MSTORE SWAP2 PUSH1 0x20 ADD SWAP2 PUSH2 0x11FB JUMP JUMPDEST DUP3 ADD SWAP2 SWAP1 PUSH1 0x0 MSTORE PUSH1 0x20 PUSH1 0x0 KECCAK256 SWAP1 JUMPDEST DUP2 SLOAD DUP2 MSTORE SWAP1 PUSH1 0x1 ADD SWAP1 PUSH1 0x20 ADD DUP1 DUP4 GT PUSH2 0x11DE JUMPI DUP3 SWAP1 SUB PUSH1 0x1F AND DUP3 ADD SWAP2 JUMPDEST POP POP POP POP POP DUP2 MSTORE PUSH1 0x20 ADD PUSH1 0x2 DUP3 ADD SLOAD DUP2 MSTORE PUSH1 0x20 ADD PUSH1 0x3 DUP3 ADD SLOAD DUP2 MSTORE PUSH1 0x20 ADD PUSH1 0x4 DUP3 ADD SLOAD DUP2 MSTORE PUSH1 0x20 ADD PUSH1 0x5 DUP3 ADD SLOAD DUP2 MSTORE PUSH1 0x20 ADD PUSH1 0x6 DUP3 ADD DUP1 SLOAD DUP1 PUSH1 0x20 MUL PUSH1 0x20 ADD PUSH1 0x40 MLOAD SWAP1 DUP2 ADD PUSH1 0x40 MSTORE DUP1 SWAP3 SWAP2 SWAP1 DUP2 DUP2 MSTORE PUSH1 0x20 ADD DUP3 DUP1 SLOAD DUP1 ISZERO PUSH2 0x1285 JUMPI PUSH1 0x20 MUL DUP3 ADD SWAP2 SWAP1 PUSH1 0x0 MSTORE PUSH1 0x20 PUSH1 0x0 KECCAK256 SWAP1 JUMPDEST DUP2 SLOAD PUSH1 0x1 PUSH1 0x1 PUSH1 0xA0 SHL SUB AND DUP2 MSTORE PUSH1 0x1 SWAP1 SWAP2 ADD SWAP1 PUSH1 0x20 ADD DUP1 DUP4 GT PUSH2 0x1267 JUMPI JUMPDEST POP POP POP SWAP2 DUP4 MSTORE POP POP PUSH1 0x7 SWAP2 SWAP1 SWAP2 ADD SLOAD PUSH1 0x1 PUSH1 0x1 PUSH1 0xA0 SHL SUB DUP2 AND PUSH1 0x20 DUP4 ADD MSTORE PUSH1 0xFF PUSH1 0x1 PUSH1 0xA0 SHL DUP3 DIV DUP2 AND ISZERO ISZERO PUSH1 0x40 DUP5 ADD MSTORE PUSH1 0x1 PUSH1 0xA8 SHL SWAP1 SWAP2 DIV AND ISZERO ISZERO PUSH1 0x60 SWAP1 SWAP2 ADD MSTORE SWAP2 POP JUMPDEST POP SWAP2 SWAP1 POP JUMP JUMPDEST PUSH2 0x12D7 PUSH2 0x2841 JUMP JUMPDEST PUSH1 0xA SLOAD PUSH1 0x1 PUSH1 0xA0 SHL SWAP1 DIV PUSH1 0xFF AND PUSH2 0x1330 JUMPI PUSH1 0x40 MLOAD PUSH3 0x461BCD PUSH1 0xE5 SHL DUP2 MSTORE PUSH1 0x20 PUSH1 0x4 DUP3 ADD DUP2 SWAP1 MSTORE PUSH1 0x24 DUP3 ADD MSTORE PUSH32 0x446562617465506F6F6C56323A2041697264726F70206E6F7420616374697665 PUSH1 0x44 DUP3 ADD MSTORE PUSH1 0x64 ADD PUSH2 0x6EF JUMP JUMPDEST PUSH1 0x0 DUP5 GT PUSH2 0x1380 JUMPI PUSH1 0x40 MLOAD PUSH3 0x461BCD PUSH1 0xE5 SHL DUP2 MSTORE PUSH1 0x20 PUSH1 0x4 DUP3 ADD DUP2 SWAP1 MSTORE PUSH1 0x24 DUP3 ADD MSTORE PUSH32 0x446562617465506F6F6C56323A204E6F20706F696E747320746F20636C61696D PUSH1 0x44 DUP3 ADD MSTORE PUSH1 0x64 ADD PUSH2 0x6EF JUMP JUMPDEST PUSH1 0x40 DUP1 MLOAD PUSH32 0x9ABCF75D4D2EFF6E6E603A9B1412F04C8E2C793239C046C8C6BA628CF522C2A PUSH1 0x20 DUP3 ADD MSTORE SWAP1 DUP2 ADD DUP6 SWAP1 MSTORE PUSH1 0x60 DUP2 ADD DUP5 SWAP1 MSTORE PUSH1 0x80 DUP2 ADD DUP4 SWAP1 MSTORE PUSH1 0x0 SWAP1 PUSH1 0xA0 ADD PUSH1 0x40 MLOAD PUSH1 0x20 DUP2 DUP4 SUB SUB DUP2 MSTORE SWAP1 PUSH1 0x40 MSTORE DUP1 MLOAD SWAP1 PUSH1 0x20 ADD KECCAK256 SWAP1 POP PUSH1 0x0 PUSH2 0x13E7 DUP3 PUSH2 0x2999 JUMP JUMPDEST SWAP1 POP PUSH1 0x0 PUSH2 0x13F5 DUP3 DUP6 PUSH2 0x29C6 JUMP JUMPDEST SWAP1 POP PUSH32 0x0 PUSH1 0x1 PUSH1 0x1 PUSH1 0xA0 SHL SUB AND DUP2 PUSH1 0x1 PUSH1 0x1 PUSH1 0xA0 SHL SUB AND EQ PUSH2 0x1448 JUMPI PUSH1 0x40 MLOAD PUSH3 0x461BCD PUSH1 0xE5 SHL DUP2 MSTORE PUSH1 0x4 ADD PUSH2 0x6EF SWAP1 PUSH2 0x392A JUMP JUMPDEST PUSH1 0x0 DUP7 PUSH1 0xC SLOAD DUP10 PUSH2 0x1459 SWAP2 SWAP1 PUSH2 0x3961 JUMP JUMPDEST PUSH2 0x1463 SWAP2 SWAP1 PUSH2 0x3978 JUMP JUMPDEST SWAP1 POP PUSH1 0x0 DUP2 GT PUSH2 0x14B5 JUMPI PUSH1 0x40 MLOAD PUSH3 0x461BCD PUSH1 0xE5 SHL DUP2 MSTORE PUSH1 0x20 PUSH1 0x4 DUP3 ADD DUP2 SWAP1 MSTORE PUSH1 0x24 DUP3 ADD MSTORE PUSH32 0x446562617465506F6F6C56323A204E6F20746F6B656E7320746F20636C61696D PUSH1 0x44 DUP3 ADD MSTORE PUSH1 0x64 ADD PUSH2 0x6EF JUMP JUMPDEST PUSH1 0xA SLOAD PUSH1 0x40 MLOAD PUSH4 0xA9059CBB PUSH1 0xE0 SHL DUP2 MSTORE PUSH1 0x1 PUSH1 0x1 PUSH1 0xA0 SHL SUB SWAP1 SWAP2 AND SWAP1 PUSH4 0xA9059CBB SWAP1 PUSH2 0x14E7 SWAP1 CALLER SWAP1 DUP6 SWAP1 PUSH1 0x4 ADD PUSH2 0x376A JUMP JUMPDEST PUSH1 0x20 PUSH1 0x40 MLOAD DUP1 DUP4 SUB DUP2 PUSH1 0x0 DUP8 GAS CALL ISZERO DUP1 ISZERO PUSH2 0x1506 JUMPI RETURNDATASIZE PUSH1 0x0 DUP1 RETURNDATACOPY RETURNDATASIZE PUSH1 0x0 REVERT JUMPDEST POP POP POP POP PUSH1 0x40 MLOAD RETURNDATASIZE PUSH1 0x1F NOT PUSH1 0x1F DUP3 ADD AND DUP3 ADD DUP1 PUSH1 0x40 MSTORE POP DUP2 ADD SWAP1 PUSH2 0x152A SWAP2 SWAP1 PUSH2 0x3783 JUMP JUMPDEST POP PUSH1 0x40 DUP1 MLOAD DUP3 DUP2 MSTORE PUSH1 0x20 DUP2 ADD DUP11 SWAP1 MSTORE CALLER SWAP2 PUSH32 0xD0755A9EF5A74F50D34B3503BB5B65AD71A112C001B76DFA6412C9AA4A1F43B0 SWAP2 ADD PUSH1 0x40 MLOAD DUP1 SWAP2 SUB SWAP1 LOG2 POP POP POP POP PUSH2 0x1574 PUSH1 0x1 PUSH1 0x0 SSTORE JUMP JUMPDEST POP POP POP POP JUMP JUMPDEST DUP1 PUSH1 0x0 DUP2 GT DUP1 ISZERO PUSH2 0x158C JUMPI POP PUSH1 0x4 SLOAD DUP2 LT JUMPDEST PUSH2 0x15A8 JUMPI PUSH1 0x40 MLOAD PUSH3 0x461BCD PUSH1 0xE5 SHL DUP2 MSTORE PUSH1 0x4 ADD PUSH2 0x6EF SWAP1 PUSH2 0x36F4 JUMP JUMPDEST PUSH2 0x15B0 PUSH2 0x2841 JUMP JUMPDEST PUSH1 0x0 DUP3 DUP2 MSTORE PUSH1 0x6 PUSH1 0x20 MSTORE PUSH1 0x40 SWAP1 KECCAK256 PUSH1 0x5 DUP2 ADD SLOAD TIMESTAMP GT PUSH2 0x1611 JUMPI PUSH1 0x40 MLOAD PUSH3 0x461BCD PUSH1 0xE5 SHL DUP2 MSTORE PUSH1 0x20 PUSH1 0x4 DUP3 ADD DUP2 SWAP1 MSTORE PUSH1 0x24 DUP3 ADD MSTORE PUSH32 0x446562617465506F6F6C56323A20446562617465206E6F742065787069726564 PUSH1 0x44 DUP3 ADD MSTORE PUSH1 0x64 ADD PUSH2 0x6EF JUMP JUMPDEST PUSH1 0x7 DUP2 ADD SLOAD PUSH1 0x1 PUSH1 0xA8 SHL SWAP1 DIV PUSH1 0xFF AND ISZERO PUSH2 0x163D JUMPI PUSH1 0x40 MLOAD PUSH3 0x461BCD PUSH1 0xE5 SHL DUP2 MSTORE PUSH1 0x4 ADD PUSH2 0x6EF SWAP1 PUSH2 0x399A JUMP JUMPDEST PUSH2 0x1647 DUP4 CALLER PUSH2 0x28BD JUMP JUMPDEST PUSH2 0x1693 JUMPI PUSH1 0x40 MLOAD PUSH3 0x461BCD PUSH1 0xE5 SHL DUP2 MSTORE PUSH1 0x20 PUSH1 0x4 DUP3 ADD MSTORE PUSH1 0x1F PUSH1 0x24 DUP3 ADD MSTORE PUSH32 0x446562617465506F6F6C56323A204E6F742061207061727469636970616E7400 PUSH1 0x44 DUP3 ADD MSTORE PUSH1 0x64 ADD PUSH2 0x6EF JUMP JUMPDEST PUSH1 0x0 DUP4 DUP2 MSTORE PUSH1 0x8 PUSH1 0x20 MSTORE PUSH1 0x40 SWAP1 KECCAK256 SLOAD TIMESTAMP GT ISZERO PUSH2 0x16FD JUMPI PUSH1 0x40 MLOAD PUSH3 0x461BCD PUSH1 0xE5 SHL DUP2 MSTORE PUSH1 0x20 PUSH1 0x4 DUP3 ADD MSTORE PUSH1 0x23 PUSH1 0x24 DUP3 ADD MSTORE PUSH32 0x446562617465506F6F6C56323A20526566756E6420706572696F642065787069 PUSH1 0x44 DUP3 ADD MSTORE PUSH3 0x1C9959 PUSH1 0xEA SHL PUSH1 0x64 DUP3 ADD MSTORE PUSH1 0x84 ADD PUSH2 0x6EF JUMP JUMPDEST PUSH1 0x2 DUP2 ADD SLOAD PUSH1 0x40 MLOAD PUSH4 0xA9059CBB PUSH1 0xE0 SHL DUP2 MSTORE PUSH1 0x1 PUSH1 0x1 PUSH1 0xA0 SHL SUB PUSH32 0x0 AND SWAP2 PUSH4 0xA9059CBB SWAP2 PUSH2 0x174E SWAP2 CALLER SWAP2 PUSH1 0x4 ADD PUSH2 0x376A JUMP JUMPDEST PUSH1 0x20 PUSH1 0x40 MLOAD DUP1 DUP4 SUB DUP2 PUSH1 0x0 DUP8 GAS CALL ISZERO DUP1 ISZERO PUSH2 0x176D JUMPI RETURNDATASIZE PUSH1 0x0 DUP1 RETURNDATACOPY RETURNDATASIZE PUSH1 0x0 REVERT JUMPDEST POP POP POP POP PUSH1 0x40 MLOAD RETURNDATASIZE PUSH1 0x1F NOT PUSH1 0x1F DUP3 ADD AND DUP3 ADD DUP1 PUSH1 0x40 MSTORE POP DUP2 ADD SWAP1 PUSH2 0x1791 SWAP2 SWAP1 PUSH2 0x3783 JUMP JUMPDEST PUSH2 0x17E9 JUMPI PUSH1 0x40 MLOAD PUSH3 0x461BCD PUSH1 0xE5 SHL DUP2 MSTORE PUSH1 0x20 PUSH1 0x4 DUP3 ADD MSTORE PUSH1 0x24 DUP1 DUP3 ADD MSTORE PUSH32 0x446562617465506F6F6C56323A20526566756E64207472616E73666572206661 PUSH1 0x44 DUP3 ADD MSTORE PUSH4 0x1A5B1959 PUSH1 0xE2 SHL PUSH1 0x64 DUP3 ADD MSTORE PUSH1 0x84 ADD PUSH2 0x6EF JUMP JUMPDEST PUSH2 0x17F3 DUP4 CALLER PUSH2 0x29F0 JUMP JUMPDEST DUP3 PUSH32 0x79FF6A60B3E21B3630B207E2A7B0B50B69B197D3D7CA776108ED2AFB8FBAC8DC CALLER DUP4 PUSH1 0x2 ADD SLOAD PUSH1 0x40 MLOAD PUSH2 0x1829 SWAP3 SWAP2 SWAP1 PUSH2 0x376A JUMP JUMPDEST PUSH1 0x40 MLOAD DUP1 SWAP2 SUB SWAP1 LOG2 POP PUSH2 0x939 PUSH1 0x1 PUSH1 0x0 SSTORE JUMP JUMPDEST PUSH2 0x1844 PUSH2 0x2841 JUMP JUMPDEST PUSH1 0x0 DUP2 PUSH1 0x20 ADD MLOAD GT PUSH2 0x18AC JUMPI PUSH1 0x40 MLOAD PUSH3 0x461BCD PUSH1 0xE5 SHL DUP2 MSTORE PUSH1 0x20 PUSH1 0x4 DUP3 ADD MSTORE PUSH1 0x2B PUSH1 0x24 DUP3 ADD MSTORE PUSH32 0x446562617465506F6F6C56323A20506F696E7473206D75737420626520677265 PUSH1 0x44 DUP3 ADD MSTORE PUSH11 0x61746572207468616E203 PUSH1 0xAC SHL PUSH1 0x64 DUP3 ADD MSTORE PUSH1 0x84 ADD PUSH2 0x6EF JUMP JUMPDEST PUSH1 0x0 DUP2 PUSH1 0x40 ADD MLOAD MLOAD GT PUSH2 0x190D JUMPI PUSH1 0x40 MLOAD PUSH3 0x461BCD PUSH1 0xE5 SHL DUP2 MSTORE PUSH1 0x20 PUSH1 0x4 DUP3 ADD MSTORE PUSH1 0x24 DUP1 DUP3 ADD MSTORE PUSH32 0x446562617465506F6F6C56323A20526561736F6E2063616E6E6F742062652065 PUSH1 0x44 DUP3 ADD MSTORE PUSH4 0x6D707479 PUSH1 0xE0 SHL PUSH1 0x64 DUP3 ADD MSTORE PUSH1 0x84 ADD PUSH2 0x6EF JUMP JUMPDEST PUSH2 0x1916 DUP2 PUSH2 0x2B0F JUMP JUMPDEST PUSH2 0x1932 JUMPI PUSH1 0x40 MLOAD PUSH3 0x461BCD PUSH1 0xE5 SHL DUP2 MSTORE PUSH1 0x4 ADD PUSH2 0x6EF SWAP1 PUSH2 0x392A JUMP JUMPDEST PUSH1 0x20 DUP1 DUP3 ADD MLOAD DUP3 MLOAD PUSH1 0x1 PUSH1 0x1 PUSH1 0xA0 SHL SUB AND PUSH1 0x0 SWAP1 DUP2 MSTORE PUSH1 0x9 SWAP1 SWAP3 MSTORE PUSH1 0x40 DUP3 KECCAK256 DUP1 SLOAD SWAP2 SWAP3 SWAP1 SWAP2 PUSH2 0x1962 SWAP1 DUP5 SWAP1 PUSH2 0x3741 JUMP JUMPDEST SWAP3 POP POP DUP2 SWAP1 SSTORE POP DUP1 PUSH1 0x0 ADD MLOAD PUSH1 0x1 PUSH1 0x1 PUSH1 0xA0 SHL SUB AND PUSH1 0x0 DUP1 MLOAD PUSH1 0x20 PUSH2 0x3A9B DUP4 CODECOPY DUP2 MLOAD SWAP2 MSTORE DUP3 PUSH1 0x20 ADD MLOAD DUP4 PUSH1 0x40 ADD MLOAD PUSH1 0x40 MLOAD PUSH2 0x199E SWAP3 SWAP2 SWAP1 PUSH2 0x39DF JUMP JUMPDEST PUSH1 0x40 MLOAD DUP1 SWAP2 SUB SWAP1 LOG2 PUSH2 0x19B0 PUSH1 0x1 PUSH1 0x0 SSTORE JUMP JUMPDEST POP JUMP JUMPDEST PUSH2 0x19BB PUSH2 0x2841 JUMP JUMPDEST PUSH1 0xA DUP2 PUSH1 0x20 ADD MLOAD EQ PUSH2 0x1A21 JUMPI PUSH1 0x40 MLOAD PUSH3 0x461BCD PUSH1 0xE5 SHL DUP2 MSTORE PUSH1 0x20 PUSH1 0x4 DUP3 ADD MSTORE PUSH1 0x29 PUSH1 0x24 DUP3 ADD MSTORE PUSH32 0x446562617465506F6F6C56323A20496E76616C696420736861726520706F696E PUSH1 0x44 DUP3 ADD MSTORE PUSH9 0x1D1CC8185B5BDD5B9D PUSH1 0xBA SHL PUSH1 0x64 DUP3 ADD MSTORE PUSH1 0x84 ADD PUSH2 0x6EF JUMP JUMPDEST PUSH1 0x40 DUP1 MLOAD DUP1 DUP3 ADD DUP3 MSTORE PUSH1 0x5 DUP2 MSTORE PUSH5 0x7368617265 PUSH1 0xD8 SHL PUSH1 0x20 SWAP2 DUP3 ADD MSTORE SWAP1 DUP3 ADD MLOAD DUP1 MLOAD SWAP2 ADD KECCAK256 PUSH32 0xC4CDC3D8A828364413EB5A76EB1FA4225D58CB47D3674544D05EBB54F20C5529 EQ PUSH2 0x1AB4 JUMPI PUSH1 0x40 MLOAD PUSH3 0x461BCD PUSH1 0xE5 SHL DUP2 MSTORE PUSH1 0x20 PUSH1 0x4 DUP3 ADD MSTORE PUSH1 0x1C PUSH1 0x24 DUP3 ADD MSTORE PUSH32 0x446562617465506F6F6C56323A20496E76616C696420726561736F6E00000000 PUSH1 0x44 DUP3 ADD MSTORE PUSH1 0x64 ADD PUSH2 0x6EF JUMP JUMPDEST PUSH2 0x1ABD DUP2 PUSH2 0x2B0F JUMP JUMPDEST PUSH2 0x1AD9 JUMPI PUSH1 0x40 MLOAD PUSH3 0x461BCD PUSH1 0xE5 SHL DUP2 MSTORE PUSH1 0x4 ADD PUSH2 0x6EF SWAP1 PUSH2 0x392A JUMP JUMPDEST DUP1 MLOAD PUSH1 0x1 PUSH1 0x1 PUSH1 0xA0 SHL SUB AND PUSH1 0x0 SWAP1 DUP2 MSTORE PUSH1 0x9 PUSH1 0x20 MSTORE PUSH1 0x40 DUP2 KECCAK256 DUP1 SLOAD PUSH1 0xA SWAP3 SWAP1 PUSH2 0x1B03 SWAP1 DUP5 SWAP1 PUSH2 0x3741 JUMP JUMPDEST SWAP3 POP POP DUP2 SWAP1 SSTORE POP DUP1 PUSH1 0x0 ADD MLOAD PUSH1 0x1 PUSH1 0x1 PUSH1 0xA0 SHL SUB AND PUSH1 0x0 DUP1 MLOAD PUSH1 0x20 PUSH2 0x3A9B DUP4 CODECOPY DUP2 MLOAD SWAP2 MSTORE PUSH1 0xA PUSH1 0x40 MLOAD PUSH2 0x199E SWAP2 DUP2 MSTORE PUSH1 0x40 PUSH1 0x20 DUP3 ADD DUP2 SWAP1 MSTORE PUSH1 0x5 SWAP1 DUP3 ADD MSTORE PUSH5 0x7368617265 PUSH1 0xD8 SHL PUSH1 0x60 DUP3 ADD MSTORE PUSH1 0x80 ADD SWAP1 JUMP JUMPDEST PUSH2 0x1B5D PUSH2 0x2814 JUMP JUMPDEST PUSH1 0x40 MLOAD PUSH4 0x70A08231 PUSH1 0xE0 SHL DUP2 MSTORE ADDRESS PUSH1 0x4 DUP3 ADD MSTORE PUSH1 0x0 SWAP1 PUSH32 0x0 PUSH1 0x1 PUSH1 0x1 PUSH1 0xA0 SHL SUB AND SWAP1 PUSH4 0x70A08231 SWAP1 PUSH1 0x24 ADD PUSH1 0x20 PUSH1 0x40 MLOAD DUP1 DUP4 SUB DUP2 DUP7 GAS STATICCALL ISZERO DUP1 ISZERO PUSH2 0x1BC4 JUMPI RETURNDATASIZE PUSH1 0x0 DUP1 RETURNDATACOPY RETURNDATASIZE PUSH1 0x0 REVERT JUMPDEST POP POP POP POP PUSH1 0x40 MLOAD RETURNDATASIZE PUSH1 0x1F NOT PUSH1 0x1F DUP3 ADD AND DUP3 ADD DUP1 PUSH1 0x40 MSTORE POP DUP2 ADD SWAP1 PUSH2 0x1BE8 SWAP2 SWAP1 PUSH2 0x3A00 JUMP JUMPDEST SWAP1 POP PUSH1 0x0 DUP2 GT PUSH2 0x1C45 JUMPI PUSH1 0x40 MLOAD PUSH3 0x461BCD PUSH1 0xE5 SHL DUP2 MSTORE PUSH1 0x20 PUSH1 0x4 DUP3 ADD MSTORE PUSH1 0x22 PUSH1 0x24 DUP3 ADD MSTORE PUSH32 0x446562617465506F6F6C56323A204E6F2066756E647320746F20776974686472 PUSH1 0x44 DUP3 ADD MSTORE PUSH2 0x6177 PUSH1 0xF0 SHL PUSH1 0x64 DUP3 ADD MSTORE PUSH1 0x84 ADD PUSH2 0x6EF JUMP JUMPDEST PUSH32 0x0 PUSH1 0x1 PUSH1 0x1 PUSH1 0xA0 SHL SUB AND PUSH4 0xA9059CBB PUSH2 0x1C86 PUSH1 0x1 SLOAD PUSH1 0x1 PUSH1 0x1 PUSH1 0xA0 SHL SUB AND SWAP1 JUMP JUMPDEST DUP4 PUSH1 0x40 MLOAD DUP4 PUSH4 0xFFFFFFFF AND PUSH1 0xE0 SHL DUP2 MSTORE PUSH1 0x4 ADD PUSH2 0x1CA4 SWAP3 SWAP2 SWAP1 PUSH2 0x376A JUMP JUMPDEST PUSH1 0x20 PUSH1 0x40 MLOAD DUP1 DUP4 SUB DUP2 PUSH1 0x0 DUP8 GAS CALL ISZERO DUP1 ISZERO PUSH2 0x1CC3 JUMPI RETURNDATASIZE PUSH1 0x0 DUP1 RETURNDATACOPY RETURNDATASIZE PUSH1 0x0 REVERT JUMPDEST POP POP POP POP PUSH1 0x40 MLOAD RETURNDATASIZE PUSH1 0x1F NOT PUSH1 0x1F DUP3 ADD AND DUP3 ADD DUP1 PUSH1 0x40 MSTORE POP DUP2 ADD SWAP1 PUSH2 0x1CE7 SWAP2 SWAP1 PUSH2 0x3783 JUMP JUMPDEST PUSH2 0x19B0 JUMPI PUSH1 0x40 MLOAD PUSH3 0x461BCD PUSH1 0xE5 SHL DUP2 MSTORE PUSH1 0x20 PUSH1 0x4 DUP3 ADD MSTORE PUSH1 0x1F PUSH1 0x24 DUP3 ADD MSTORE PUSH32 0x446562617465506F6F6C56323A205769746864726177616C206661696C656400 PUSH1 0x44 DUP3 ADD MSTORE PUSH1 0x64 ADD PUSH2 0x6EF JUMP JUMPDEST PUSH2 0x1D3B PUSH2 0x2814 JUMP JUMPDEST PUSH1 0x1 PUSH1 0x1 PUSH1 0xA0 SHL SUB DUP3 AND PUSH2 0x1D91 JUMPI PUSH1 0x40 MLOAD PUSH3 0x461BCD PUSH1 0xE5 SHL DUP2 MSTORE PUSH1 0x20 PUSH1 0x4 DUP3 ADD MSTORE PUSH1 0x1B PUSH1 0x24 DUP3 ADD MSTORE PUSH32 0x446562617465506F6F6C56323A20496E76616C696420746F6B656E0000000000 PUSH1 0x44 DUP3 ADD MSTORE PUSH1 0x64 ADD PUSH2 0x6EF JUMP JUMPDEST PUSH1 0x0 DUP2 GT PUSH2 0x1DE1 JUMPI PUSH1 0x40 MLOAD PUSH3 0x461BCD PUSH1 0xE5 SHL DUP2 MSTORE PUSH1 0x20 PUSH1 0x4 DUP3 ADD MSTORE PUSH1 0x1C PUSH1 0x24 DUP3 ADD MSTORE PUSH32 0x446562617465506F6F6C56323A20496E76616C696420616D6F756E7400000000 PUSH1 0x44 DUP3 ADD MSTORE PUSH1 0x64 ADD PUSH2 0x6EF JUMP JUMPDEST PUSH1 0xA DUP1 SLOAD PUSH1 0xC DUP4 SWAP1 SSTORE NUMBER PUSH1 0xB DUP2 SWAP1 SSTORE PUSH1 0x1 PUSH1 0x1 PUSH1 0xA8 SHL SUB NOT SWAP1 SWAP2 AND PUSH1 0x1 PUSH1 0x1 PUSH1 0xA0 SHL SUB DUP6 AND SWAP1 DUP2 OR PUSH1 0x1 PUSH1 0xA0 SHL OR SWAP1 SWAP3 SSTORE PUSH1 0x40 DUP1 MLOAD DUP5 DUP2 MSTORE PUSH1 0x20 DUP2 ADD SWAP3 SWAP1 SWAP3 MSTORE PUSH32 0xED7F60BF056D1B78417C82BBBC5FE32284E4FF57356F801DAA6844F110322A41 SWAP2 ADD PUSH1 0x40 MLOAD DUP1 SWAP2 SUB SWAP1 LOG2 POP POP JUMP JUMPDEST PUSH2 0x1E58 PUSH2 0x2841 JUMP JUMPDEST PUSH1 0xA DUP2 PUSH1 0x20 ADD MLOAD EQ PUSH2 0x1EBD JUMPI PUSH1 0x40 MLOAD PUSH3 0x461BCD PUSH1 0xE5 SHL DUP2 MSTORE PUSH1 0x20 PUSH1 0x4 DUP3 ADD MSTORE PUSH1 0x28 PUSH1 0x24 DUP3 ADD MSTORE PUSH32 0x446562617465506F6F6C56323A20496E76616C6964206C696B6520706F696E74 PUSH1 0x44 DUP3 ADD MSTORE PUSH8 0x1CC8185B5BDD5B9D PUSH1 0xC2 SHL PUSH1 0x64 DUP3 ADD MSTORE PUSH1 0x84 ADD PUSH2 0x6EF JUMP JUMPDEST PUSH1 0x40 DUP1 MLOAD DUP1 DUP3 ADD DUP3 MSTORE PUSH1 0x4 DUP2 MSTORE PUSH4 0x6C696B65 PUSH1 0xE0 SHL PUSH1 0x20 SWAP2 DUP3 ADD MSTORE SWAP1 DUP3 ADD MLOAD DUP1 MLOAD SWAP2 ADD KECCAK256 PUSH32 0x16A69A64601E323737C13AF3E3DD037ECA589D19787DDE3FB106C4D760353FED EQ PUSH2 0x1F4F JUMPI PUSH1 0x40 MLOAD PUSH3 0x461BCD PUSH1 0xE5 SHL DUP2 MSTORE PUSH1 0x20 PUSH1 0x4 DUP3 ADD MSTORE PUSH1 0x1C PUSH1 0x24 DUP3 ADD MSTORE PUSH32 0x446562617465506F6F6C56323A20496E76616C696420726561736F6E00000000 PUSH1 0x44 DUP3 ADD MSTORE PUSH1 0x64 ADD PUSH2 0x6EF JUMP JUMPDEST PUSH2 0x1F58 DUP2 PUSH2 0x2B0F JUMP JUMPDEST PUSH2 0x1F74 JUMPI PUSH1 0x40 MLOAD PUSH3 0x461BCD PUSH1 0xE5 SHL DUP2 MSTORE PUSH1 0x4 ADD PUSH2 0x6EF SWAP1 PUSH2 0x392A JUMP JUMPDEST DUP1 MLOAD PUSH1 0x1 PUSH1 0x1 PUSH1 0xA0 SHL SUB AND PUSH1 0x0 SWAP1 DUP2 MSTORE PUSH1 0x9 PUSH1 0x20 MSTORE PUSH1 0x40 DUP2 KECCAK256 DUP1 SLOAD PUSH1 0xA SWAP3 SWAP1 PUSH2 0x1F9E SWAP1 DUP5 SWAP1 PUSH2 0x3741 JUMP JUMPDEST SWAP3 POP POP DUP2 SWAP1 SSTORE POP DUP1 PUSH1 0x0 ADD MLOAD PUSH1 0x1 PUSH1 0x1 PUSH1 0xA0 SHL SUB AND PUSH1 0x0 DUP1 MLOAD PUSH1 0x20 PUSH2 0x3A9B DUP4 CODECOPY DUP2 MLOAD SWAP2 MSTORE PUSH1 0xA PUSH1 0x40 MLOAD PUSH2 0x199E SWAP2 DUP2 MSTORE PUSH1 0x40 PUSH1 0x20 DUP3 ADD DUP2 SWAP1 MSTORE PUSH1 0x4 SWAP1 DUP3 ADD MSTORE PUSH4 0x6C696B65 PUSH1 0xE0 SHL PUSH1 0x60 DUP3 ADD MSTORE PUSH1 0x80 ADD SWAP1 JUMP JUMPDEST DUP1 MLOAD DUP1 ISZERO DUP1 ISZERO SWAP1 PUSH2 0x2001 JUMPI POP PUSH1 0x4 SLOAD DUP2 LT JUMPDEST PUSH2 0x201D JUMPI PUSH1 0x40 MLOAD PUSH3 0x461BCD PUSH1 0xE5 SHL DUP2 MSTORE PUSH1 0x4 ADD PUSH2 0x6EF SWAP1 PUSH2 0x36F4 JUMP JUMPDEST PUSH2 0x2025 PUSH2 0x2841 JUMP JUMPDEST DUP2 MLOAD PUSH1 0x0 SWAP1 DUP2 MSTORE PUSH1 0x6 PUSH1 0x20 MSTORE PUSH1 0x40 SWAP1 KECCAK256 PUSH1 0x7 DUP2 ADD SLOAD PUSH1 0x1 PUSH1 0xA0 SHL SWAP1 DIV PUSH1 0xFF AND PUSH2 0x2060 JUMPI PUSH1 0x40 MLOAD PUSH3 0x461BCD PUSH1 0xE5 SHL DUP2 MSTORE PUSH1 0x4 ADD PUSH2 0x6EF SWAP1 PUSH2 0x3A19 JUMP JUMPDEST PUSH1 0x7 DUP2 ADD SLOAD PUSH1 0x1 PUSH1 0xA8 SHL SWAP1 DIV PUSH1 0xFF AND ISZERO PUSH2 0x208C JUMPI PUSH1 0x40 MLOAD PUSH3 0x461BCD PUSH1 0xE5 SHL DUP2 MSTORE PUSH1 0x4 ADD PUSH2 0x6EF SWAP1 PUSH2 0x399A JUMP JUMPDEST PUSH1 0x6 DUP2 ADD SLOAD PUSH2 0x20DD JUMPI PUSH1 0x40 MLOAD PUSH3 0x461BCD PUSH1 0xE5 SHL DUP2 MSTORE PUSH1 0x20 PUSH1 0x4 DUP3 ADD MSTORE PUSH1 0x1D PUSH1 0x24 DUP3 ADD MSTORE PUSH32 0x446562617465506F6F6C56323A204E6F207061727469636970616E7473000000 PUSH1 0x44 DUP3 ADD MSTORE PUSH1 0x64 ADD PUSH2 0x6EF JUMP JUMPDEST PUSH2 0x20EF DUP4 PUSH1 0x0 ADD MLOAD DUP5 PUSH1 0x20 ADD MLOAD PUSH2 0x28BD JUMP JUMPDEST PUSH2 0x214A JUMPI PUSH1 0x40 MLOAD PUSH3 0x461BCD PUSH1 0xE5 SHL DUP2 MSTORE PUSH1 0x20 PUSH1 0x4 DUP3 ADD MSTORE PUSH1 0x26 PUSH1 0x24 DUP3 ADD MSTORE PUSH32 0x446562617465506F6F6C56323A2057696E6E6572206E6F742061207061727469 PUSH1 0x44 DUP3 ADD MSTORE PUSH6 0x18DA5C185B9D PUSH1 0xD2 SHL PUSH1 0x64 DUP3 ADD MSTORE PUSH1 0x84 ADD PUSH2 0x6EF JUMP JUMPDEST PUSH2 0x2153 DUP4 PUSH2 0x2BFF JUMP JUMPDEST PUSH2 0x216F JUMPI PUSH1 0x40 MLOAD PUSH3 0x461BCD PUSH1 0xE5 SHL DUP2 MSTORE PUSH1 0x4 ADD PUSH2 0x6EF SWAP1 PUSH2 0x392A JUMP JUMPDEST PUSH1 0x6 DUP2 ADD SLOAD PUSH1 0x2 DUP3 ADD SLOAD PUSH1 0x0 SWAP2 PUSH2 0x2185 SWAP2 PUSH2 0x3961 JUMP JUMPDEST SWAP1 POP PUSH1 0x0 PUSH2 0x2710 PUSH2 0x2197 PUSH1 0x14 DUP5 PUSH2 0x3961 JUMP JUMPDEST PUSH2 0x21A1 SWAP2 SWAP1 PUSH2 0x3978 JUMP JUMPDEST SWAP1 POP PUSH1 0x0 PUSH2 0x21AF DUP3 DUP5 PUSH2 0x3A5B JUMP JUMPDEST PUSH1 0x20 DUP8 ADD MLOAD PUSH1 0x7 DUP7 ADD DUP1 SLOAD PUSH1 0x1 PUSH1 0xA8 SHL PUSH1 0x1 PUSH1 0x1 PUSH1 0xA0 SHL SUB DUP1 DUP6 AND PUSH1 0x1 PUSH2 0xFF01 PUSH1 0xA0 SHL SUB NOT SWAP1 SWAP4 AND SWAP3 SWAP1 SWAP3 OR OR PUSH1 0xFF PUSH1 0xA0 SHL NOT AND SWAP1 SWAP2 SSTORE PUSH1 0x40 MLOAD PUSH4 0xA9059CBB PUSH1 0xE0 SHL DUP2 MSTORE SWAP3 SWAP4 POP PUSH32 0x0 AND SWAP2 PUSH4 0xA9059CBB SWAP2 PUSH2 0x222D SWAP2 DUP6 SWAP1 PUSH1 0x4 ADD PUSH2 0x376A JUMP JUMPDEST PUSH1 0x20 PUSH1 0x40 MLOAD DUP1 DUP4 SUB DUP2 PUSH1 0x0 DUP8 GAS CALL ISZERO DUP1 ISZERO PUSH2 0x224C JUMPI RETURNDATASIZE PUSH1 0x0 DUP1 RETURNDATACOPY RETURNDATASIZE PUSH1 0x0 REVERT JUMPDEST POP POP POP POP PUSH1 0x40 MLOAD RETURNDATASIZE PUSH1 0x1F NOT PUSH1 0x1F DUP3 ADD AND DUP3 ADD DUP1 PUSH1 0x40 MSTORE POP DUP2 ADD SWAP1 PUSH2 0x2270 SWAP2 SWAP1 PUSH2 0x3783 JUMP JUMPDEST PUSH2 0x22C8 JUMPI PUSH1 0x40 MLOAD PUSH3 0x461BCD PUSH1 0xE5 SHL DUP2 MSTORE PUSH1 0x20 PUSH1 0x4 DUP3 ADD MSTORE PUSH1 0x24 DUP1 DUP3 ADD MSTORE PUSH32 0x446562617465506F6F6C56323A2057696E6E6572207472616E73666572206661 PUSH1 0x44 DUP3 ADD MSTORE PUSH4 0x1A5B1959 PUSH1 0xE2 SHL PUSH1 0x64 DUP3 ADD MSTORE PUSH1 0x84 ADD PUSH2 0x6EF JUMP JUMPDEST PUSH1 0x20 DUP1 DUP8 ADD MLOAD PUSH1 0x1 PUSH1 0x1 PUSH1 0xA0 SHL SUB AND PUSH1 0x0 SWAP1 DUP2 MSTORE PUSH1 0x9 SWAP1 SWAP2 MSTORE PUSH1 0x40 DUP2 KECCAK256 DUP1 SLOAD PUSH2 0x3E8 SWAP3 SWAP1 PUSH2 0x22F7 SWAP1 DUP5 SWAP1 PUSH2 0x3741 JUMP JUMPDEST SWAP1 SWAP2 SSTORE POP POP PUSH1 0x20 DUP1 DUP8 ADD MLOAD PUSH1 0x40 DUP1 MLOAD PUSH2 0x3E8 DUP2 MSTORE SWAP3 DUP4 ADD DUP2 SWAP1 MSTORE PUSH1 0xD SWAP1 DUP4 ADD MSTORE PUSH13 0x3232B130BA32AFBBB4B73732B9 PUSH1 0x99 SHL PUSH1 0x60 DUP4 ADD MSTORE PUSH1 0x1 PUSH1 0x1 PUSH1 0xA0 SHL SUB AND SWAP1 PUSH1 0x0 DUP1 MLOAD PUSH1 0x20 PUSH2 0x3A9B DUP4 CODECOPY DUP2 MLOAD SWAP2 MSTORE SWAP1 PUSH1 0x80 ADD PUSH1 0x40 MLOAD DUP1 SWAP2 SUB SWAP1 LOG2 DUP6 MLOAD PUSH1 0x20 DUP8 ADD MLOAD PUSH1 0x40 MLOAD PUSH32 0x7ED5FACE07AFB2B0E99DF53523951350D2A3D4F5D105A0DD2110703EFE399537 SWAP2 PUSH2 0x2389 SWAP2 DUP6 SWAP1 PUSH2 0x376A JUMP JUMPDEST PUSH1 0x40 MLOAD DUP1 SWAP2 SUB SWAP1 LOG2 POP POP POP POP PUSH2 0x939 PUSH1 0x1 PUSH1 0x0 SSTORE JUMP JUMPDEST PUSH2 0x23A7 PUSH2 0x2814 JUMP JUMPDEST PUSH1 0x1 PUSH1 0x1 PUSH1 0xA0 SHL SUB DUP2 AND PUSH2 0x23D1 JUMPI PUSH1 0x40 MLOAD PUSH4 0x1E4FBDF7 PUSH1 0xE0 SHL DUP2 MSTORE PUSH1 0x0 PUSH1 0x4 DUP3 ADD MSTORE PUSH1 0x24 ADD PUSH2 0x6EF JUMP JUMPDEST PUSH2 0x19B0 DUP2 PUSH2 0x286B JUMP JUMPDEST DUP1 PUSH1 0x0 DUP2 GT DUP1 ISZERO PUSH2 0x23EC JUMPI POP PUSH1 0x4 SLOAD DUP2 LT JUMPDEST PUSH2 0x2408 JUMPI PUSH1 0x40 MLOAD PUSH3 0x461BCD PUSH1 0xE5 SHL DUP2 MSTORE PUSH1 0x4 ADD PUSH2 0x6EF SWAP1 PUSH2 0x36F4 JUMP JUMPDEST PUSH1 0x0 DUP3 DUP2 MSTORE PUSH1 0x6 PUSH1 0x20 MSTORE PUSH1 0x40 SWAP1 KECCAK256 PUSH1 0x7 DUP2 ADD SLOAD DUP4 SWAP2 SWAP1 PUSH1 0x1 PUSH1 0xA0 SHL SWAP1 DIV PUSH1 0xFF AND PUSH2 0x2444 JUMPI PUSH1 0x40 MLOAD PUSH3 0x461BCD PUSH1 0xE5 SHL DUP2 MSTORE PUSH1 0x4 ADD PUSH2 0x6EF SWAP1 PUSH2 0x3A19 JUMP JUMPDEST DUP1 PUSH1 0x4 ADD SLOAD TIMESTAMP LT ISZERO PUSH2 0x24A4 JUMPI PUSH1 0x40 MLOAD PUSH3 0x461BCD PUSH1 0xE5 SHL DUP2 MSTORE PUSH1 0x20 PUSH1 0x4 DUP3 ADD MSTORE PUSH1 0x24 DUP1 DUP3 ADD MSTORE PUSH32 0x446562617465506F6F6C56323A2044656261746520686173206E6F7420737461 PUSH1 0x44 DUP3 ADD MSTORE PUSH4 0x1C9D1959 PUSH1 0xE2 SHL PUSH1 0x64 DUP3 ADD MSTORE PUSH1 0x84 ADD PUSH2 0x6EF JUMP JUMPDEST DUP1 PUSH1 0x5 ADD SLOAD TIMESTAMP GT ISZERO PUSH2 0x24F8 JUMPI PUSH1 0x40 MLOAD PUSH3 0x461BCD PUSH1 0xE5 SHL DUP2 MSTORE PUSH1 0x20 PUSH1 0x4 DUP3 ADD MSTORE PUSH1 0x1E PUSH1 0x24 DUP3 ADD MSTORE PUSH32 0x446562617465506F6F6C56323A204465626174652068617320656E6465640000 PUSH1 0x44 DUP3 ADD MSTORE PUSH1 0x64 ADD PUSH2 0x6EF JUMP JUMPDEST PUSH1 0x5 SLOAD PUSH1 0xFF AND ISZERO PUSH2 0x254B JUMPI PUSH1 0x40 MLOAD PUSH3 0x461BCD PUSH1 0xE5 SHL DUP2 MSTORE PUSH1 0x20 PUSH1 0x4 DUP3 ADD DUP2 SWAP1 MSTORE PUSH1 0x24 DUP3 ADD MSTORE PUSH32 0x446562617465506F6F6C56323A20436F6E747261637420697320706175736564 PUSH1 0x44 DUP3 ADD MSTORE PUSH1 0x64 ADD PUSH2 0x6EF JUMP JUMPDEST PUSH2 0x2553 PUSH2 0x2841 JUMP JUMPDEST PUSH1 0x0 DUP5 DUP2 MSTORE PUSH1 0x6 PUSH1 0x20 DUP2 SWAP1 MSTORE PUSH1 0x40 SWAP1 SWAP2 KECCAK256 PUSH1 0x3 DUP2 ADD SLOAD SWAP2 DUP2 ADD SLOAD SWAP1 SWAP2 GT PUSH2 0x25BC JUMPI PUSH1 0x40 MLOAD PUSH3 0x461BCD PUSH1 0xE5 SHL DUP2 MSTORE PUSH1 0x20 PUSH1 0x4 DUP3 ADD MSTORE PUSH1 0x1C PUSH1 0x24 DUP3 ADD MSTORE PUSH32 0x446562617465506F6F6C56323A204465626174652069732066756C6C00000000 PUSH1 0x44 DUP3 ADD MSTORE PUSH1 0x64 ADD PUSH2 0x6EF JUMP JUMPDEST PUSH2 0x25C6 DUP6 CALLER PUSH2 0x28BD JUMP JUMPDEST ISZERO PUSH2 0x261F JUMPI PUSH1 0x40 MLOAD PUSH3 0x461BCD PUSH1 0xE5 SHL DUP2 MSTORE PUSH1 0x20 PUSH1 0x4 DUP3 ADD MSTORE PUSH1 0x23 PUSH1 0x24 DUP3 ADD MSTORE PUSH32 0x446562617465506F6F6C56323A20416C72656164792070617274696369706174 PUSH1 0x44 DUP3 ADD MSTORE PUSH3 0x696E67 PUSH1 0xE8 SHL PUSH1 0x64 DUP3 ADD MSTORE PUSH1 0x84 ADD PUSH2 0x6EF JUMP JUMPDEST PUSH1 0x2 DUP2 ADD SLOAD PUSH1 0x40 MLOAD PUSH4 0x23B872DD PUSH1 0xE0 SHL DUP2 MSTORE CALLER PUSH1 0x4 DUP3 ADD MSTORE ADDRESS PUSH1 0x24 DUP3 ADD MSTORE PUSH1 0x44 DUP2 ADD SWAP2 SWAP1 SWAP2 MSTORE PUSH32 0x0 PUSH1 0x1 PUSH1 0x1 PUSH1 0xA0 SHL SUB AND SWAP1 PUSH4 0x23B872DD SWAP1 PUSH1 0x64 ADD PUSH1 0x20 PUSH1 0x40 MLOAD DUP1 DUP4 SUB DUP2 PUSH1 0x0 DUP8 GAS CALL ISZERO DUP1 ISZERO PUSH2 0x2698 JUMPI RETURNDATASIZE PUSH1 0x0 DUP1 RETURNDATACOPY RETURNDATASIZE PUSH1 0x0 REVERT JUMPDEST POP POP POP POP PUSH1 0x40 MLOAD RETURNDATASIZE PUSH1 0x1F NOT PUSH1 0x1F DUP3 ADD AND DUP3 ADD DUP1 PUSH1 0x40 MSTORE POP DUP2 ADD SWAP1 PUSH2 0x26BC SWAP2 SWAP1 PUSH2 0x3783 JUMP JUMPDEST PUSH2 0x2713 JUMPI PUSH1 0x40 MLOAD PUSH3 0x461BCD PUSH1 0xE5 SHL DUP2 MSTORE PUSH1 0x20 PUSH1 0x4 DUP3 ADD MSTORE PUSH1 0x22 PUSH1 0x24 DUP3 ADD MSTORE PUSH32 0x446562617465506F6F6C56323A2055534443207472616E73666572206661696C PUSH1 0x44 DUP3 ADD MSTORE PUSH2 0x1959 PUSH1 0xF2 SHL PUSH1 0x64 DUP3 ADD MSTORE PUSH1 0x84 ADD PUSH2 0x6EF JUMP JUMPDEST PUSH1 0x6 DUP2 ADD DUP1 SLOAD PUSH1 0x1 DUP2 DUP2 ADD DUP4 SSTORE PUSH1 0x0 SWAP3 DUP4 MSTORE PUSH1 0x20 DUP1 DUP5 KECCAK256 SWAP1 SWAP3 ADD DUP1 SLOAD PUSH1 0x1 PUSH1 0x1 PUSH1 0xA0 SHL SUB NOT AND CALLER SWAP1 DUP2 OR SWAP1 SWAP2 SSTORE DUP1 DUP5 MSTORE PUSH1 0x7 DUP4 MSTORE PUSH1 0x40 DUP1 DUP6 KECCAK256 DUP1 SLOAD SWAP4 DUP5 ADD DUP2 SSTORE DUP6 MSTORE DUP4 DUP6 KECCAK256 SWAP1 SWAP3 ADD DUP10 SWAP1 SSTORE DUP4 MSTORE PUSH1 0x9 SWAP1 SWAP2 MSTORE DUP2 KECCAK256 DUP1 SLOAD PUSH1 0x64 SWAP3 SWAP1 PUSH2 0x2778 SWAP1 DUP5 SWAP1 PUSH2 0x3741 JUMP JUMPDEST SWAP1 SWAP2 SSTORE POP POP PUSH1 0x40 MLOAD CALLER SWAP1 PUSH1 0x0 DUP1 MLOAD PUSH1 0x20 PUSH2 0x3A9B DUP4 CODECOPY DUP2 MLOAD SWAP2 MSTORE SWAP1 PUSH2 0x27CC SWAP1 PUSH1 0x64 DUP2 MSTORE PUSH1 0x40 PUSH1 0x20 DUP3 ADD DUP2 SWAP1 MSTORE PUSH1 0x14 SWAP1 DUP3 ADD MSTORE PUSH20 0x3232B130BA32AFB830B93A34B1B4B830BA34B7B7 PUSH1 0x61 SHL PUSH1 0x60 DUP3 ADD MSTORE PUSH1 0x80 ADD SWAP1 JUMP JUMPDEST PUSH1 0x40 MLOAD DUP1 SWAP2 SUB SWAP1 LOG2 PUSH1 0x40 MLOAD CALLER DUP2 MSTORE DUP6 SWAP1 PUSH32 0x7DD8CB04159701BC1976C246434D7D96812782E7489E6C5C34DB49A388FE9E80 SWAP1 PUSH1 0x20 ADD PUSH1 0x40 MLOAD DUP1 SWAP2 SUB SWAP1 LOG2 POP PUSH2 0x1574 PUSH1 0x1 PUSH1 0x0 SSTORE JUMP JUMPDEST PUSH1 0x1 SLOAD PUSH1 0x1 PUSH1 0x1 PUSH1 0xA0 SHL SUB AND CALLER EQ PUSH2 0x105B JUMPI PUSH1 0x40 MLOAD PUSH4 0x118CDAA7 PUSH1 0xE0 SHL DUP2 MSTORE CALLER PUSH1 0x4 DUP3 ADD MSTORE PUSH1 0x24 ADD PUSH2 0x6EF JUMP JUMPDEST PUSH1 0x2 PUSH1 0x0 SLOAD SUB PUSH2 0x2864 JUMPI PUSH1 0x40 MLOAD PUSH4 0x3EE5AEB5 PUSH1 0xE0 SHL DUP2 MSTORE PUSH1 0x4 ADD PUSH1 0x40 MLOAD DUP1 SWAP2 SUB SWAP1 REVERT JUMPDEST PUSH1 0x2 PUSH1 0x0 SSTORE JUMP JUMPDEST PUSH1 0x1 DUP1 SLOAD PUSH1 0x1 PUSH1 0x1 PUSH1 0xA0 SHL SUB DUP4 DUP2 AND PUSH1 0x1 PUSH1 0x1 PUSH1 0xA0 SHL SUB NOT DUP4 AND DUP2 OR SWAP1 SWAP4 SSTORE PUSH1 0x40 MLOAD SWAP2 AND SWAP2 SWAP1 DUP3 SWAP1 PUSH32 0x8BE0079C531659141344CD1FD0A4F28419497F9722A3DAAFE3B4186F6B6457E0 SWAP1 PUSH1 0x0 SWAP1 LOG3 POP POP JUMP JUMPDEST PUSH1 0x0 DUP3 DUP2 MSTORE PUSH1 0x6 PUSH1 0x20 MSTORE PUSH1 0x40 DUP2 KECCAK256 DUP2 JUMPDEST PUSH1 0x6 DUP3 ADD SLOAD DUP2 LT ISZERO PUSH2 0x292F JUMPI DUP4 PUSH1 0x1 PUSH1 0x1 PUSH1 0xA0 SHL SUB AND DUP3 PUSH1 0x6 ADD DUP3 DUP2 SLOAD DUP2 LT PUSH2 0x28F8 JUMPI PUSH2 0x28F8 PUSH2 0x3754 JUMP JUMPDEST PUSH1 0x0 SWAP2 DUP3 MSTORE PUSH1 0x20 SWAP1 SWAP2 KECCAK256 ADD SLOAD PUSH1 0x1 PUSH1 0x1 PUSH1 0xA0 SHL SUB AND SUB PUSH2 0x291D JUMPI PUSH1 0x1 SWAP3 POP POP POP PUSH2 0x106C JUMP JUMPDEST DUP1 PUSH2 0x2927 DUP2 PUSH2 0x37AC JUMP JUMPDEST SWAP2 POP POP PUSH2 0x28CD JUMP JUMPDEST POP PUSH1 0x0 SWAP5 SWAP4 POP POP POP POP JUMP JUMPDEST PUSH1 0x60 PUSH2 0x2967 PUSH32 0x0 PUSH1 0x2 PUSH2 0x2C99 JUMP JUMPDEST SWAP1 POP SWAP1 JUMP JUMPDEST PUSH1 0x60 PUSH2 0x2967 PUSH32 0x0 PUSH1 0x3 PUSH2 0x2C99 JUMP JUMPDEST PUSH1 0x0 PUSH2 0x106C PUSH2 0x29A6 PUSH2 0x2D44 JUMP JUMPDEST DUP4 PUSH1 0x40 MLOAD PUSH2 0x1901 PUSH1 0xF0 SHL DUP2 MSTORE PUSH1 0x2 DUP2 ADD SWAP3 SWAP1 SWAP3 MSTORE PUSH1 0x22 DUP3 ADD MSTORE PUSH1 0x42 SWAP1 KECCAK256 SWAP1 JUMP JUMPDEST PUSH1 0x0 DUP1 PUSH1 0x0 DUP1 PUSH2 0x29D6 DUP7 DUP7 PUSH2 0x2E6F JUMP JUMPDEST SWAP3 POP SWAP3 POP SWAP3 POP PUSH2 0x29E6 DUP3 DUP3 PUSH2 0x2EBC JUMP JUMPDEST POP SWAP1 SWAP5 SWAP4 POP POP POP POP JUMP JUMPDEST PUSH1 0x0 DUP3 DUP2 MSTORE PUSH1 0x6 PUSH1 0x20 MSTORE PUSH1 0x40 DUP2 KECCAK256 SWAP1 JUMPDEST PUSH1 0x6 DUP3 ADD SLOAD DUP2 LT ISZERO PUSH2 0x1574 JUMPI DUP3 PUSH1 0x1 PUSH1 0x1 PUSH1 0xA0 SHL SUB AND DUP3 PUSH1 0x6 ADD DUP3 DUP2 SLOAD DUP2 LT PUSH2 0x2A2B JUMPI PUSH2 0x2A2B PUSH2 0x3754 JUMP JUMPDEST PUSH1 0x0 SWAP2 DUP3 MSTORE PUSH1 0x20 SWAP1 SWAP2 KECCAK256 ADD SLOAD PUSH1 0x1 PUSH1 0x1 PUSH1 0xA0 SHL SUB AND SUB PUSH2 0x2AFD JUMPI PUSH1 0x6 DUP3 ADD DUP1 SLOAD PUSH2 0x2A57 SWAP1 PUSH1 0x1 SWAP1 PUSH2 0x3A5B JUMP JUMPDEST DUP2 SLOAD DUP2 LT PUSH2 0x2A67 JUMPI PUSH2 0x2A67 PUSH2 0x3754 JUMP JUMPDEST PUSH1 0x0 SWAP2 DUP3 MSTORE PUSH1 0x20 SWAP1 SWAP2 KECCAK256 ADD SLOAD PUSH1 0x6 DUP4 ADD DUP1 SLOAD PUSH1 0x1 PUSH1 0x1 PUSH1 0xA0 SHL SUB SWAP1 SWAP3 AND SWAP2 DUP4 SWAP1 DUP2 LT PUSH2 0x2A95 JUMPI PUSH2 0x2A95 PUSH2 0x3754 JUMP JUMPDEST SWAP1 PUSH1 0x0 MSTORE PUSH1 0x20 PUSH1 0x0 KECCAK256 ADD PUSH1 0x0 PUSH2 0x100 EXP DUP2 SLOAD DUP2 PUSH1 0x1 PUSH1 0x1 PUSH1 0xA0 SHL SUB MUL NOT AND SWAP1 DUP4 PUSH1 0x1 PUSH1 0x1 PUSH1 0xA0 SHL SUB AND MUL OR SWAP1 SSTORE POP DUP2 PUSH1 0x6 ADD DUP1 SLOAD DUP1 PUSH2 0x2AD6 JUMPI PUSH2 0x2AD6 PUSH2 0x3A6E JUMP JUMPDEST PUSH1 0x0 DUP3 DUP2 MSTORE PUSH1 0x20 SWAP1 KECCAK256 DUP2 ADD PUSH1 0x0 NOT SWAP1 DUP2 ADD DUP1 SLOAD PUSH1 0x1 PUSH1 0x1 PUSH1 0xA0 SHL SUB NOT AND SWAP1 SSTORE ADD SWAP1 SSTORE PUSH2 0x1574 JUMP JUMPDEST DUP1 PUSH2 0x2B07 DUP2 PUSH2 0x37AC JUMP JUMPDEST SWAP2 POP POP PUSH2 0x2A00 JUMP JUMPDEST PUSH1 0x0 DUP1 PUSH32 0x3F1D2751CE91023DDBB199169D15E32E1DA24B78ACEBC8791E2543F34520BD93 DUP4 PUSH1 0x0 ADD MLOAD DUP5 PUSH1 0x20 ADD MLOAD DUP6 PUSH1 0x40 ADD MLOAD DUP1 MLOAD SWAP1 PUSH1 0x20 ADD KECCAK256 DUP7 PUSH1 0x60 ADD MLOAD PUSH1 0x40 MLOAD PUSH1 0x20 ADD PUSH2 0x2B89 SWAP6 SWAP5 SWAP4 SWAP3 SWAP2 SWAP1 SWAP5 DUP6 MSTORE PUSH1 0x1 PUSH1 0x1 PUSH1 0xA0 SHL SUB SWAP4 SWAP1 SWAP4 AND PUSH1 0x20 DUP6 ADD MSTORE PUSH1 0x40 DUP5 ADD SWAP2 SWAP1 SWAP2 MSTORE PUSH1 0x60 DUP4 ADD MSTORE PUSH1 0x80 DUP3 ADD MSTORE PUSH1 0xA0 ADD SWAP1 JUMP JUMPDEST PUSH1 0x40 MLOAD PUSH1 0x20 DUP2 DUP4 SUB SUB DUP2 MSTORE SWAP1 PUSH1 0x40 MSTORE DUP1 MLOAD SWAP1 PUSH1 0x20 ADD KECCAK256 SWAP1 POP PUSH1 0x0 PUSH2 0x2BAC DUP3 PUSH2 0x2999 JUMP JUMPDEST SWAP1 POP PUSH1 0x0 PUSH2 0x2BBE DUP3 DUP7 PUSH1 0x80 ADD MLOAD PUSH2 0x29C6 JUMP JUMPDEST SWAP1 POP PUSH32 0x0 PUSH1 0x1 PUSH1 0x1 PUSH1 0xA0 SHL SUB AND DUP2 PUSH1 0x1 PUSH1 0x1 PUSH1 0xA0 SHL SUB AND EQ SWAP4 POP POP POP POP SWAP2 SWAP1 POP JUMP JUMPDEST PUSH1 0x0 DUP1 PUSH32 0xB117E7DF7AFC3D596B66D8AED8B3987C92D6781A819D58BFE89281BD26F969C7 DUP4 PUSH1 0x0 ADD MLOAD DUP5 PUSH1 0x20 ADD MLOAD DUP6 PUSH1 0x40 ADD MLOAD PUSH1 0x40 MLOAD PUSH1 0x20 ADD PUSH2 0x2C64 SWAP5 SWAP4 SWAP3 SWAP2 SWAP1 SWAP4 DUP5 MSTORE PUSH1 0x20 DUP5 ADD SWAP3 SWAP1 SWAP3 MSTORE PUSH1 0x1 PUSH1 0x1 PUSH1 0xA0 SHL SUB AND PUSH1 0x40 DUP4 ADD MSTORE PUSH1 0x60 DUP3 ADD MSTORE PUSH1 0x80 ADD SWAP1 JUMP JUMPDEST PUSH1 0x40 MLOAD PUSH1 0x20 DUP2 DUP4 SUB SUB DUP2 MSTORE SWAP1 PUSH1 0x40 MSTORE DUP1 MLOAD SWAP1 PUSH1 0x20 ADD KECCAK256 SWAP1 POP PUSH1 0x0 PUSH2 0x2C87 DUP3 PUSH2 0x2999 JUMP JUMPDEST SWAP1 POP PUSH1 0x0 PUSH2 0x2BBE DUP3 DUP7 PUSH1 0x60 ADD MLOAD PUSH2 0x29C6 JUMP JUMPDEST PUSH1 0x60 PUSH1 0xFF DUP4 EQ PUSH2 0x2CB3 JUMPI PUSH2 0x2CAC DUP4 PUSH2 0x2F75 JUMP JUMPDEST SWAP1 POP PUSH2 0x106C JUMP JUMPDEST DUP2 DUP1 SLOAD PUSH2 0x2CBF SWAP1 PUSH2 0x37C5 JUMP JUMPDEST DUP1 PUSH1 0x1F ADD PUSH1 0x20 DUP1 SWAP2 DIV MUL PUSH1 0x20 ADD PUSH1 0x40 MLOAD SWAP1 DUP2 ADD PUSH1 0x40 MSTORE DUP1 SWAP3 SWAP2 SWAP1 DUP2 DUP2 MSTORE PUSH1 0x20 ADD DUP3 DUP1 SLOAD PUSH2 0x2CEB SWAP1 PUSH2 0x37C5 JUMP JUMPDEST DUP1 ISZERO PUSH2 0x2D38 JUMPI DUP1 PUSH1 0x1F LT PUSH2 0x2D0D JUMPI PUSH2 0x100 DUP1 DUP4 SLOAD DIV MUL DUP4 MSTORE SWAP2 PUSH1 0x20 ADD SWAP2 PUSH2 0x2D38 JUMP JUMPDEST DUP3 ADD SWAP2 SWAP1 PUSH1 0x0 MSTORE PUSH1 0x20 PUSH1 0x0 KECCAK256 SWAP1 JUMPDEST DUP2 SLOAD DUP2 MSTORE SWAP1 PUSH1 0x1 ADD SWAP1 PUSH1 0x20 ADD DUP1 DUP4 GT PUSH2 0x2D1B JUMPI DUP3 SWAP1 SUB PUSH1 0x1F AND DUP3 ADD SWAP2 JUMPDEST POP POP POP POP POP SWAP1 POP PUSH2 0x106C JUMP JUMPDEST PUSH1 0x0 ADDRESS PUSH1 0x1 PUSH1 0x1 PUSH1 0xA0 SHL SUB PUSH32 0x0 AND EQ DUP1 ISZERO PUSH2 0x2D9D JUMPI POP PUSH32 0x0 CHAINID EQ JUMPDEST ISZERO PUSH2 0x2DC7 JUMPI POP PUSH32 0x0 SWAP1 JUMP JUMPDEST PUSH2 0x2967 PUSH1 0x40 DUP1 MLOAD PUSH32 0x8B73C3C69BB8FE3D512ECC4CF759CC79239F7B179B0FFACAA9A75D522B39400F PUSH1 0x20 DUP3 ADD MSTORE PUSH32 0x0 SWAP2 DUP2 ADD SWAP2 SWAP1 SWAP2 MSTORE PUSH32 0x0 PUSH1 0x60 DUP3 ADD MSTORE CHAINID PUSH1 0x80 DUP3 ADD MSTORE ADDRESS PUSH1 0xA0 DUP3 ADD MSTORE PUSH1 0x0 SWAP1 PUSH1 0xC0 ADD PUSH1 0x40 MLOAD PUSH1 0x20 DUP2 DUP4 SUB SUB DUP2 MSTORE SWAP1 PUSH1 0x40 MSTORE DUP1 MLOAD SWAP1 PUSH1 0x20 ADD KECCAK256 SWAP1 POP SWAP1 JUMP JUMPDEST PUSH1 0x0 DUP1 PUSH1 0x0 DUP4 MLOAD PUSH1 0x41 SUB PUSH2 0x2EA9 JUMPI PUSH1 0x20 DUP5 ADD MLOAD PUSH1 0x40 DUP6 ADD MLOAD PUSH1 0x60 DUP7 ADD MLOAD PUSH1 0x0 BYTE PUSH2 0x2E9B DUP9 DUP3 DUP6 DUP6 PUSH2 0x2FB4 JUMP JUMPDEST SWAP6 POP SWAP6 POP SWAP6 POP POP POP POP PUSH2 0x2EB5 JUMP JUMPDEST POP POP DUP2 MLOAD PUSH1 0x0 SWAP2 POP PUSH1 0x2 SWAP1 JUMPDEST SWAP3 POP SWAP3 POP SWAP3 JUMP JUMPDEST PUSH1 0x0 DUP3 PUSH1 0x3 DUP2 GT ISZERO PUSH2 0x2ED0 JUMPI PUSH2 0x2ED0 PUSH2 0x3A84 JUMP JUMPDEST SUB PUSH2 0x2ED9 JUMPI POP POP JUMP JUMPDEST PUSH1 0x1 DUP3 PUSH1 0x3 DUP2 GT ISZERO PUSH2 0x2EED JUMPI PUSH2 0x2EED PUSH2 0x3A84 JUMP JUMPDEST SUB PUSH2 0x2F0B JUMPI PUSH1 0x40 MLOAD PUSH4 0xF645EEDF PUSH1 0xE0 SHL DUP2 MSTORE PUSH1 0x4 ADD PUSH1 0x40 MLOAD DUP1 SWAP2 SUB SWAP1 REVERT JUMPDEST PUSH1 0x2 DUP3 PUSH1 0x3 DUP2 GT ISZERO PUSH2 0x2F1F JUMPI PUSH2 0x2F1F PUSH2 0x3A84 JUMP JUMPDEST SUB PUSH2 0x2F40 JUMPI PUSH1 0x40 MLOAD PUSH4 0xFCE698F7 PUSH1 0xE0 SHL DUP2 MSTORE PUSH1 0x4 DUP2 ADD DUP3 SWAP1 MSTORE PUSH1 0x24 ADD PUSH2 0x6EF JUMP JUMPDEST PUSH1 0x3 DUP3 PUSH1 0x3 DUP2 GT ISZERO PUSH2 0x2F54 JUMPI PUSH2 0x2F54 PUSH2 0x3A84 JUMP JUMPDEST SUB PUSH2 0x939 JUMPI PUSH1 0x40 MLOAD PUSH4 0x35E2F383 PUSH1 0xE2 SHL DUP2 MSTORE PUSH1 0x4 DUP2 ADD DUP3 SWAP1 MSTORE PUSH1 0x24 ADD PUSH2 0x6EF JUMP JUMPDEST PUSH1 0x60 PUSH1 0x0 PUSH2 0x2F82 DUP4 PUSH2 0x3083 JUMP JUMPDEST PUSH1 0x40 DUP1 MLOAD PUSH1 0x20 DUP1 DUP3 MSTORE DUP2 DUP4 ADD SWAP1 SWAP3 MSTORE SWAP2 SWAP3 POP PUSH1 0x0 SWAP2 SWAP1 PUSH1 0x20 DUP3 ADD DUP2 DUP1 CALLDATASIZE DUP4 CALLDATACOPY POP POP POP SWAP2 DUP3 MSTORE POP PUSH1 0x20 DUP2 ADD SWAP3 SWAP1 SWAP3 MSTORE POP SWAP1 JUMP JUMPDEST PUSH1 0x0 DUP1 DUP1 PUSH32 0x7FFFFFFFFFFFFFFFFFFFFFFFFFFFFFFF5D576E7357A4501DDFE92F46681B20A0 DUP5 GT ISZERO PUSH2 0x2FEF JUMPI POP PUSH1 0x0 SWAP2 POP PUSH1 0x3 SWAP1 POP DUP3 PUSH2 0x3079 JUMP JUMPDEST PUSH1 0x40 DUP1 MLOAD PUSH1 0x0 DUP1 DUP3 MSTORE PUSH1 0x20 DUP3 ADD DUP1 DUP5 MSTORE DUP11 SWAP1 MSTORE PUSH1 0xFF DUP10 AND SWAP3 DUP3 ADD SWAP3 SWAP1 SWAP3 MSTORE PUSH1 0x60 DUP2 ADD DUP8 SWAP1 MSTORE PUSH1 0x80 DUP2 ADD DUP7 SWAP1 MSTORE PUSH1 0x1 SWAP1 PUSH1 0xA0 ADD PUSH1 0x20 PUSH1 0x40 MLOAD PUSH1 0x20 DUP2 SUB SWAP1 DUP1 DUP5 SUB SWAP1 DUP6 GAS STATICCALL ISZERO DUP1 ISZERO PUSH2 0x3043 JUMPI RETURNDATASIZE PUSH1 0x0 DUP1 RETURNDATACOPY RETURNDATASIZE PUSH1 0x0 REVERT JUMPDEST POP POP PUSH1 0x40 MLOAD PUSH1 0x1F NOT ADD MLOAD SWAP2 POP POP PUSH1 0x1 PUSH1 0x1 PUSH1 0xA0 SHL SUB DUP2 AND PUSH2 0x306F JUMPI POP PUSH1 0x0 SWAP3 POP PUSH1 0x1 SWAP2 POP DUP3 SWAP1 POP PUSH2 0x3079 JUMP JUMPDEST SWAP3 POP PUSH1 0x0 SWAP2 POP DUP2 SWAP1 POP JUMPDEST SWAP5 POP SWAP5 POP SWAP5 SWAP2 POP POP JUMP JUMPDEST PUSH1 0x0 PUSH1 0xFF DUP3 AND PUSH1 0x1F DUP2 GT ISZERO PUSH2 0x106C JUMPI PUSH1 0x40 MLOAD PUSH4 0x2CD44AC3 PUSH1 0xE2 SHL DUP2 MSTORE PUSH1 0x4 ADD PUSH1 0x40 MLOAD DUP1 SWAP2 SUB SWAP1 REVERT JUMPDEST DUP3 DUP1 SLOAD DUP3 DUP3 SSTORE SWAP1 PUSH1 0x0 MSTORE PUSH1 0x20 PUSH1 0x0 KECCAK256 SWAP1 DUP2 ADD SWAP3 DUP3 ISZERO PUSH2 0x3100 JUMPI SWAP2 PUSH1 0x20 MUL DUP3 ADD JUMPDEST DUP3 DUP2 GT ISZERO PUSH2 0x3100 JUMPI DUP3 MLOAD DUP3 SLOAD PUSH1 0x1 PUSH1 0x1 PUSH1 0xA0 SHL SUB NOT AND PUSH1 0x1 PUSH1 0x1 PUSH1 0xA0 SHL SUB SWAP1 SWAP2 AND OR DUP3 SSTORE PUSH1 0x20 SWAP1 SWAP3 ADD SWAP2 PUSH1 0x1 SWAP1 SWAP2 ADD SWAP1 PUSH2 0x30CB JUMP JUMPDEST POP PUSH2 0x310C SWAP3 SWAP2 POP PUSH2 0x3110 JUMP JUMPDEST POP SWAP1 JUMP JUMPDEST JUMPDEST DUP1 DUP3 GT ISZERO PUSH2 0x310C JUMPI PUSH1 0x0 DUP2 SSTORE PUSH1 0x1 ADD PUSH2 0x3111 JUMP JUMPDEST DUP1 CALLDATALOAD PUSH1 0x1 PUSH1 0x1 PUSH1 0xA0 SHL SUB DUP2 AND DUP2 EQ PUSH2 0x313C JUMPI PUSH1 0x0 DUP1 REVERT JUMPDEST SWAP2 SWAP1 POP JUMP JUMPDEST PUSH1 0x0 DUP1 PUSH1 0x40 DUP4 DUP6 SUB SLT ISZERO PUSH2 0x3154 JUMPI PUSH1 0x0 DUP1 REVERT JUMPDEST PUSH2 0x315D DUP4 PUSH2 0x3125 JUMP JUMPDEST SWAP5 PUSH1 0x20 SWAP4 SWAP1 SWAP4 ADD CALLDATALOAD SWAP4 POP POP POP JUMP JUMPDEST PUSH1 0x0 PUSH1 0x20 DUP3 DUP5 SUB SLT ISZERO PUSH2 0x317D JUMPI PUSH1 0x0 DUP1 REVERT JUMPDEST POP CALLDATALOAD SWAP2 SWAP1 POP JUMP JUMPDEST PUSH1 0x0 DUP2 MLOAD DUP1 DUP5 MSTORE PUSH1 0x0 JUMPDEST DUP2 DUP2 LT ISZERO PUSH2 0x31AA JUMPI PUSH1 0x20 DUP2 DUP6 ADD DUP2 ADD MLOAD DUP7 DUP4 ADD DUP3 ADD MSTORE ADD PUSH2 0x318E JUMP JUMPDEST POP PUSH1 0x0 PUSH1 0x20 DUP3 DUP7 ADD ADD MSTORE PUSH1 0x20 PUSH1 0x1F NOT PUSH1 0x1F DUP4 ADD AND DUP6 ADD ADD SWAP2 POP POP SWAP3 SWAP2 POP POP JUMP JUMPDEST PUSH1 0x0 PUSH2 0x120 DUP12 DUP4 MSTORE DUP1 PUSH1 0x20 DUP5 ADD MSTORE PUSH2 0x31E4 DUP2 DUP5 ADD DUP13 PUSH2 0x3184 JUMP JUMPDEST PUSH1 0x40 DUP5 ADD SWAP11 SWAP1 SWAP11 MSTORE POP POP PUSH1 0x60 DUP2 ADD SWAP7 SWAP1 SWAP7 MSTORE PUSH1 0x80 DUP7 ADD SWAP5 SWAP1 SWAP5 MSTORE PUSH1 0xA0 DUP6 ADD SWAP3 SWAP1 SWAP3 MSTORE PUSH1 0x1 PUSH1 0x1 PUSH1 0xA0 SHL SUB AND PUSH1 0xC0 DUP5 ADD MSTORE ISZERO ISZERO PUSH1 0xE0 DUP4 ADD MSTORE ISZERO ISZERO PUSH2 0x100 SWAP1 SWAP2 ADD MSTORE SWAP3 SWAP2 POP POP JUMP JUMPDEST PUSH4 0x4E487B71 PUSH1 0xE0 SHL PUSH1 0x0 MSTORE PUSH1 0x41 PUSH1 0x4 MSTORE PUSH1 0x24 PUSH1 0x0 REVERT JUMPDEST PUSH1 0x40 MLOAD PUSH1 0xA0 DUP2 ADD PUSH8 0xFFFFFFFFFFFFFFFF DUP2 GT DUP3 DUP3 LT OR ISZERO PUSH2 0x3263 JUMPI PUSH2 0x3263 PUSH2 0x322A JUMP JUMPDEST PUSH1 0x40 MSTORE SWAP1 JUMP JUMPDEST PUSH1 0x0 DUP3 PUSH1 0x1F DUP4 ADD SLT PUSH2 0x327A JUMPI PUSH1 0x0 DUP1 REVERT JUMPDEST DUP2 CALLDATALOAD PUSH8 0xFFFFFFFFFFFFFFFF DUP1 DUP3 GT ISZERO PUSH2 0x3295 JUMPI PUSH2 0x3295 PUSH2 0x322A JUMP JUMPDEST PUSH1 0x40 MLOAD PUSH1 0x1F DUP4 ADD PUSH1 0x1F NOT SWAP1 DUP2 AND PUSH1 0x3F ADD AND DUP2 ADD SWAP1 DUP3 DUP3 GT DUP2 DUP4 LT OR ISZERO PUSH2 0x32BD JUMPI PUSH2 0x32BD PUSH2 0x322A JUMP JUMPDEST DUP2 PUSH1 0x40 MSTORE DUP4 DUP2 MSTORE DUP7 PUSH1 0x20 DUP6 DUP9 ADD ADD GT ISZERO PUSH2 0x32D6 JUMPI PUSH1 0x0 DUP1 REVERT JUMPDEST DUP4 PUSH1 0x20 DUP8 ADD PUSH1 0x20 DUP4 ADD CALLDATACOPY PUSH1 0x0 PUSH1 0x20 DUP6 DUP4 ADD ADD MSTORE DUP1 SWAP5 POP POP POP POP POP SWAP3 SWAP2 POP POP JUMP JUMPDEST PUSH1 0x0 DUP1 PUSH1 0x0 DUP1 PUSH1 0x80 DUP6 DUP8 SUB SLT ISZERO PUSH2 0x330C JUMPI PUSH1 0x0 DUP1 REVERT JUMPDEST DUP5 CALLDATALOAD PUSH8 0xFFFFFFFFFFFFFFFF DUP2 GT ISZERO PUSH2 0x3323 JUMPI PUSH1 0x0 DUP1 REVERT JUMPDEST PUSH2 0x332F DUP8 DUP3 DUP9 ADD PUSH2 0x3269 JUMP JUMPDEST SWAP8 PUSH1 0x20 DUP8 ADD CALLDATALOAD SWAP8 POP PUSH1 0x40 DUP8 ADD CALLDATALOAD SWAP7 PUSH1 0x60 ADD CALLDATALOAD SWAP6 POP SWAP4 POP POP POP POP JUMP JUMPDEST PUSH1 0x0 PUSH1 0x20 DUP3 DUP5 SUB SLT ISZERO PUSH2 0x335C JUMPI PUSH1 0x0 DUP1 REVERT JUMPDEST PUSH2 0x1069 DUP3 PUSH2 0x3125 JUMP JUMPDEST PUSH1 0x0 DUP2 MLOAD DUP1 DUP5 MSTORE PUSH1 0x20 DUP1 DUP6 ADD SWAP5 POP DUP1 DUP5 ADD PUSH1 0x0 JUMPDEST DUP4 DUP2 LT ISZERO PUSH2 0x3395 JUMPI DUP2 MLOAD DUP8 MSTORE SWAP6 DUP3 ADD SWAP6 SWAP1 DUP3 ADD SWAP1 PUSH1 0x1 ADD PUSH2 0x3379 JUMP JUMPDEST POP SWAP5 SWAP6 SWAP5 POP POP POP POP POP JUMP JUMPDEST PUSH1 0x20 DUP2 MSTORE PUSH1 0x0 PUSH2 0x1069 PUSH1 0x20 DUP4 ADD DUP5 PUSH2 0x3365 JUMP JUMPDEST PUSH1 0x0 DUP1 PUSH1 0x40 DUP4 DUP6 SUB SLT ISZERO PUSH2 0x33C6 JUMPI PUSH1 0x0 DUP1 REVERT JUMPDEST DUP3 CALLDATALOAD SWAP2 POP PUSH2 0x33D6 PUSH1 0x20 DUP5 ADD PUSH2 0x3125 JUMP JUMPDEST SWAP1 POP SWAP3 POP SWAP3 SWAP1 POP JUMP JUMPDEST PUSH1 0xFF PUSH1 0xF8 SHL DUP9 AND DUP2 MSTORE PUSH1 0xE0 PUSH1 0x20 DUP3 ADD MSTORE PUSH1 0x0 PUSH2 0x33FE PUSH1 0xE0 DUP4 ADD DUP10 PUSH2 0x3184 JUMP JUMPDEST DUP3 DUP2 SUB PUSH1 0x40 DUP5 ADD MSTORE PUSH2 0x3410 DUP2 DUP10 PUSH2 0x3184 JUMP JUMPDEST PUSH1 0x60 DUP5 ADD DUP9 SWAP1 MSTORE PUSH1 0x1 PUSH1 0x1 PUSH1 0xA0 SHL SUB DUP8 AND PUSH1 0x80 DUP6 ADD MSTORE PUSH1 0xA0 DUP5 ADD DUP7 SWAP1 MSTORE DUP4 DUP2 SUB PUSH1 0xC0 DUP6 ADD MSTORE SWAP1 POP PUSH2 0x3441 DUP2 DUP6 PUSH2 0x3365 JUMP JUMPDEST SWAP11 SWAP10 POP POP POP POP POP POP POP POP POP POP JUMP JUMPDEST PUSH1 0x0 DUP2 MLOAD DUP1 DUP5 MSTORE PUSH1 0x20 DUP1 DUP6 ADD SWAP5 POP DUP1 DUP5 ADD PUSH1 0x0 JUMPDEST DUP4 DUP2 LT ISZERO PUSH2 0x3395 JUMPI DUP2 MLOAD PUSH1 0x1 PUSH1 0x1 PUSH1 0xA0 SHL SUB AND DUP8 MSTORE SWAP6 DUP3 ADD SWAP6 SWAP1 DUP3 ADD SWAP1 PUSH1 0x1 ADD PUSH2 0x3463 JUMP JUMPDEST PUSH1 0x20 DUP2 MSTORE DUP2 MLOAD PUSH1 0x20 DUP3 ADD MSTORE PUSH1 0x0 PUSH1 0x20 DUP4 ADD MLOAD PUSH2 0x140 DUP1 PUSH1 0x40 DUP6 ADD MSTORE PUSH2 0x34B1 PUSH2 0x160 DUP6 ADD DUP4 PUSH2 0x3184 JUMP JUMPDEST SWAP2 POP PUSH1 0x40 DUP6 ADD MLOAD PUSH1 0x60 DUP6 ADD MSTORE PUSH1 0x60 DUP6 ADD MLOAD PUSH1 0x80 DUP6 ADD MSTORE PUSH1 0x80 DUP6 ADD MLOAD PUSH1 0xA0 DUP6 ADD MSTORE PUSH1 0xA0 DUP6 ADD MLOAD PUSH1 0xC0 DUP6 ADD MSTORE PUSH1 0xC0 DUP6 ADD MLOAD PUSH1 0x1F NOT DUP6 DUP5 SUB ADD PUSH1 0xE0 DUP7 ADD MSTORE PUSH2 0x34F6 DUP4 DUP3 PUSH2 0x344F JUMP JUMPDEST SWAP3 POP POP PUSH1 0xE0 DUP6 ADD MLOAD PUSH2 0x100 PUSH2 0x3515 DUP2 DUP8 ADD DUP4 PUSH1 0x1 PUSH1 0x1 PUSH1 0xA0 SHL SUB AND SWAP1 MSTORE JUMP JUMPDEST DUP7 ADD MLOAD SWAP1 POP PUSH2 0x120 PUSH2 0x352A DUP7 DUP3 ADD DUP4 ISZERO ISZERO SWAP1 MSTORE JUMP JUMPDEST SWAP1 SWAP6 ADD MLOAD ISZERO ISZERO SWAP4 ADD SWAP3 SWAP1 SWAP3 MSTORE POP SWAP2 SWAP1 POP JUMP JUMPDEST PUSH1 0x0 DUP1 PUSH1 0x0 DUP1 PUSH1 0x80 DUP6 DUP8 SUB SLT ISZERO PUSH2 0x3552 JUMPI PUSH1 0x0 DUP1 REVERT JUMPDEST DUP5 CALLDATALOAD SWAP4 POP PUSH1 0x20 DUP6 ADD CALLDATALOAD SWAP3 POP PUSH1 0x40 DUP6 ADD CALLDATALOAD SWAP2 POP PUSH1 0x60 DUP6 ADD CALLDATALOAD PUSH8 0xFFFFFFFFFFFFFFFF DUP2 GT ISZERO PUSH2 0x357E JUMPI PUSH1 0x0 DUP1 REVERT JUMPDEST PUSH2 0x358A DUP8 DUP3 DUP9 ADD PUSH2 0x3269 JUMP JUMPDEST SWAP2 POP POP SWAP3 SWAP6 SWAP2 SWAP5 POP SWAP3 POP JUMP JUMPDEST PUSH1 0x0 PUSH1 0x20 DUP3 DUP5 SUB SLT ISZERO PUSH2 0x35A8 JUMPI PUSH1 0x0 DUP1 REVERT JUMPDEST DUP2 CALLDATALOAD PUSH8 0xFFFFFFFFFFFFFFFF DUP1 DUP3 GT ISZERO PUSH2 0x35C0 JUMPI PUSH1 0x0 DUP1 REVERT JUMPDEST SWAP1 DUP4 ADD SWAP1 PUSH1 0xA0 DUP3 DUP7 SUB SLT ISZERO PUSH2 0x35D4 JUMPI PUSH1 0x0 DUP1 REVERT JUMPDEST PUSH2 0x35DC PUSH2 0x3240 JUMP JUMPDEST PUSH2 0x35E5 DUP4 PUSH2 0x3125 JUMP JUMPDEST DUP2 MSTORE PUSH1 0x20 DUP4 ADD CALLDATALOAD PUSH1 0x20 DUP3 ADD MSTORE PUSH1 0x40 DUP4 ADD CALLDATALOAD DUP3 DUP2 GT ISZERO PUSH2 0x3603 JUMPI PUSH1 0x0 DUP1 REVERT JUMPDEST PUSH2 0x360F DUP8 DUP3 DUP7 ADD PUSH2 0x3269 JUMP JUMPDEST PUSH1 0x40 DUP4 ADD MSTORE POP PUSH1 0x60 DUP4 ADD CALLDATALOAD PUSH1 0x60 DUP3 ADD MSTORE PUSH1 0x80 DUP4 ADD CALLDATALOAD DUP3 DUP2 GT ISZERO PUSH2 0x3631 JUMPI PUSH1 0x0 DUP1 REVERT JUMPDEST PUSH2 0x363D DUP8 DUP3 DUP7 ADD PUSH2 0x3269 JUMP JUMPDEST PUSH1 0x80 DUP4 ADD MSTORE POP SWAP6 SWAP5 POP POP POP POP POP JUMP JUMPDEST PUSH1 0x0 PUSH1 0x20 DUP3 DUP5 SUB SLT ISZERO PUSH2 0x365E JUMPI PUSH1 0x0 DUP1 REVERT JUMPDEST DUP2 CALLDATALOAD PUSH8 0xFFFFFFFFFFFFFFFF DUP1 DUP3 GT ISZERO PUSH2 0x3676 JUMPI PUSH1 0x0 DUP1 REVERT JUMPDEST SWAP1 DUP4 ADD SWAP1 PUSH1 0x80 DUP3 DUP7 SUB SLT ISZERO PUSH2 0x368A JUMPI PUSH1 0x0 DUP1 REVERT JUMPDEST PUSH1 0x40 MLOAD PUSH1 0x80 DUP2 ADD DUP2 DUP2 LT DUP4 DUP3 GT OR ISZERO PUSH2 0x36A5 JUMPI PUSH2 0x36A5 PUSH2 0x322A JUMP JUMPDEST PUSH1 0x40 MSTORE DUP3 CALLDATALOAD DUP2 MSTORE PUSH2 0x36B8 PUSH1 0x20 DUP5 ADD PUSH2 0x3125 JUMP JUMPDEST PUSH1 0x20 DUP3 ADD MSTORE PUSH1 0x40 DUP4 ADD CALLDATALOAD PUSH1 0x40 DUP3 ADD MSTORE PUSH1 0x60 DUP4 ADD CALLDATALOAD DUP3 DUP2 GT ISZERO PUSH2 0x36D9 JUMPI PUSH1 0x0 DUP1 REVERT JUMPDEST PUSH2 0x36E5 DUP8 DUP3 DUP7 ADD PUSH2 0x3269 JUMP JUMPDEST PUSH1 0x60 DUP4 ADD MSTORE POP SWAP6 SWAP5 POP POP POP POP POP JUMP JUMPDEST PUSH1 0x20 DUP1 DUP3 MSTORE PUSH1 0x1F SWAP1 DUP3 ADD MSTORE PUSH32 0x446562617465506F6F6C56323A20496E76616C69642064656261746520494400 PUSH1 0x40 DUP3 ADD MSTORE PUSH1 0x60 ADD SWAP1 JUMP JUMPDEST PUSH4 0x4E487B71 PUSH1 0xE0 SHL PUSH1 0x0 MSTORE PUSH1 0x11 PUSH1 0x4 MSTORE PUSH1 0x24 PUSH1 0x0 REVERT JUMPDEST DUP1 DUP3 ADD DUP1 DUP3 GT ISZERO PUSH2 0x106C JUMPI PUSH2 0x106C PUSH2 0x372B JUMP JUMPDEST PUSH4 0x4E487B71 PUSH1 0xE0 SHL PUSH1 0x0 MSTORE PUSH1 0x32 PUSH1 0x4 MSTORE PUSH1 0x24 PUSH1 0x0 REVERT JUMPDEST PUSH1 0x1 PUSH1 0x1 PUSH1 0xA0 SHL SUB SWAP3 SWAP1 SWAP3 AND DUP3 MSTORE PUSH1 0x20 DUP3 ADD MSTORE PUSH1 0x40 ADD SWAP1 JUMP JUMPDEST PUSH1 0x0 PUSH1 0x20 DUP3 DUP5 SUB SLT ISZERO PUSH2 0x3795 JUMPI PUSH1 0x0 DUP1 REVERT JUMPDEST DUP2 MLOAD DUP1 ISZERO ISZERO DUP2 EQ PUSH2 0x37A5 JUMPI PUSH1 0x0 DUP1 REVERT JUMPDEST SWAP4 SWAP3 POP POP POP JUMP JUMPDEST PUSH1 0x0 PUSH1 0x1 DUP3 ADD PUSH2 0x37BE JUMPI PUSH2 0x37BE PUSH2 0x372B JUMP JUMPDEST POP PUSH1 0x1 ADD SWAP1 JUMP JUMPDEST PUSH1 0x1 DUP2 DUP2 SHR SWAP1 DUP3 AND DUP1 PUSH2 0x37D9 JUMPI PUSH1 0x7F DUP3 AND SWAP2 POP JUMPDEST PUSH1 0x20 DUP3 LT DUP2 SUB PUSH2 0x12C9 JUMPI PUSH4 0x4E487B71 PUSH1 0xE0 SHL PUSH1 0x0 MSTORE PUSH1 0x22 PUSH1 0x4 MSTORE PUSH1 0x24 PUSH1 0x0 REVERT JUMPDEST PUSH1 0x1F DUP3 GT ISZERO PUSH2 0x3843 JUMPI PUSH1 0x0 DUP2 DUP2 MSTORE PUSH1 0x20 DUP2 KECCAK256 PUSH1 0x1F DUP6 ADD PUSH1 0x5 SHR DUP2 ADD PUSH1 0x20 DUP7 LT ISZERO PUSH2 0x3820 JUMPI POP DUP1 JUMPDEST PUSH1 0x1F DUP6 ADD PUSH1 0x5 SHR DUP3 ADD SWAP2 POP JUMPDEST DUP2 DUP2 LT ISZERO PUSH2 0x383F JUMPI DUP3 DUP2 SSTORE PUSH1 0x1 ADD PUSH2 0x382C JUMP JUMPDEST POP POP POP JUMPDEST POP POP POP JUMP JUMPDEST DUP2 MLOAD PUSH8 0xFFFFFFFFFFFFFFFF DUP2 GT ISZERO PUSH2 0x3862 JUMPI PUSH2 0x3862 PUSH2 0x322A JUMP JUMPDEST PUSH2 0x3876 DUP2 PUSH2 0x3870 DUP5 SLOAD PUSH2 0x37C5 JUMP JUMPDEST DUP5 PUSH2 0x37F9 JUMP JUMPDEST PUSH1 0x20 DUP1 PUSH1 0x1F DUP4 GT PUSH1 0x1 DUP2 EQ PUSH2 0x38AB JUMPI PUSH1 0x0 DUP5 ISZERO PUSH2 0x3893 JUMPI POP DUP6 DUP4 ADD MLOAD JUMPDEST PUSH1 0x0 NOT PUSH1 0x3 DUP7 SWAP1 SHL SHR NOT AND PUSH1 0x1 DUP6 SWAP1 SHL OR DUP6 SSTORE PUSH2 0x383F JUMP JUMPDEST PUSH1 0x0 DUP6 DUP2 MSTORE PUSH1 0x20 DUP2 KECCAK256 PUSH1 0x1F NOT DUP7 AND SWAP2 JUMPDEST DUP3 DUP2 LT ISZERO PUSH2 0x38DA JUMPI DUP9 DUP7 ADD MLOAD DUP3 SSTORE SWAP5 DUP5 ADD SWAP5 PUSH1 0x1 SWAP1 SWAP2 ADD SWAP1 DUP5 ADD PUSH2 0x38BB JUMP JUMPDEST POP DUP6 DUP3 LT ISZERO PUSH2 0x38F8 JUMPI DUP8 DUP6 ADD MLOAD PUSH1 0x0 NOT PUSH1 0x3 DUP9 SWAP1 SHL PUSH1 0xF8 AND SHR NOT AND DUP2 SSTORE JUMPDEST POP POP POP POP POP PUSH1 0x1 SWAP1 DUP2 SHL ADD SWAP1 SSTORE POP JUMP JUMPDEST PUSH1 0x40 DUP2 MSTORE PUSH1 0x0 PUSH2 0x391B PUSH1 0x40 DUP4 ADD DUP6 PUSH2 0x3184 JUMP JUMPDEST SWAP1 POP DUP3 PUSH1 0x20 DUP4 ADD MSTORE SWAP4 SWAP3 POP POP POP JUMP JUMPDEST PUSH1 0x20 DUP1 DUP3 MSTORE PUSH1 0x1F SWAP1 DUP3 ADD MSTORE PUSH32 0x446562617465506F6F6C56323A20496E76616C6964207369676E617475726500 PUSH1 0x40 DUP3 ADD MSTORE PUSH1 0x60 ADD SWAP1 JUMP JUMPDEST DUP1 DUP3 MUL DUP2 ISZERO DUP3 DUP3 DIV DUP5 EQ OR PUSH2 0x106C JUMPI PUSH2 0x106C PUSH2 0x372B JUMP JUMPDEST PUSH1 0x0 DUP3 PUSH2 0x3995 JUMPI PUSH4 0x4E487B71 PUSH1 0xE0 SHL PUSH1 0x0 MSTORE PUSH1 0x12 PUSH1 0x4 MSTORE PUSH1 0x24 PUSH1 0x0 REVERT JUMPDEST POP DIV SWAP1 JUMP JUMPDEST PUSH1 0x20 DUP1 DUP3 MSTORE PUSH1 0x25 SWAP1 DUP3 ADD MSTORE PUSH32 0x446562617465506F6F6C56323A2057696E6E657220616C726561647920646563 PUSH1 0x40 DUP3 ADD MSTORE PUSH5 0x1B185C9959 PUSH1 0xDA SHL PUSH1 0x60 DUP3 ADD MSTORE PUSH1 0x80 ADD SWAP1 JUMP JUMPDEST DUP3 DUP2 MSTORE PUSH1 0x40 PUSH1 0x20 DUP3 ADD MSTORE PUSH1 0x0 PUSH2 0x39F8 PUSH1 0x40 DUP4 ADD DUP5 PUSH2 0x3184 JUMP JUMPDEST SWAP5 SWAP4 POP POP POP POP JUMP JUMPDEST PUSH1 0x0 PUSH1 0x20 DUP3 DUP5 SUB SLT ISZERO PUSH2 0x3A12 JUMPI PUSH1 0x0 DUP1 REVERT JUMPDEST POP MLOAD SWAP2 SWAP1 POP JUMP JUMPDEST PUSH1 0x20 DUP1 DUP3 MSTORE PUSH1 0x22 SWAP1 DUP3 ADD MSTORE PUSH32 0x446562617465506F6F6C56323A20446562617465206973206E6F742061637469 PUSH1 0x40 DUP3 ADD MSTORE PUSH2 0x7665 PUSH1 0xF0 SHL PUSH1 0x60 DUP3 ADD MSTORE PUSH1 0x80 ADD SWAP1 JUMP JUMPDEST DUP2 DUP2 SUB DUP2 DUP2 GT ISZERO PUSH2 0x106C JUMPI PUSH2 0x106C PUSH2 0x372B JUMP JUMPDEST PUSH4 0x4E487B71 PUSH1 0xE0 SHL PUSH1 0x0 MSTORE PUSH1 0x31 PUSH1 0x4 MSTORE PUSH1 0x24 PUSH1 0x0 REVERT JUMPDEST PUSH4 0x4E487B71 PUSH1 0xE0 SHL PUSH1 0x0 MSTORE PUSH1 0x21 PUSH1 0x4 MSTORE PUSH1 0x24 PUSH1 0x0 REVERT INVALID 0x4C ADDRESS DUP10 SELFBALANCE PUSH29 0xDA1AC100291A040B3AC97FF5F55B6D8B2ACFB56A59B9419D95CE04A264 PUSH10 0x70667358221220CA19DF 0x4D 0x23 PUSH2 0xD55C 0xBC 0x2C DUP10 PUSH3 0x3F6FA9 0xEE 0xD5 GASLIMIT 0x25 SLOAD CALL PC CREATE2 0xCB SWAP10 0xAF 0xD9 SWAP10 0xAE DUP2 PUSH18 0x5C64736F6C63430008140033000000000000 "},"gasEstimates":{"creation":{"codeDepositCost":"3017600","executionCost":"infinite","totalCost":"infinite"},"external":{"BASIS_POINTS()":"306","DEBATE_PARTICIPATION_POINTS()":"350","DEBATE_WINNER_POINTS()":"284","LIKE_POINTS()":"308","PLATFORM_FEE_PERCENTAGE()":"286","REFUND_PERIOD()":"306","SHARE_POINTS()":"349","TIMEOUT_PERIOD()":"305","airdropClaimed(address)":"2568","airdropEnabled()":"2373","airdropSnapshotBlock()":"2429","airdropToken()":"2372","awardLikePoints((address,uint256,string,uint256,bytes))":"infinite","awardPoints((address,uint256,string,uint256,bytes))":"infinite","awardSharePoints((address,uint256,string,uint256,bytes))":"infinite","claimAirdrop(uint256,uint256,bytes32,bytes)":"infinite","createDebate(string,uint256,uint256,uint256)":"infinite","debates(uint256)":"infinite","declareWinner((uint256,address,uint256,bytes))":"infinite","eip712Domain()":"infinite","emergencyPaused()":"2378","emergencyRefund(uint256)":"infinite","getDebate(uint256)":"infinite","getUserDebates(address)":"infinite","getUserPoints(address)":"2675","isParticipant(uint256,address)":"infinite","joinDebate(uint256)":"infinite","nextDebateId()":"2385","oracle()":"infinite","owner()":"2366","processExpiredDebate(uint256)":"infinite","refundDeadlines(uint256)":"2570","renounceOwnership()":"infinite","requestRefund(uint256)":"infinite","setupAirdrop(address,uint256)":"72829","toggleEmergencyPause()":"27691","totalAirdropAmount()":"2340","transferOwnership(address)":"28384","usdcToken()":"infinite","userDebates(address,uint256)":"4879","userPoints(address)":"2589","withdrawPlatformFees()":"infinite"},"internal":{"_isParticipant(uint256,address)":"infinite","_removeParticipant(uint256,address)":"infinite","_verifyPointsAward(struct DebatePoolV2.PointsAward memory)":"infinite","_verifyWinnerResult(struct DebatePoolV2.WinnerResult memory)":"infinite","verifyPointsSignature(bytes32,bytes memory)":"infinite"}},"methodIdentifiers":{"BASIS_POINTS()":"e1f1c4a7","DEBATE_PARTICIPATION_POINTS()":"8c7971c5","DEBATE_WINNER_POINTS()":"b68c72b9","LIKE_POINTS()":"1c2155d6","PLATFORM_FEE_PERCENTAGE()":"15548232","REFUND_PERIOD()":"7f6578d3","SHARE_POINTS()":"fde59fa3","TIMEOUT_PERIOD()":"f5fce245","airdropClaimed(address)":"d1b6dd30","airdropEnabled()":"20104289","airdropSnapshotBlock()":"3a73d46e","airdropToken()":"4d06068a","awardLikePoints((address,uint256,string,uint256,bytes))":"dd915129","awardPoints((address,uint256,string,uint256,bytes))":"b0f3c981","awardSharePoints((address,uint256,string,uint256,bytes))":"be3d48c6","claimAirdrop(uint256,uint256,bytes32,bytes)":"a29cdc72","createDebate(string,uint256,uint256,uint256)":"5abead8a","debates(uint256)":"59758fcf","declareWinner((uint256,address,uint256,bytes))":"f0f58836","eip712Domain()":"84b0196e","emergencyPaused()":"27c830a9","emergencyRefund(uint256)":"70e5deb9","getDebate(uint256)":"98d336af","getUserDebates(address)":"704115ad","getUserPoints(address)":"aeefe31f","isParticipant(uint256,address)":"758d9b89","joinDebate(uint256)":"f5d8e5d9","nextDebateId()":"36195513","oracle()":"7dc0d1d0","owner()":"8da5cb5b","processExpiredDebate(uint256)":"36dc37ab","refundDeadlines(uint256)":"f67dc95f","renounceOwnership()":"715018a6","requestRefund(uint256)":"a4b2409e","setupAirdrop(address,uint256)":"dd8704c1","toggleEmergencyPause()":"147e291f","totalAirdropAmount()":"b073f687","transferOwnership(address)":"f2fde38b","usdcToken()":"11eac855","userDebates(address,uint256)":"1eca9561","userPoints(address)":"f50ddbc7","withdrawPlatformFees()":"d0b7830b"}},"storageLayout":{"storage":[{"astId":343,"contract":"contracts/DebatePoolV2.sol:DebatePoolV2","label":"_status","offset":0,"slot":"0","type":"t_uint256"},{"astId":8,"contract":"contracts/DebatePoolV2.sol:DebatePoolV2","label":"_owner","offset":0,"slot":"1","type":"t_address"},{"astId":2529,"contract":"contracts/DebatePoolV2.sol:DebatePoolV2","label":"_nameFallback","offset":0,"slot":"2","type":"t_string_storage"},{"astId":2531,"contract":"contracts/DebatePoolV2.sol:DebatePoolV2","label":"_versionFallback","offset":0,"slot":"3","type":"t_string_storage"},{"astId":6384,"contract":"contracts/DebatePoolV2.sol:DebatePoolV2","label":"nextDebateId","offset":0,"slot":"4","type":"t_uint256"},{"astId":6387,"contract":"contracts/DebatePoolV2.sol:DebatePoolV2","label":"emergencyPaused","offset":0,"slot":"5","type":"t_bool"},{"astId":6392,"contract":"contracts/DebatePoolV2.sol:DebatePoolV2","label":"debates","offset":0,"slot":"6","type":"t_mapping(t_uint256,t_struct(Debate)6514_storage)"},{"astId":6397,"contract":"contracts/DebatePoolV2.sol:DebatePoolV2","label":"userDebates","offset":0,"slot":"7","type":"t_mapping(t_address,t_array(t_uint256)dyn_storage)"},{"astId":6401,"contract":"contracts/DebatePoolV2.sol:DebatePoolV2","label":"refundDeadlines","offset":0,"slot":"8","type":"t_mapping(t_uint256,t_uint256)"},{"astId":6405,"contract":"contracts/DebatePoolV2.sol:DebatePoolV2","label":"userPoints","offset":0,"slot":"9","type":"t_mapping(t_address,t_uint256)"},{"astId":6408,"contract":"contracts/DebatePoolV2.sol:DebatePoolV2","label":"airdropToken","offset":0,"slot":"10","type":"t_contract(IERC20)250"},{"astId":6411,"contract":"contracts/DebatePoolV2.sol:DebatePoolV2","label":"airdropEnabled","offset":20,"slot":"10","type":"t_bool"},{"astId":6413,"contract":"contracts/DebatePoolV2.sol:DebatePoolV2","label":"airdropSnapshotBlock","offset":0,"slot":"11","type":"t_uint256"},{"astId":6415,"contract":"contracts/DebatePoolV2.sol:DebatePoolV2","label":"totalAirdropAmount","offset":0,"slot":"12","type":"t_uint256"},{"astId":6419,"contract":"contracts/DebatePoolV2.sol:DebatePoolV2","label":"airdropClaimed","offset":0,"slot":"13","type":"t_mapping(t_address,t_uint256)"}],"types":{"t_address":{"encoding":"inplace","label":"address","numberOfBytes":"20"},"t_array(t_address)dyn_storage":{"base":"t_address","encoding":"dynamic_array","label":"address[]","numberOfBytes":"32"},"t_array(t_uint256)dyn_storage":{"base":"t_uint256","encoding":"dynamic_array","label":"uint256[]","numberOfBytes":"32"},"t_bool":{"encoding":"inplace","label":"bool","numberOfBytes":"1"},"t_contract(IERC20)250":{"encoding":"inplace","label":"contract IERC20","numberOfBytes":"20"},"t_mapping(t_address,t_array(t_uint256)dyn_storage)":{"encoding":"mapping","key":"t_address","label":"mapping(address => uint256[])","numberOfBytes":"32","value":"t_array(t_uint256)dyn_storage"},"t_mapping(t_address,t_uint256)":{"encoding":"mapping","key":"t_address","label":"mapping(address => uint256)","numberOfBytes":"32","value":"t_uint256"},"t_mapping(t_uint256,t_struct(Debate)6514_storage)":{"encoding":"mapping","key":"t_uint256","label":"mapping(uint256 => struct DebatePoolV2.Debate)","numberOfBytes":"32","value":"t_struct(Debate)6514_storage"},"t_mapping(t_uint256,t_uint256)":{"encoding":"mapping","key":"t_uint256","label":"mapping(uint256 => uint256)","numberOfBytes":"32","value":"t_uint256"},"t_string_storage":{"encoding":"bytes","label":"string","numberOfBytes":"32"},"t_struct(Debate)6514_storage":{"encoding":"inplace","label":"struct DebatePoolV2.Debate","members":[{"astId":6494,"contract":"contracts/DebatePoolV2.sol:DebatePoolV2","label":"id","offset":0,"slot":"0","type":"t_uint256"},{"astId":6496,"contract":"contracts/DebatePoolV2.sol:DebatePoolV2","label":"topic","offset":0,"slot":"1","type":"t_string_storage"},{"astId":6498,"contract":"contracts/DebatePoolV2.sol:DebatePoolV2","label":"entryFee","offset":0,"slot":"2","type":"t_uint256"},{"astId":6500,"contract":"contracts/DebatePoolV2.sol:DebatePoolV2","label":"maxParticipants","offset":0,"slot":"3","type":"t_uint256"},{"astId":6502,"contract":"contracts/DebatePoolV2.sol:DebatePoolV2","label":"startTime","offset":0,"slot":"4","type":"t_uint256"},{"astId":6504,"contract":"contracts/DebatePoolV2.sol:DebatePoolV2","label":"endTime","offset":0,"slot":"5","type":"t_uint256"},{"astId":6507,"contract":"contracts/DebatePoolV2.sol:DebatePoolV2","label":"participants","offset":0,"slot":"6","type":"t_array(t_address)dyn_storage"},{"astId":6509,"contract":"contracts/DebatePoolV2.sol:DebatePoolV2","label":"winner","offset":0,"slot":"7","type":"t_address"},{"astId":6511,"contract":"contracts/DebatePoolV2.sol:DebatePoolV2","label":"isActive","offset":20,"slot":"7","type":"t_bool"},{"astId":6513,"contract":"contracts/DebatePoolV2.sol:DebatePoolV2","label":"isCompleted","offset":21,"slot":"7","type":"t_bool"}],"numberOfBytes":"256"},"t_uint256":{"encoding":"inplace","label":"uint256","numberOfBytes":"32"}}},"userdoc":{"kind":"user","methods":{},"notice":"Features automatic refunds, emergency controls, and airdrop-ready points system","version":1}}}}