{
  "_format": "hh-sol-artifact-1",
  "contractName": "MinimalDebatePool",
  "sourceName": "contracts/MinimalDebatePool.sol",
  "abi": [
    {
      "inputs": [
        {
          "internalType": "address",
          "name": "_usdcToken",
          "type": "address"
        },
        {
          "internalType": "address",
          "name": "_oracle",
          "type": "address"
        }
      ],
      "stateMutability": "nonpayable",
      "type": "constructor"
    },
    {
      "inputs": [],
      "name": "ECDSAInvalidSignature",
      "type": "error"
    },
    {
      "inputs": [
        {
          "internalType": "uint256",
          "name": "length",
          "type": "uint256"
        }
      ],
      "name": "ECDSAInvalidSignatureLength",
      "type": "error"
    },
    {
      "inputs": [
        {
          "internalType": "bytes32",
          "name": "s",
          "type": "bytes32"
        }
      ],
      "name": "ECDSAInvalidSignatureS",
      "type": "error"
    },
    {
      "inputs": [],
      "name": "InvalidShortString",
      "type": "error"
    },
    {
      "inputs": [
        {
          "internalType": "address",
          "name": "owner",
          "type": "address"
        }
      ],
      "name": "OwnableInvalidOwner",
      "type": "error"
    },
    {
      "inputs": [
        {
          "internalType": "address",
          "name": "account",
          "type": "address"
        }
      ],
      "name": "OwnableUnauthorizedAccount",
      "type": "error"
    },
    {
      "inputs": [],
      "name": "ReentrancyGuardReentrantCall",
      "type": "error"
    },
    {
      "inputs": [
        {
          "internalType": "string",
          "name": "str",
          "type": "string"
        }
      ],
      "name": "StringTooLong",
      "type": "error"
    },
    {
      "anonymous": false,
      "inputs": [
        {
          "indexed": true,
          "internalType": "uint256",
          "name": "debateId",
          "type": "uint256"
        }
      ],
      "name": "DebatePaused",
      "type": "event"
    },
    {
      "anonymous": false,
      "inputs": [],
      "name": "EIP712DomainChanged",
      "type": "event"
    },
    {
      "anonymous": false,
      "inputs": [
        {
          "indexed": true,
          "internalType": "uint256",
          "name": "debateId",
          "type": "uint256"
        },
        {
          "indexed": true,
          "internalType": "address",
          "name": "recipient",
          "type": "address"
        },
        {
          "indexed": false,
          "internalType": "uint256",
          "name": "amount",
          "type": "uint256"
        }
      ],
      "name": "EmergencyRefundProcessed",
      "type": "event"
    },
    {
      "anonymous": false,
      "inputs": [
        {
          "indexed": true,
          "internalType": "address",
          "name": "owner",
          "type": "address"
        },
        {
          "indexed": false,
          "internalType": "uint256",
          "name": "amount",
          "type": "uint256"
        }
      ],
      "name": "FeesWithdrawn",
      "type": "event"
    },
    {
      "anonymous": false,
      "inputs": [
        {
          "indexed": true,
          "internalType": "address",
          "name": "previousOwner",
          "type": "address"
        },
        {
          "indexed": true,
          "internalType": "address",
          "name": "newOwner",
          "type": "address"
        }
      ],
      "name": "OwnershipTransferred",
      "type": "event"
    },
    {
      "anonymous": false,
      "inputs": [
        {
          "indexed": false,
          "internalType": "bool",
          "name": "paused",
          "type": "bool"
        }
      ],
      "name": "PauseToggled",
      "type": "event"
    },
    {
      "anonymous": false,
      "inputs": [
        {
          "indexed": true,
          "internalType": "uint256",
          "name": "debateId",
          "type": "uint256"
        },
        {
          "indexed": true,
          "internalType": "address",
          "name": "recipient",
          "type": "address"
        },
        {
          "indexed": false,
          "internalType": "uint256",
          "name": "amount",
          "type": "uint256"
        }
      ],
      "name": "RefundProcessed",
      "type": "event"
    },
    {
      "anonymous": false,
      "inputs": [
        {
          "indexed": true,
          "internalType": "uint256",
          "name": "debateId",
          "type": "uint256"
        },
        {
          "indexed": true,
          "internalType": "address",
          "name": "winner",
          "type": "address"
        },
        {
          "indexed": false,
          "internalType": "uint256",
          "name": "winnerPrize",
          "type": "uint256"
        },
        {
          "indexed": false,
          "internalType": "uint256",
          "name": "platformFee",
          "type": "uint256"
        }
      ],
      "name": "WinnerDistributed",
      "type": "event"
    },
    {
      "inputs": [],
      "name": "BASIS_POINTS",
      "outputs": [
        {
          "internalType": "uint256",
          "name": "",
          "type": "uint256"
        }
      ],
      "stateMutability": "view",
      "type": "function"
    },
    {
      "inputs": [],
      "name": "MAX_REFUND_RECIPIENTS",
      "outputs": [
        {
          "internalType": "uint256",
          "name": "",
          "type": "uint256"
        }
      ],
      "stateMutability": "view",
      "type": "function"
    },
    {
      "inputs": [],
      "name": "PLATFORM_FEE_PERCENTAGE",
      "outputs": [
        {
          "internalType": "uint256",
          "name": "",
          "type": "uint256"
        }
      ],
      "stateMutability": "view",
      "type": "function"
    },
    {
      "inputs": [
        {
          "internalType": "uint256",
          "name": "",
          "type": "uint256"
        }
      ],
      "name": "completedDebates",
      "outputs": [
        {
          "internalType": "bool",
          "name": "",
          "type": "bool"
        }
      ],
      "stateMutability": "view",
      "type": "function"
    },
    {
      "inputs": [
        {
          "internalType": "uint256",
          "name": "debateId",
          "type": "uint256"
        },
        {
          "internalType": "address",
          "name": "winner",
          "type": "address"
        },
        {
          "internalType": "uint256",
          "name": "winnerPrize",
          "type": "uint256"
        },
        {
          "internalType": "bytes",
          "name": "signature",
          "type": "bytes"
        }
      ],
      "name": "distributeWinner",
      "outputs": [],
      "stateMutability": "nonpayable",
      "type": "function"
    },
    {
      "inputs": [],
      "name": "eip712Domain",
      "outputs": [
        {
          "internalType": "bytes1",
          "name": "fields",
          "type": "bytes1"
        },
        {
          "internalType": "string",
          "name": "name",
          "type": "string"
        },
        {
          "internalType": "string",
          "name": "version",
          "type": "string"
        },
        {
          "internalType": "uint256",
          "name": "chainId",
          "type": "uint256"
        },
        {
          "internalType": "address",
          "name": "verifyingContract",
          "type": "address"
        },
        {
          "internalType": "bytes32",
          "name": "salt",
          "type": "bytes32"
        },
        {
          "internalType": "uint256[]",
          "name": "extensions",
          "type": "uint256[]"
        }
      ],
      "stateMutability": "view",
      "type": "function"
    },
    {
      "inputs": [
        {
          "internalType": "uint256",
          "name": "debateId",
          "type": "uint256"
        },
        {
          "internalType": "address[]",
          "name": "recipients",
          "type": "address[]"
        },
        {
          "internalType": "uint256",
          "name": "refundAmount",
          "type": "uint256"
        }
      ],
      "name": "emergencyRefund",
      "outputs": [],
      "stateMutability": "nonpayable",
      "type": "function"
    },
    {
      "inputs": [],
      "name": "getContractBalance",
      "outputs": [
        {
          "internalType": "uint256",
          "name": "",
          "type": "uint256"
        }
      ],
      "stateMutability": "view",
      "type": "function"
    },
    {
      "inputs": [
        {
          "internalType": "uint256",
          "name": "debateId",
          "type": "uint256"
        }
      ],
      "name": "getPlatformFees",
      "outputs": [
        {
          "internalType": "uint256",
          "name": "",
          "type": "uint256"
        }
      ],
      "stateMutability": "view",
      "type": "function"
    },
    {
      "inputs": [
        {
          "internalType": "uint256",
          "name": "debateId",
          "type": "uint256"
        }
      ],
      "name": "isDebateCompleted",
      "outputs": [
        {
          "internalType": "bool",
          "name": "",
          "type": "bool"
        }
      ],
      "stateMutability": "view",
      "type": "function"
    },
    {
      "inputs": [],
      "name": "oracle",
      "outputs": [
        {
          "internalType": "address",
          "name": "",
          "type": "address"
        }
      ],
      "stateMutability": "view",
      "type": "function"
    },
    {
      "inputs": [],
      "name": "owner",
      "outputs": [
        {
          "internalType": "address",
          "name": "",
          "type": "address"
        }
      ],
      "stateMutability": "view",
      "type": "function"
    },
    {
      "inputs": [
        {
          "internalType": "uint256",
          "name": "debateId",
          "type": "uint256"
        }
      ],
      "name": "pauseDebate",
      "outputs": [],
      "stateMutability": "nonpayable",
      "type": "function"
    },
    {
      "inputs": [],
      "name": "paused",
      "outputs": [
        {
          "internalType": "bool",
          "name": "",
          "type": "bool"
        }
      ],
      "stateMutability": "view",
      "type": "function"
    },
    {
      "inputs": [
        {
          "internalType": "uint256",
          "name": "",
          "type": "uint256"
        }
      ],
      "name": "pausedDebates",
      "outputs": [
        {
          "internalType": "bool",
          "name": "",
          "type": "bool"
        }
      ],
      "stateMutability": "view",
      "type": "function"
    },
    {
      "inputs": [
        {
          "internalType": "uint256",
          "name": "",
          "type": "uint256"
        }
      ],
      "name": "platformFees",
      "outputs": [
        {
          "internalType": "uint256",
          "name": "",
          "type": "uint256"
        }
      ],
      "stateMutability": "view",
      "type": "function"
    },
    {
      "inputs": [
        {
          "internalType": "uint256",
          "name": "debateId",
          "type": "uint256"
        },
        {
          "internalType": "address[]",
          "name": "recipients",
          "type": "address[]"
        },
        {
          "internalType": "uint256",
          "name": "refundAmount",
          "type": "uint256"
        },
        {
          "internalType": "bytes",
          "name": "signature",
          "type": "bytes"
        }
      ],
      "name": "processRefund",
      "outputs": [],
      "stateMutability": "nonpayable",
      "type": "function"
    },
    {
      "inputs": [],
      "name": "renounceOwnership",
      "outputs": [],
      "stateMutability": "nonpayable",
      "type": "function"
    },
    {
      "inputs": [],
      "name": "togglePause",
      "outputs": [],
      "stateMutability": "nonpayable",
      "type": "function"
    },
    {
      "inputs": [
        {
          "internalType": "address",
          "name": "newOwner",
          "type": "address"
        }
      ],
      "name": "transferOwnership",
      "outputs": [],
      "stateMutability": "nonpayable",
      "type": "function"
    },
    {
      "inputs": [
        {
          "internalType": "uint256",
          "name": "debateId",
          "type": "uint256"
        }
      ],
      "name": "unpauseDebate",
      "outputs": [],
      "stateMutability": "nonpayable",
      "type": "function"
    },
    {
      "inputs": [],
      "name": "usdcToken",
      "outputs": [
        {
          "internalType": "contract IERC20",
          "name": "",
          "type": "address"
        }
      ],
      "stateMutability": "view",
      "type": "function"
    },
    {
      "inputs": [],
      "name": "withdrawAllFees",
      "outputs": [],
      "stateMutability": "nonpayable",
      "type": "function"
    },
    {
      "inputs": [
        {
          "internalType": "uint256",
          "name": "debateId",
          "type": "uint256"
        }
      ],
      "name": "withdrawDebateFees",
      "outputs": [],
      "stateMutability": "nonpayable",
      "type": "function"
    }
  ],
  "bytecode": "0x6101a06040523480156200001257600080fd5b50604051620027d2380380620027d2833981016040819052620000359162000333565b6040805180820182526011815270135a5b9a5b585b111958985d19541bdbdb607a1b60208083019190915282518084019093526001808452603160f81b91840191909152600055903380620000a557604051631e4fbdf760e01b8152600060048201526024015b60405180910390fd5b620000b08162000248565b50620000be8260026200029a565b61012052620000cf8160036200029a565b61014052815160208084019190912060e052815190820120610100524660a0526200015d60e05161010051604080517f8b73c3c69bb8fe3d512ecc4cf759cc79239f7b179b0ffacaa9a75d522b39400f60208201529081019290925260608201524660808201523060a082015260009060c00160405160208183030381529060405280519060200120905090565b60805250503060c0526001600160a01b038216620001cc5760405162461bcd60e51b815260206004820152602560248201527f4d696e696d616c446562617465506f6f6c3a20496e76616c69642055534443206044820152643a37b5b2b760d91b60648201526084016200009c565b6001600160a01b0381166200022e5760405162461bcd60e51b815260206004820152602160248201527f4d696e696d616c446562617465506f6f6c3a20496e76616c6964206f7261636c6044820152606560f81b60648201526084016200009c565b6001600160a01b0391821661016052166101805262000551565b600180546001600160a01b038381166001600160a01b0319831681179093556040519116919082907f8be0079c531659141344cd1fd0a4f28419497f9722a3daafe3b4186f6b6457e090600090a35050565b6000602083511015620002ba57620002b283620002d3565b9050620002cd565b81620002c7848262000410565b5060ff90505b92915050565b600080829050601f8151111562000301578260405163305a27a960e01b81526004016200009c9190620004dc565b80516200030e826200052c565b179392505050565b80516001600160a01b03811681146200032e57600080fd5b919050565b600080604083850312156200034757600080fd5b620003528362000316565b9150620003626020840162000316565b90509250929050565b634e487b7160e01b600052604160045260246000fd5b600181811c908216806200039657607f821691505b602082108103620003b757634e487b7160e01b600052602260045260246000fd5b50919050565b601f8211156200040b57600081815260208120601f850160051c81016020861015620003e65750805b601f850160051c820191505b818110156200040757828155600101620003f2565b5050505b505050565b81516001600160401b038111156200042c576200042c6200036b565b62000444816200043d845462000381565b84620003bd565b602080601f8311600181146200047c5760008415620004635750858301515b600019600386901b1c1916600185901b17855562000407565b600085815260208120601f198616915b82811015620004ad578886015182559484019460019091019084016200048c565b5085821015620004cc5787850151600019600388901b60f8161c191681555b5050505050600190811b01905550565b600060208083528351808285015260005b818110156200050b57858101830151858201604001528201620004ed565b506000604082860101526040601f19601f8301168501019250505092915050565b80516020808301519190811015620003b75760001960209190910360031b1b16919050565b60805160a05160c05160e05161010051610120516101405161016051610180516121bc620006166000396000818161026f01528181610393015281816110030152818161150f01526116a9015260008181610195015281816105350152818161067901528181610932015281816109db01528181610bae01528181610d86015281816111d0015261136e01526000611600015260006115d3015260006118c50152600061189d015260006117f8015260006118220152600061184c01526121bc6000f3fe608060405234801561001057600080fd5b50600436106101585760003560e01c806384b0196e116100c3578063afd3291a1161007c578063afd3291a1461031e578063bf0c611514610331578063c4ae316814610351578063d5ea25e514610359578063e1f1c4a71461036c578063f2fde38b1461037557600080fd5b806384b0196e146102915780638da5cb5b146102ac578063937145c4146102bd5780639a8a37d9146102e0578063a913bccf146102f3578063af236af41461031657600080fd5b80635c975abb116101155780635c975abb1461020757806364e58e55146102245780636d554a1c146102375780636f9fb98a1461025a578063715018a6146102625780637dc0d1d01461026a57600080fd5b80630594cff11461015d57806311eac8551461019057806315548232146101cf5780632c5854bd146101d75780633cdb647c146101ec57806355bb1245146101ff575b600080fd5b61017d61016b366004611b56565b60076020526000908152604090205481565b6040519081526020015b60405180910390f35b6101b77f000000000000000000000000000000000000000000000000000000000000000081565b6040516001600160a01b039091168152602001610187565b61017d601481565b6101ea6101e5366004611c5e565b610388565b005b6101ea6101fa366004611b56565b61082c565b61017d606481565b6004546102149060ff1681565b6040519015158152602001610187565b6101ea610232366004611cdb565b61084c565b610214610245366004611b56565b60056020526000908152604090205460ff1681565b61017d610b96565b6101ea610c26565b6101b77f000000000000000000000000000000000000000000000000000000000000000081565b610299610c3a565b6040516101879796959493929190611d74565b6001546001600160a01b03166101b7565b6102146102cb366004611b56565b60009081526005602052604090205460ff1690565b6101ea6102ee366004611b56565b610c80565b610214610301366004611b56565b60066020526000908152604090205460ff1681565b6101ea610ee2565b6101ea61032c366004611b56565b610f58565b61017d61033f366004611b56565b60009081526007602052604090205490565b6101ea610fa3565b6101ea610367366004611e26565b610ff8565b61017d61271081565b6101ea610383366004611e87565b61148c565b336001600160a01b037f000000000000000000000000000000000000000000000000000000000000000016146104055760405162461bcd60e51b815260206004820152601d60248201527f4d696e696d616c446562617465506f6f6c3a204e6f74206f7261636c6500000060448201526064015b60405180910390fd5b60045460ff16156104285760405162461bcd60e51b81526004016103fc90611ea9565b600085815260066020526040902054859060ff16156104595760405162461bcd60e51b81526004016103fc90611eeb565b6104616114c7565b60008681526005602052604090205460ff16156104905760405162461bcd60e51b81526004016103fc90611f20565b836104dd5760405162461bcd60e51b815260206004820181905260248201527f4d696e696d616c446562617465506f6f6c3a204e6f20726563697069656e747360448201526064016103fc565b60648411156104fe5760405162461bcd60e51b81526004016103fc90611f64565b6000831161051e5760405162461bcd60e51b81526004016103fc90611faa565b6040516370a0823160e01b815230600482015284907f00000000000000000000000000000000000000000000000000000000000000006001600160a01b0316906370a0823190602401602060405180830381865afa158015610584573d6000803e3d6000fd5b505050506040513d601f19601f820116820180604052508101906105a89190611ff2565b6105b2919061200b565b8311156105d15760405162461bcd60e51b81526004016103fc9061202d565b6000868686866040516020016105ea9493929190612077565b60405160208183030381529060405280519060200120905061060c81846114f1565b61066c5760405162461bcd60e51b815260206004820152602b60248201527f4d696e696d616c446562617465506f6f6c3a20496e76616c696420726566756e60448201526a64207369676e617475726560a81b60648201526084016103fc565b60005b85811015610818577f00000000000000000000000000000000000000000000000000000000000000006001600160a01b031663a9059cbb8888848181106106b8576106b86120d7565b90506020020160208101906106cd9190611e87565b6040516001600160e01b031960e084901b1681526001600160a01b039091166004820152602481018890526044016020604051808303816000875af115801561071a573d6000803e3d6000fd5b505050506040513d601f19601f8201168201806040525081019061073e91906120ed565b61079c5760405162461bcd60e51b815260206004820152602960248201527f4d696e696d616c446562617465506f6f6c3a20526566756e64207472616e7366604482015268195c8819985a5b195960ba1b60648201526084016103fc565b8686828181106107ae576107ae6120d7565b90506020020160208101906107c39190611e87565b6001600160a01b0316887f79ff6a60b3e21b3630b207e2a7b0b50b69b197d3d7ca776108ed2afb8fbac8dc876040516107fe91815260200190565b60405180910390a3806108108161210f565b91505061066f565b50506108246001600055565b505050505050565b61083461154d565b6000908152600660205260409020805460ff19169055565b61085461154d565b600084815260066020526040902054849060ff16156108855760405162461bcd60e51b81526004016103fc90611eeb565b61088d6114c7565b826108da5760405162461bcd60e51b815260206004820181905260248201527f4d696e696d616c446562617465506f6f6c3a204e6f20726563697069656e747360448201526064016103fc565b60648311156108fb5760405162461bcd60e51b81526004016103fc90611f64565b6000821161091b5760405162461bcd60e51b81526004016103fc90611faa565b6040516370a0823160e01b815230600482015283907f00000000000000000000000000000000000000000000000000000000000000006001600160a01b0316906370a0823190602401602060405180830381865afa158015610981573d6000803e3d6000fd5b505050506040513d601f19601f820116820180604052508101906109a59190611ff2565b6109af919061200b565b8211156109ce5760405162461bcd60e51b81526004016103fc9061202d565b60005b83811015610b84577f00000000000000000000000000000000000000000000000000000000000000006001600160a01b031663a9059cbb868684818110610a1a57610a1a6120d7565b9050602002016020810190610a2f9190611e87565b6040516001600160e01b031960e084901b1681526001600160a01b039091166004820152602481018690526044016020604051808303816000875af1158015610a7c573d6000803e3d6000fd5b505050506040513d601f19601f82011682018060405250810190610aa091906120ed565b610b085760405162461bcd60e51b815260206004820152603360248201527f4d696e696d616c446562617465506f6f6c3a20456d657267656e6379207265666044820152721d5b99081d1c985b9cd9995c8819985a5b1959606a1b60648201526084016103fc565b848482818110610b1a57610b1a6120d7565b9050602002016020810190610b2f9190611e87565b6001600160a01b0316867fb51590b14d7ff775e4f65d0b39c04d468432f4620479425016793418a2b0b7c385604051610b6a91815260200190565b60405180910390a380610b7c8161210f565b9150506109d1565b50610b8f6001600055565b5050505050565b6040516370a0823160e01b81523060048201526000907f00000000000000000000000000000000000000000000000000000000000000006001600160a01b0316906370a0823190602401602060405180830381865afa158015610bfd573d6000803e3d6000fd5b505050506040513d601f19601f82011682018060405250810190610c219190611ff2565b905090565b610c2e61154d565b610c38600061157a565b565b600060608060008060006060610c4e6115cc565b610c566115f9565b60408051600080825260208201909252600f60f81b9b939a50919850469750309650945092509050565b610c8861154d565b610c906114c7565b60008181526005602052604090205460ff16610cfe5760405162461bcd60e51b815260206004820152602760248201527f4d696e696d616c446562617465506f6f6c3a20446562617465206e6f7420636f6044820152661b5c1b195d195960ca1b60648201526084016103fc565b60008181526007602052604090205480610d6d5760405162461bcd60e51b815260206004820152602a60248201527f4d696e696d616c446562617465506f6f6c3a204e6f206665657320666f7220746044820152696869732064656261746560b01b60648201526084016103fc565b6000828152600760205260408120556001600160a01b037f00000000000000000000000000000000000000000000000000000000000000001663a9059cbb610dbd6001546001600160a01b031690565b6040516001600160e01b031960e084901b1681526001600160a01b039091166004820152602481018490526044016020604051808303816000875af1158015610e0a573d6000803e3d6000fd5b505050506040513d601f19601f82011682018060405250810190610e2e91906120ed565b610e865760405162461bcd60e51b8152602060048201526024808201527f4d696e696d616c446562617465506f6f6c3a205769746864726177616c2066616044820152631a5b195960e21b60648201526084016103fc565b6001546001600160a01b03166001600160a01b03167fc0819c13be868895eb93e40eaceb96de976442fa1d404e5c55f14bb65a8c489a82604051610ecc91815260200190565b60405180910390a250610edf6001600055565b50565b610eea61154d565b60405162461bcd60e51b815260206004820152603c60248201527f4d696e696d616c446562617465506f6f6c3a205573652077697468647261774460448201527f65626174654665657320696e737465616420666f72207361666574790000000060648201526084016103fc565b610f6061154d565b600081815260066020526040808220805460ff191660011790555182917f870dba420778cca92c8c9622fc2d7223cc466d73ba280c69695ed5cded3f707391a250565b610fab61154d565b6004805460ff8082161560ff1990921682179092556040519116151581527f9077d36bc00859b5c3f320310707208543dd35092cb0a0fe117d0c6a558b148b9060200160405180910390a1565b336001600160a01b037f000000000000000000000000000000000000000000000000000000000000000016146110705760405162461bcd60e51b815260206004820152601d60248201527f4d696e696d616c446562617465506f6f6c3a204e6f74206f7261636c6500000060448201526064016103fc565b60045460ff16156110935760405162461bcd60e51b81526004016103fc90611ea9565b600084815260066020526040902054849060ff16156110c45760405162461bcd60e51b81526004016103fc90611eeb565b6110cc6114c7565b60008581526005602052604090205460ff16156110fb5760405162461bcd60e51b81526004016103fc90611f20565b6001600160a01b03841661115b5760405162461bcd60e51b815260206004820152602160248201527f4d696e696d616c446562617465506f6f6c3a20496e76616c69642077696e6e656044820152603960f91b60648201526084016103fc565b600083116111bb5760405162461bcd60e51b815260206004820152602760248201527f4d696e696d616c446562617465506f6f6c3a20496e76616c6964207072697a6560448201526608185b5bdd5b9d60ca1b60648201526084016103fc565b6040516370a0823160e01b81523060048201527f00000000000000000000000000000000000000000000000000000000000000006001600160a01b0316906370a0823190602401602060405180830381865afa15801561121f573d6000803e3d6000fd5b505050506040513d601f19601f820116820180604052508101906112439190611ff2565b8311156112ac5760405162461bcd60e51b815260206004820152603160248201527f4d696e696d616c446562617465506f6f6c3a205072697a65206578636565647360448201527020636f6e74726163742062616c616e636560781b60648201526084016103fc565b6112b885858585611626565b6113105760405162461bcd60e51b8152602060048201526024808201527f4d696e696d616c446562617465506f6f6c3a20496e76616c6964207369676e616044820152637475726560e01b60648201526084016103fc565b6000858152600560205260408120805460ff1916600117905561133460048561200b565b600087815260076020526040908190208290555163a9059cbb60e01b81526001600160a01b038781166004830152602482018790529192507f00000000000000000000000000000000000000000000000000000000000000009091169063a9059cbb906044016020604051808303816000875af11580156113b9573d6000803e3d6000fd5b505050506040513d601f19601f820116820180604052508101906113dd91906120ed565b61143b5760405162461bcd60e51b815260206004820152602960248201527f4d696e696d616c446562617465506f6f6c3a2057696e6e6572207472616e7366604482015268195c8819985a5b195960ba1b60648201526084016103fc565b60408051858152602081018390526001600160a01b0387169188917fd3f49d39fce116e41c3551160c836c10c3e9d41dbec2727c3d777a51b0101a26910160405180910390a350610b8f6001600055565b61149461154d565b6001600160a01b0381166114be57604051631e4fbdf760e01b8152600060048201526024016103fc565b610edf8161157a565b6002600054036114ea57604051633ee5aeb560e01b815260040160405180910390fd5b6002600055565b6000806114fd846116e9565b9050600061150b8285611716565b90507f00000000000000000000000000000000000000000000000000000000000000006001600160a01b0316816001600160a01b031614925050505b92915050565b6001546001600160a01b03163314610c385760405163118cdaa760e01b81523360048201526024016103fc565b600180546001600160a01b038381166001600160a01b0319831681179093556040519116919082907f8be0079c531659141344cd1fd0a4f28419497f9722a3daafe3b4186f6b6457e090600090a35050565b6060610c217f00000000000000000000000000000000000000000000000000000000000000006002611740565b6060610c217f00000000000000000000000000000000000000000000000000000000000000006003611740565b604080517ff741712a4f7d3d4fb69b826261934aae106b684be117a68559e0a1b5a896cff060208201529081018590526001600160a01b038416606082015260808101839052600090819060a0016040516020818303038152906040528051906020012090506000611697826116e9565b905060006116a58286611716565b90507f00000000000000000000000000000000000000000000000000000000000000006001600160a01b0316816001600160a01b0316149350505050949350505050565b60006115476116f66117eb565b8360405161190160f01b8152600281019290925260228201526042902090565b6000806000806117268686611916565b9250925092506117368282611963565b5090949350505050565b606060ff831461175a5761175383611a20565b9050611547565b81805461176690612136565b80601f016020809104026020016040519081016040528092919081815260200182805461179290612136565b80156117df5780601f106117b4576101008083540402835291602001916117df565b820191906000526020600020905b8154815290600101906020018083116117c257829003601f168201915b50505050509050611547565b6000306001600160a01b037f00000000000000000000000000000000000000000000000000000000000000001614801561184457507f000000000000000000000000000000000000000000000000000000000000000046145b1561186e57507f000000000000000000000000000000000000000000000000000000000000000090565b610c21604080517f8b73c3c69bb8fe3d512ecc4cf759cc79239f7b179b0ffacaa9a75d522b39400f60208201527f0000000000000000000000000000000000000000000000000000000000000000918101919091527f000000000000000000000000000000000000000000000000000000000000000060608201524660808201523060a082015260009060c00160405160208183030381529060405280519060200120905090565b600080600083516041036119505760208401516040850151606086015160001a61194288828585611a5f565b95509550955050505061195c565b50508151600091506002905b9250925092565b600082600381111561197757611977612170565b03611980575050565b600182600381111561199457611994612170565b036119b25760405163f645eedf60e01b815260040160405180910390fd5b60028260038111156119c6576119c6612170565b036119e75760405163fce698f760e01b8152600481018290526024016103fc565b60038260038111156119fb576119fb612170565b03611a1c576040516335e2f38360e21b8152600481018290526024016103fc565b5050565b60606000611a2d83611b2e565b604080516020808252818301909252919250600091906020820181803683375050509182525060208101929092525090565b600080807f7fffffffffffffffffffffffffffffff5d576e7357a4501ddfe92f46681b20a0841115611a9a5750600091506003905082611b24565b604080516000808252602082018084528a905260ff891692820192909252606081018790526080810186905260019060a0016020604051602081039080840390855afa158015611aee573d6000803e3d6000fd5b5050604051601f1901519150506001600160a01b038116611b1a57506000925060019150829050611b24565b9250600091508190505b9450945094915050565b600060ff8216601f81111561154757604051632cd44ac360e21b815260040160405180910390fd5b600060208284031215611b6857600080fd5b5035919050565b60008083601f840112611b8157600080fd5b50813567ffffffffffffffff811115611b9957600080fd5b6020830191508360208260051b8501011115611bb457600080fd5b9250929050565b634e487b7160e01b600052604160045260246000fd5b600082601f830112611be257600080fd5b813567ffffffffffffffff80821115611bfd57611bfd611bbb565b604051601f8301601f19908116603f01168101908282118183101715611c2557611c25611bbb565b81604052838152866020858801011115611c3e57600080fd5b836020870160208301376000602085830101528094505050505092915050565b600080600080600060808688031215611c7657600080fd5b85359450602086013567ffffffffffffffff80821115611c9557600080fd5b611ca189838a01611b6f565b9096509450604088013593506060880135915080821115611cc157600080fd5b50611cce88828901611bd1565b9150509295509295909350565b60008060008060608587031215611cf157600080fd5b84359350602085013567ffffffffffffffff811115611d0f57600080fd5b611d1b87828801611b6f565b9598909750949560400135949350505050565b6000815180845260005b81811015611d5457602081850181015186830182015201611d38565b506000602082860101526020601f19601f83011685010191505092915050565b60ff60f81b881681526000602060e081840152611d9460e084018a611d2e565b8381036040850152611da6818a611d2e565b606085018990526001600160a01b038816608086015260a0850187905284810360c0860152855180825283870192509083019060005b81811015611df857835183529284019291840191600101611ddc565b50909c9b505050505050505050505050565b80356001600160a01b0381168114611e2157600080fd5b919050565b60008060008060808587031215611e3c57600080fd5b84359350611e4c60208601611e0a565b925060408501359150606085013567ffffffffffffffff811115611e6f57600080fd5b611e7b87828801611bd1565b91505092959194509250565b600060208284031215611e9957600080fd5b611ea282611e0a565b9392505050565b60208082526022908201527f4d696e696d616c446562617465506f6f6c3a20436f6e74726163742070617573604082015261195960f21b606082015260800190565b6020808252818101527f4d696e696d616c446562617465506f6f6c3a2044656261746520706175736564604082015260600190565b60208082526024908201527f4d696e696d616c446562617465506f6f6c3a20416c726561647920636f6d706c604082015263195d195960e21b606082015260800190565b60208082526026908201527f4d696e696d616c446562617465506f6f6c3a20546f6f206d616e7920726563696040820152657069656e747360d01b606082015260800190565b60208082526028908201527f4d696e696d616c446562617465506f6f6c3a20496e76616c696420726566756e6040820152671908185b5bdd5b9d60c21b606082015260800190565b60006020828403121561200457600080fd5b5051919050565b60008261202857634e487b7160e01b600052601260045260246000fd5b500490565b6020808252602a908201527f4d696e696d616c446562617465506f6f6c3a20526566756e6420616d6f756e7460408201526920746f6f206c6172676560b01b606082015260800190565b84815260606020808301829052908201849052600090859060808401835b878110156120c1576001600160a01b036120ae85611e0a565b1682529282019290820190600101612095565b5080935050505082604083015295945050505050565b634e487b7160e01b600052603260045260246000fd5b6000602082840312156120ff57600080fd5b81518015158114611ea257600080fd5b60006001820161212f57634e487b7160e01b600052601160045260246000fd5b5060010190565b600181811c9082168061214a57607f821691505b60208210810361216a57634e487b7160e01b600052602260045260246000fd5b50919050565b634e487b7160e01b600052602160045260246000fdfea26469706673582212208800baeee2d972effaf4ff71e875357c1899b38f5447dbbb850e4e9fc01f354464736f6c63430008140033",
  "linkReferences": {},
  "deployedLinkReferences": {}
}