{
  "_format": "hh-sol-artifact-1",
  "contractName": "DebatePoolV2",
  "sourceName": "contracts/DebatePoolV2.sol",
  "abi": [
    {
      "inputs": [
        {
          "internalType": "address",
          "name": "_usdcToken",
          "type": "address"
        },
        {
          "internalType": "address",
          "name": "_oracle",
          "type": "address"
        }
      ],
      "stateMutability": "nonpayable",
      "type": "constructor"
    },
    {
      "inputs": [],
      "name": "ECDSAInvalidSignature",
      "type": "error"
    },
    {
      "inputs": [
        {
          "internalType": "uint256",
          "name": "length",
          "type": "uint256"
        }
      ],
      "name": "ECDSAInvalidSignatureLength",
      "type": "error"
    },
    {
      "inputs": [
        {
          "internalType": "bytes32",
          "name": "s",
          "type": "bytes32"
        }
      ],
      "name": "ECDSAInvalidSignatureS",
      "type": "error"
    },
    {
      "inputs": [],
      "name": "InvalidShortString",
      "type": "error"
    },
    {
      "inputs": [
        {
          "internalType": "address",
          "name": "owner",
          "type": "address"
        }
      ],
      "name": "OwnableInvalidOwner",
      "type": "error"
    },
    {
      "inputs": [
        {
          "internalType": "address",
          "name": "account",
          "type": "address"
        }
      ],
      "name": "OwnableUnauthorizedAccount",
      "type": "error"
    },
    {
      "inputs": [],
      "name": "ReentrancyGuardReentrantCall",
      "type": "error"
    },
    {
      "inputs": [
        {
          "internalType": "string",
          "name": "str",
          "type": "string"
        }
      ],
      "name": "StringTooLong",
      "type": "error"
    },
    {
      "anonymous": false,
      "inputs": [
        {
          "indexed": true,
          "internalType": "address",
          "name": "user",
          "type": "address"
        },
        {
          "indexed": false,
          "internalType": "uint256",
          "name": "amount",
          "type": "uint256"
        },
        {
          "indexed": false,
          "internalType": "uint256",
          "name": "points",
          "type": "uint256"
        }
      ],
      "name": "AirdropClaimed",
      "type": "event"
    },
    {
      "anonymous": false,
      "inputs": [
        {
          "indexed": true,
          "internalType": "address",
          "name": "token",
          "type": "address"
        },
        {
          "indexed": false,
          "internalType": "uint256",
          "name": "totalAmount",
          "type": "uint256"
        },
        {
          "indexed": false,
          "internalType": "uint256",
          "name": "snapshotBlock",
          "type": "uint256"
        }
      ],
      "name": "AirdropSetup",
      "type": "event"
    },
    {
      "anonymous": false,
      "inputs": [
        {
          "indexed": true,
          "internalType": "uint256",
          "name": "debateId",
          "type": "uint256"
        },
        {
          "indexed": false,
          "internalType": "string",
          "name": "topic",
          "type": "string"
        },
        {
          "indexed": false,
          "internalType": "uint256",
          "name": "entryFee",
          "type": "uint256"
        }
      ],
      "name": "DebateCreated",
      "type": "event"
    },
    {
      "anonymous": false,
      "inputs": [],
      "name": "EIP712DomainChanged",
      "type": "event"
    },
    {
      "anonymous": false,
      "inputs": [
        {
          "indexed": false,
          "internalType": "bool",
          "name": "paused",
          "type": "bool"
        }
      ],
      "name": "EmergencyPauseToggled",
      "type": "event"
    },
    {
      "anonymous": false,
      "inputs": [
        {
          "indexed": true,
          "internalType": "address",
          "name": "previousOwner",
          "type": "address"
        },
        {
          "indexed": true,
          "internalType": "address",
          "name": "newOwner",
          "type": "address"
        }
      ],
      "name": "OwnershipTransferred",
      "type": "event"
    },
    {
      "anonymous": false,
      "inputs": [
        {
          "indexed": true,
          "internalType": "uint256",
          "name": "debateId",
          "type": "uint256"
        },
        {
          "indexed": false,
          "internalType": "address",
          "name": "participant",
          "type": "address"
        }
      ],
      "name": "ParticipantJoined",
      "type": "event"
    },
    {
      "anonymous": false,
      "inputs": [
        {
          "indexed": true,
          "internalType": "address",
          "name": "user",
          "type": "address"
        },
        {
          "indexed": false,
          "internalType": "uint256",
          "name": "points",
          "type": "uint256"
        },
        {
          "indexed": false,
          "internalType": "string",
          "name": "reason",
          "type": "string"
        }
      ],
      "name": "PointsAwarded",
      "type": "event"
    },
    {
      "anonymous": false,
      "inputs": [
        {
          "indexed": true,
          "internalType": "uint256",
          "name": "debateId",
          "type": "uint256"
        },
        {
          "indexed": false,
          "internalType": "address",
          "name": "participant",
          "type": "address"
        },
        {
          "indexed": false,
          "internalType": "uint256",
          "name": "amount",
          "type": "uint256"
        }
      ],
      "name": "RefundProcessed",
      "type": "event"
    },
    {
      "anonymous": false,
      "inputs": [
        {
          "indexed": true,
          "internalType": "uint256",
          "name": "debateId",
          "type": "uint256"
        },
        {
          "indexed": false,
          "internalType": "address",
          "name": "winner",
          "type": "address"
        },
        {
          "indexed": false,
          "internalType": "uint256",
          "name": "prize",
          "type": "uint256"
        }
      ],
      "name": "WinnerDeclared",
      "type": "event"
    },
    {
      "inputs": [],
      "name": "BASIS_POINTS",
      "outputs": [
        {
          "internalType": "uint256",
          "name": "",
          "type": "uint256"
        }
      ],
      "stateMutability": "view",
      "type": "function"
    },
    {
      "inputs": [],
      "name": "DEBATE_PARTICIPATION_POINTS",
      "outputs": [
        {
          "internalType": "uint256",
          "name": "",
          "type": "uint256"
        }
      ],
      "stateMutability": "view",
      "type": "function"
    },
    {
      "inputs": [],
      "name": "DEBATE_WINNER_POINTS",
      "outputs": [
        {
          "internalType": "uint256",
          "name": "",
          "type": "uint256"
        }
      ],
      "stateMutability": "view",
      "type": "function"
    },
    {
      "inputs": [],
      "name": "LIKE_POINTS",
      "outputs": [
        {
          "internalType": "uint256",
          "name": "",
          "type": "uint256"
        }
      ],
      "stateMutability": "view",
      "type": "function"
    },
    {
      "inputs": [],
      "name": "PLATFORM_FEE_PERCENTAGE",
      "outputs": [
        {
          "internalType": "uint256",
          "name": "",
          "type": "uint256"
        }
      ],
      "stateMutability": "view",
      "type": "function"
    },
    {
      "inputs": [],
      "name": "REFUND_PERIOD",
      "outputs": [
        {
          "internalType": "uint256",
          "name": "",
          "type": "uint256"
        }
      ],
      "stateMutability": "view",
      "type": "function"
    },
    {
      "inputs": [],
      "name": "SHARE_POINTS",
      "outputs": [
        {
          "internalType": "uint256",
          "name": "",
          "type": "uint256"
        }
      ],
      "stateMutability": "view",
      "type": "function"
    },
    {
      "inputs": [],
      "name": "TIMEOUT_PERIOD",
      "outputs": [
        {
          "internalType": "uint256",
          "name": "",
          "type": "uint256"
        }
      ],
      "stateMutability": "view",
      "type": "function"
    },
    {
      "inputs": [
        {
          "internalType": "address",
          "name": "",
          "type": "address"
        }
      ],
      "name": "airdropClaimed",
      "outputs": [
        {
          "internalType": "uint256",
          "name": "",
          "type": "uint256"
        }
      ],
      "stateMutability": "view",
      "type": "function"
    },
    {
      "inputs": [],
      "name": "airdropEnabled",
      "outputs": [
        {
          "internalType": "bool",
          "name": "",
          "type": "bool"
        }
      ],
      "stateMutability": "view",
      "type": "function"
    },
    {
      "inputs": [],
      "name": "airdropSnapshotBlock",
      "outputs": [
        {
          "internalType": "uint256",
          "name": "",
          "type": "uint256"
        }
      ],
      "stateMutability": "view",
      "type": "function"
    },
    {
      "inputs": [],
      "name": "airdropToken",
      "outputs": [
        {
          "internalType": "contract IERC20",
          "name": "",
          "type": "address"
        }
      ],
      "stateMutability": "view",
      "type": "function"
    },
    {
      "inputs": [
        {
          "internalType": "address",
          "name": "user",
          "type": "address"
        }
      ],
      "name": "awardLikePoints",
      "outputs": [],
      "stateMutability": "nonpayable",
      "type": "function"
    },
    {
      "inputs": [
        {
          "internalType": "address",
          "name": "user",
          "type": "address"
        },
        {
          "internalType": "uint256",
          "name": "points",
          "type": "uint256"
        },
        {
          "internalType": "string",
          "name": "reason",
          "type": "string"
        }
      ],
      "name": "awardPoints",
      "outputs": [],
      "stateMutability": "nonpayable",
      "type": "function"
    },
    {
      "inputs": [
        {
          "internalType": "address",
          "name": "user",
          "type": "address"
        }
      ],
      "name": "awardSharePoints",
      "outputs": [],
      "stateMutability": "nonpayable",
      "type": "function"
    },
    {
      "inputs": [
        {
          "internalType": "uint256",
          "name": "userPointsAmount",
          "type": "uint256"
        },
        {
          "internalType": "uint256",
          "name": "totalPoints",
          "type": "uint256"
        },
        {
          "internalType": "bytes32",
          "name": "messageHash",
          "type": "bytes32"
        },
        {
          "internalType": "bytes",
          "name": "signature",
          "type": "bytes"
        }
      ],
      "name": "claimAirdrop",
      "outputs": [],
      "stateMutability": "nonpayable",
      "type": "function"
    },
    {
      "inputs": [
        {
          "internalType": "string",
          "name": "topic",
          "type": "string"
        },
        {
          "internalType": "uint256",
          "name": "entryFee",
          "type": "uint256"
        },
        {
          "internalType": "uint256",
          "name": "maxParticipants",
          "type": "uint256"
        },
        {
          "internalType": "uint256",
          "name": "duration",
          "type": "uint256"
        }
      ],
      "name": "createDebate",
      "outputs": [
        {
          "internalType": "uint256",
          "name": "",
          "type": "uint256"
        }
      ],
      "stateMutability": "nonpayable",
      "type": "function"
    },
    {
      "inputs": [
        {
          "internalType": "uint256",
          "name": "",
          "type": "uint256"
        }
      ],
      "name": "debates",
      "outputs": [
        {
          "internalType": "uint256",
          "name": "id",
          "type": "uint256"
        },
        {
          "internalType": "string",
          "name": "topic",
          "type": "string"
        },
        {
          "internalType": "uint256",
          "name": "entryFee",
          "type": "uint256"
        },
        {
          "internalType": "uint256",
          "name": "maxParticipants",
          "type": "uint256"
        },
        {
          "internalType": "uint256",
          "name": "startTime",
          "type": "uint256"
        },
        {
          "internalType": "uint256",
          "name": "endTime",
          "type": "uint256"
        },
        {
          "internalType": "address",
          "name": "winner",
          "type": "address"
        },
        {
          "internalType": "bool",
          "name": "isActive",
          "type": "bool"
        },
        {
          "internalType": "bool",
          "name": "isCompleted",
          "type": "bool"
        }
      ],
      "stateMutability": "view",
      "type": "function"
    },
    {
      "inputs": [
        {
          "components": [
            {
              "internalType": "uint256",
              "name": "debateId",
              "type": "uint256"
            },
            {
              "internalType": "address",
              "name": "winner",
              "type": "address"
            },
            {
              "internalType": "uint256",
              "name": "timestamp",
              "type": "uint256"
            },
            {
              "internalType": "bytes",
              "name": "signature",
              "type": "bytes"
            }
          ],
          "internalType": "struct DebatePoolV2.WinnerResult",
          "name": "result",
          "type": "tuple"
        }
      ],
      "name": "declareWinner",
      "outputs": [],
      "stateMutability": "nonpayable",
      "type": "function"
    },
    {
      "inputs": [],
      "name": "eip712Domain",
      "outputs": [
        {
          "internalType": "bytes1",
          "name": "fields",
          "type": "bytes1"
        },
        {
          "internalType": "string",
          "name": "name",
          "type": "string"
        },
        {
          "internalType": "string",
          "name": "version",
          "type": "string"
        },
        {
          "internalType": "uint256",
          "name": "chainId",
          "type": "uint256"
        },
        {
          "internalType": "address",
          "name": "verifyingContract",
          "type": "address"
        },
        {
          "internalType": "bytes32",
          "name": "salt",
          "type": "bytes32"
        },
        {
          "internalType": "uint256[]",
          "name": "extensions",
          "type": "uint256[]"
        }
      ],
      "stateMutability": "view",
      "type": "function"
    },
    {
      "inputs": [],
      "name": "emergencyPaused",
      "outputs": [
        {
          "internalType": "bool",
          "name": "",
          "type": "bool"
        }
      ],
      "stateMutability": "view",
      "type": "function"
    },
    {
      "inputs": [
        {
          "internalType": "uint256",
          "name": "debateId",
          "type": "uint256"
        }
      ],
      "name": "emergencyRefund",
      "outputs": [],
      "stateMutability": "nonpayable",
      "type": "function"
    },
    {
      "inputs": [
        {
          "internalType": "uint256",
          "name": "debateId",
          "type": "uint256"
        }
      ],
      "name": "getDebate",
      "outputs": [
        {
          "components": [
            {
              "internalType": "uint256",
              "name": "id",
              "type": "uint256"
            },
            {
              "internalType": "string",
              "name": "topic",
              "type": "string"
            },
            {
              "internalType": "uint256",
              "name": "entryFee",
              "type": "uint256"
            },
            {
              "internalType": "uint256",
              "name": "maxParticipants",
              "type": "uint256"
            },
            {
              "internalType": "uint256",
              "name": "startTime",
              "type": "uint256"
            },
            {
              "internalType": "uint256",
              "name": "endTime",
              "type": "uint256"
            },
            {
              "internalType": "address[]",
              "name": "participants",
              "type": "address[]"
            },
            {
              "internalType": "address",
              "name": "winner",
              "type": "address"
            },
            {
              "internalType": "bool",
              "name": "isActive",
              "type": "bool"
            },
            {
              "internalType": "bool",
              "name": "isCompleted",
              "type": "bool"
            }
          ],
          "internalType": "struct DebatePoolV2.Debate",
          "name": "",
          "type": "tuple"
        }
      ],
      "stateMutability": "view",
      "type": "function"
    },
    {
      "inputs": [
        {
          "internalType": "address",
          "name": "user",
          "type": "address"
        }
      ],
      "name": "getUserDebates",
      "outputs": [
        {
          "internalType": "uint256[]",
          "name": "",
          "type": "uint256[]"
        }
      ],
      "stateMutability": "view",
      "type": "function"
    },
    {
      "inputs": [
        {
          "internalType": "address",
          "name": "user",
          "type": "address"
        }
      ],
      "name": "getUserPoints",
      "outputs": [
        {
          "internalType": "uint256",
          "name": "",
          "type": "uint256"
        }
      ],
      "stateMutability": "view",
      "type": "function"
    },
    {
      "inputs": [
        {
          "internalType": "uint256",
          "name": "debateId",
          "type": "uint256"
        },
        {
          "internalType": "address",
          "name": "user",
          "type": "address"
        }
      ],
      "name": "isParticipant",
      "outputs": [
        {
          "internalType": "bool",
          "name": "",
          "type": "bool"
        }
      ],
      "stateMutability": "view",
      "type": "function"
    },
    {
      "inputs": [
        {
          "internalType": "uint256",
          "name": "debateId",
          "type": "uint256"
        }
      ],
      "name": "joinDebate",
      "outputs": [],
      "stateMutability": "nonpayable",
      "type": "function"
    },
    {
      "inputs": [],
      "name": "nextDebateId",
      "outputs": [
        {
          "internalType": "uint256",
          "name": "",
          "type": "uint256"
        }
      ],
      "stateMutability": "view",
      "type": "function"
    },
    {
      "inputs": [],
      "name": "oracle",
      "outputs": [
        {
          "internalType": "address",
          "name": "",
          "type": "address"
        }
      ],
      "stateMutability": "view",
      "type": "function"
    },
    {
      "inputs": [],
      "name": "owner",
      "outputs": [
        {
          "internalType": "address",
          "name": "",
          "type": "address"
        }
      ],
      "stateMutability": "view",
      "type": "function"
    },
    {
      "inputs": [
        {
          "internalType": "uint256",
          "name": "debateId",
          "type": "uint256"
        }
      ],
      "name": "processExpiredDebate",
      "outputs": [],
      "stateMutability": "nonpayable",
      "type": "function"
    },
    {
      "inputs": [
        {
          "internalType": "uint256",
          "name": "",
          "type": "uint256"
        }
      ],
      "name": "refundDeadlines",
      "outputs": [
        {
          "internalType": "uint256",
          "name": "",
          "type": "uint256"
        }
      ],
      "stateMutability": "view",
      "type": "function"
    },
    {
      "inputs": [],
      "name": "renounceOwnership",
      "outputs": [],
      "stateMutability": "nonpayable",
      "type": "function"
    },
    {
      "inputs": [
        {
          "internalType": "uint256",
          "name": "debateId",
          "type": "uint256"
        }
      ],
      "name": "requestRefund",
      "outputs": [],
      "stateMutability": "nonpayable",
      "type": "function"
    },
    {
      "inputs": [
        {
          "internalType": "address",
          "name": "_airdropToken",
          "type": "address"
        },
        {
          "internalType": "uint256",
          "name": "_totalAmount",
          "type": "uint256"
        }
      ],
      "name": "setupAirdrop",
      "outputs": [],
      "stateMutability": "nonpayable",
      "type": "function"
    },
    {
      "inputs": [],
      "name": "toggleEmergencyPause",
      "outputs": [],
      "stateMutability": "nonpayable",
      "type": "function"
    },
    {
      "inputs": [],
      "name": "totalAirdropAmount",
      "outputs": [
        {
          "internalType": "uint256",
          "name": "",
          "type": "uint256"
        }
      ],
      "stateMutability": "view",
      "type": "function"
    },
    {
      "inputs": [
        {
          "internalType": "address",
          "name": "newOwner",
          "type": "address"
        }
      ],
      "name": "transferOwnership",
      "outputs": [],
      "stateMutability": "nonpayable",
      "type": "function"
    },
    {
      "inputs": [],
      "name": "usdcToken",
      "outputs": [
        {
          "internalType": "contract IERC20",
          "name": "",
          "type": "address"
        }
      ],
      "stateMutability": "view",
      "type": "function"
    },
    {
      "inputs": [
        {
          "internalType": "address",
          "name": "",
          "type": "address"
        },
        {
          "internalType": "uint256",
          "name": "",
          "type": "uint256"
        }
      ],
      "name": "userDebates",
      "outputs": [
        {
          "internalType": "uint256",
          "name": "",
          "type": "uint256"
        }
      ],
      "stateMutability": "view",
      "type": "function"
    },
    {
      "inputs": [
        {
          "internalType": "address",
          "name": "",
          "type": "address"
        }
      ],
      "name": "userPoints",
      "outputs": [
        {
          "internalType": "uint256",
          "name": "",
          "type": "uint256"
        }
      ],
      "stateMutability": "view",
      "type": "function"
    },
    {
      "inputs": [],
      "name": "withdrawPlatformFees",
      "outputs": [],
      "stateMutability": "nonpayable",
      "type": "function"
    }
  ],
  "bytecode": "0x6101a060405260016004556005805460ff19169055600a805460ff60a01b191690553480156200002e57600080fd5b5060405162003da738038062003da7833981016040819052620000519162000349565b604080518082018252600c81526b2232b130ba32a837b7b62b1960a11b60208083019190915282518084019093526001808452603160f81b91840191909152600055903380620000bc57604051631e4fbdf760e01b8152600060048201526024015b60405180910390fd5b620000c7816200025e565b50620000d5826002620002b0565b61012052620000e6816003620002b0565b61014052815160208084019190912060e052815190820120610100524660a0526200017460e05161010051604080517f8b73c3c69bb8fe3d512ecc4cf759cc79239f7b179b0ffacaa9a75d522b39400f60208201529081019290925260608201524660808201523060a082015260009060c00160405160208183030381529060405280519060200120905090565b60805250503060c0526001600160a01b038216620001e05760405162461bcd60e51b815260206004820152602260248201527f446562617465506f6f6c56323a20496e76616c69642055534443206164647265604482015261737360f01b6064820152608401620000b3565b6001600160a01b038116620002445760405162461bcd60e51b8152602060048201526024808201527f446562617465506f6f6c56323a20496e76616c6964206f7261636c65206164646044820152637265737360e01b6064820152608401620000b3565b6001600160a01b0391821661016052166101805262000567565b600180546001600160a01b038381166001600160a01b0319831681179093556040519116919082907f8be0079c531659141344cd1fd0a4f28419497f9722a3daafe3b4186f6b6457e090600090a35050565b6000602083511015620002d057620002c883620002e9565b9050620002e3565b81620002dd848262000426565b5060ff90505b92915050565b600080829050601f8151111562000317578260405163305a27a960e01b8152600401620000b39190620004f2565b8051620003248262000542565b179392505050565b80516001600160a01b03811681146200034457600080fd5b919050565b600080604083850312156200035d57600080fd5b62000368836200032c565b915062000378602084016200032c565b90509250929050565b634e487b7160e01b600052604160045260246000fd5b600181811c90821680620003ac57607f821691505b602082108103620003cd57634e487b7160e01b600052602260045260246000fd5b50919050565b601f8211156200042157600081815260208120601f850160051c81016020861015620003fc5750805b601f850160051c820191505b818110156200041d5782815560010162000408565b5050505b505050565b81516001600160401b0381111562000442576200044262000381565b6200045a8162000453845462000397565b84620003d3565b602080601f831160018114620004925760008415620004795750858301515b600019600386901b1c1916600185901b1785556200041d565b600085815260208120601f198616915b82811015620004c357888601518255948401946001909101908401620004a2565b5085821015620004e25787850151600019600388901b60f8161c191681555b5050505050600190811b01905550565b600060208083528351808285015260005b81811015620005215785810183015185820160400152820162000503565b506000604082860101526040601f19601f8301168501019250505092915050565b80516020808301519190811015620003cd5760001960209190910360031b1b16919050565b60805160a05160c05160e051610100516101205161014051610160516101805161376d6200063a600039600081816103ec0152818161064b0152818161071501528181610ade0152818161146101528181611bdd01528181611ca60152612948015260008181610268015281816108fd01528181610fe4015281816117b1015281816118f4015281816119c601528181611f9301526123e20152600061270e015260006126dc01526000612b0a01526000612ae201526000612a3d01526000612a6701526000612a91015261376d6000f3fe608060405234801561001057600080fd5b506004361061025e5760003560e01c80638c7971c511610146578063dd8704c1116100c3578063f2fde38b11610087578063f2fde38b1461054a578063f50ddbc71461055d578063f5d8e5d91461057d578063f5fce24514610590578063f67dc95f1461059a578063fde59fa3146102c757600080fd5b8063dd8704c1146104f5578063e007379214610508578063e1f1c4a71461051b578063e38db96c14610524578063f0f588361461053757600080fd5b8063aeefe31f1161010a578063aeefe31f14610492578063b073f687146104bb578063b68c72b9146104c4578063d0b7830b146104cd578063d1b6dd30146104d557600080fd5b80638c7971c5146104335780638da5cb5b1461043b57806398d336af1461044c578063a29cdc721461046c578063a4b2409e1461047f57600080fd5b80633a73d46e116101df57806370e5deb9116101a357806370e5deb9146103b9578063715018a6146103cc578063758d9b89146103d45780637dc0d1d0146103e75780637f6578d31461040e57806384b0196e1461041857600080fd5b80633a73d46e146103425780634d06068a1461034b57806359758fcf1461035e5780635abead8a14610386578063704115ad1461039957600080fd5b8063201042891161022657806320104289146102e257806327c830a914610306578063290ab9ab14610313578063361955131461032657806336dc37ab1461032f57600080fd5b806311eac85514610263578063147e291f146102a757806315548232146102b15780631c2155d6146102c75780631eca9561146102cf575b600080fd5b61028a7f000000000000000000000000000000000000000000000000000000000000000081565b6040516001600160a01b0390911681526020015b60405180910390f35b6102af6105ba565b005b6102b9601481565b60405190815260200161029e565b6102b9600a81565b6102b96102dd366004612e2d565b61060f565b600a546102f690600160a01b900460ff1681565b604051901515815260200161029e565b6005546102f69060ff1681565b6102af610321366004612efa565b610640565b6102b960045481565b6102af61033d366004612f51565b6106f6565b6102b9600b5481565b600a5461028a906001600160a01b031681565b61037161036c366004612f51565b6109ee565b60405161029e99989796959493929190612fb0565b6102b9610394366004613010565b610ad1565b6103ac6103a7366004613064565b610eda565b60405161029e91906130ba565b6102af6103c7366004612f51565b610f46565b6102af6110b1565b6102f66103e23660046130cd565b6110c5565b61028a7f000000000000000000000000000000000000000000000000000000000000000081565b6102b962093a8081565b6104206110da565b60405161029e97969594939291906130f9565b6102b9606481565b6001546001600160a01b031661028a565b61045f61045a366004612f51565b611120565b60405161029e91906131a2565b6102af61047a366004613256565b611337565b6102af61048d366004612f51565b611612565b6102b96104a0366004613064565b6001600160a01b031660009081526009602052604090205490565b6102b9600c5481565b6102b96103e881565b6102af6118d4565b6102b96104e3366004613064565b600d6020526000908152604090205481565b6102af610503366004612e2d565b611ab5565b6102af610516366004613064565b611bd2565b6102b961271081565b6102af610532366004613064565b611c9b565b6102af6105453660046132b0565b611d5a565b6102af610558366004613064565b61213a565b6102b961056b366004613064565b60096020526000908152604090205481565b6102af61058b366004612f51565b612175565b6102b96201518081565b6102b96105a8366004612f51565b60086020526000908152604090205481565b6105c26125af565b6005805460ff8082161560ff1990921682179092556040519116151581527fb5838f871ddee4623a406029b1a0b6013e0ec30f2dc114307f21459a800a82969060200160405180910390a1565b6007602052816000526040600020818154811061062b57600080fd5b90600052602060002001600091509150505481565b336001600160a01b037f000000000000000000000000000000000000000000000000000000000000000016146106915760405162461bcd60e51b815260040161068890613358565b60405180910390fd5b6001600160a01b038316600090815260096020526040812080548492906106b99084906133be565b92505081905550826001600160a01b031660008051602061371883398151915283836040516106e99291906133d1565b60405180910390a2505050565b6001546001600160a01b03163314806107375750336001600160a01b037f000000000000000000000000000000000000000000000000000000000000000016145b6107a95760405162461bcd60e51b815260206004820152603960248201527f446562617465506f6f6c56323a204f6e6c79206f776e6572206f72206f72616360448201527f6c652063616e2063616c6c20746869732066756e6374696f6e000000000000006064820152608401610688565b806000811180156107bb575060045481105b6107d75760405162461bcd60e51b8152600401610688906133f2565b6107df6125dc565b600082815260066020526040902060058101546108009062015180906133be565b421161084e5760405162461bcd60e51b815260206004820152601d60248201527f446562617465506f6f6c56323a204e6f742065787069726564207965740000006044820152606401610688565b6007810154600160a81b900460ff16156108aa5760405162461bcd60e51b815260206004820152601f60248201527f446562617465506f6f6c56323a20416c726561647920636f6d706c65746564006044820152606401610688565b60005b60068201548110156109ca5760008260060182815481106108d0576108d0613429565b600091825260209091200154600284015460405163a9059cbb60e01b81526001600160a01b0392831693507f00000000000000000000000000000000000000000000000000000000000000009092169163a9059cbb916109359185919060040161343f565b6020604051808303816000875af1158015610954573d6000803e3d6000fd5b505050506040513d601f19601f820116820180604052508101906109789190613458565b50847f79ff6a60b3e21b3630b207e2a7b0b50b69b197d3d7ca776108ed2afb8fbac8dc8285600201546040516109af92919061343f565b60405180910390a250806109c281613481565b9150506108ad565b50600701805461ffff60a01b1916600160a81b1790556109ea6001600055565b5050565b60066020526000908152604090208054600182018054919291610a109061349a565b80601f0160208091040260200160405190810160405280929190818152602001828054610a3c9061349a565b8015610a895780601f10610a5e57610100808354040283529160200191610a89565b820191906000526020600020905b815481529060010190602001808311610a6c57829003601f168201915b50505060028401546003850154600486015460058701546007909701549596929591945092506001600160a01b0381169060ff600160a01b8204811691600160a81b90041689565b6000336001600160a01b037f00000000000000000000000000000000000000000000000000000000000000001614610b1b5760405162461bcd60e51b815260040161068890613358565b60055460ff1615610b6e5760405162461bcd60e51b815260206004820181905260248201527f446562617465506f6f6c56323a20436f6e7472616374206973207061757365646044820152606401610688565b6000855111610bcb5760405162461bcd60e51b815260206004820152602360248201527f446562617465506f6f6c56323a20546f7069632063616e6e6f7420626520656d60448201526270747960e81b6064820152608401610688565b60008411610c325760405162461bcd60e51b815260206004820152602e60248201527f446562617465506f6f6c56323a20456e74727920666565206d7573742062652060448201526d067726561746572207468616e20360941b6064820152608401610688565b60018311610c9b5760405162461bcd60e51b815260206004820152603060248201527f446562617465506f6f6c56323a204d75737420616c6c6f77206174206c65617360448201526f742032207061727469636970616e747360801b6064820152608401610688565b60008211610d015760405162461bcd60e51b815260206004820152602d60248201527f446562617465506f6f6c56323a204475726174696f6e206d757374206265206760448201526c0726561746572207468616e203609c1b6064820152608401610688565b6004805460009182610d1283613481565b909155509050426000610d2585836133be565b9050604051806101400160405280848152602001898152602001888152602001878152602001838152602001828152602001600067ffffffffffffffff811115610d7157610d71612e57565b604051908082528060200260200182016040528015610d9a578160200160208202803683370190505b50815260006020808301829052600160408085018290526060909401839052878352600682529290912083518155908301519091820190610ddb908261351d565b5060408201516002820155606082015160038201556080820151600482015560a0820151600582015560c08201518051610e1f916006840191602090910190612d97565b5060e082015160079091018054610100840151610120909401511515600160a81b0260ff60a81b19941515600160a01b026001600160a81b03199092166001600160a01b03909416939093171792909216179055610e8062093a80826133be565b60008481526008602052604090819020919091555183907f6f1ada89a34bf137d8ad7b96784cda535ed20442ace125386c0ab1efe849aa4890610ec6908b908b906135dd565b60405180910390a250909695505050505050565b6001600160a01b038116600090815260076020908152604091829020805483518184028101840190945280845260609392830182828015610f3a57602002820191906000526020600020905b815481526020019060010190808311610f26575b50505050509050919050565b610f4e6125af565b80600081118015610f60575060045481105b610f7c5760405162461bcd60e51b8152600401610688906133f2565b610f846125dc565b6000828152600660205260408120905b60068201548110156109ca576000826006018281548110610fb757610fb7613429565b600091825260209091200154600284015460405163a9059cbb60e01b81526001600160a01b0392831693507f00000000000000000000000000000000000000000000000000000000000000009092169163a9059cbb9161101c9185919060040161343f565b6020604051808303816000875af115801561103b573d6000803e3d6000fd5b505050506040513d601f19601f8201168201806040525081019061105f9190613458565b50847f79ff6a60b3e21b3630b207e2a7b0b50b69b197d3d7ca776108ed2afb8fbac8dc82856002015460405161109692919061343f565b60405180910390a250806110a981613481565b915050610f94565b6110b96125af565b6110c36000612606565b565b60006110d18383612658565b90505b92915050565b6000606080600080600060606110ee6126d5565b6110f6612707565b60408051600080825260208201909252600f60f81b9b939a50919850469750309650945092509050565b6111836040518061014001604052806000815260200160608152602001600081526020016000815260200160008152602001600081526020016060815260200160006001600160a01b031681526020016000151581526020016000151581525090565b81600081118015611195575060045481105b6111b15760405162461bcd60e51b8152600401610688906133f2565b6006600084815260200190815260200160002060405180610140016040529081600082015481526020016001820180546111ea9061349a565b80601f01602080910402602001604051908101604052809291908181526020018280546112169061349a565b80156112635780601f1061123857610100808354040283529160200191611263565b820191906000526020600020905b81548152906001019060200180831161124657829003601f168201915b5050505050815260200160028201548152602001600382015481526020016004820154815260200160058201548152602001600682018054806020026020016040519081016040528092919081815260200182805480156112ed57602002820191906000526020600020905b81546001600160a01b031681526001909101906020018083116112cf575b5050509183525050600791909101546001600160a01b038116602083015260ff600160a01b8204811615156040840152600160a81b90910416151560609091015291505b50919050565b61133f6125dc565b600a54600160a01b900460ff166113985760405162461bcd60e51b815260206004820181905260248201527f446562617465506f6f6c56323a2041697264726f70206e6f74206163746976656044820152606401610688565b600084116113e85760405162461bcd60e51b815260206004820181905260248201527f446562617465506f6f6c56323a204e6f20706f696e747320746f20636c61696d6044820152606401610688565b604080517f09abcf75d4d2eff6e6e603a9b1412f04c8e2c793239c046c8c6ba628cf522c2a6020820152908101859052606081018490526080810183905260009060a001604051602081830303815290604052805190602001209050600061144f82612734565b9050600061145d8285612761565b90507f00000000000000000000000000000000000000000000000000000000000000006001600160a01b0316816001600160a01b0316146114e05760405162461bcd60e51b815260206004820152601f60248201527f446562617465506f6f6c56323a20496e76616c6964207369676e6174757265006044820152606401610688565b600086600c54896114f191906135ff565b6114fb9190613616565b90506000811161154d5760405162461bcd60e51b815260206004820181905260248201527f446562617465506f6f6c56323a204e6f20746f6b656e7320746f20636c61696d6044820152606401610688565b600a5460405163a9059cbb60e01b81526001600160a01b039091169063a9059cbb9061157f903390859060040161343f565b6020604051808303816000875af115801561159e573d6000803e3d6000fd5b505050506040513d601f19601f820116820180604052508101906115c29190613458565b5060408051828152602081018a905233917fd0755a9ef5a74f50d34b3503bb5b65ad71a112c001b76dfa6412c9aa4a1f43b0910160405180910390a25050505061160c6001600055565b50505050565b80600081118015611624575060045481105b6116405760405162461bcd60e51b8152600401610688906133f2565b6116486125dc565b6000828152600660205260409020600581015442116116a95760405162461bcd60e51b815260206004820181905260248201527f446562617465506f6f6c56323a20446562617465206e6f7420657870697265646044820152606401610688565b6007810154600160a81b900460ff16156116d55760405162461bcd60e51b815260040161068890613638565b6116df8333612658565b61172b5760405162461bcd60e51b815260206004820152601f60248201527f446562617465506f6f6c56323a204e6f742061207061727469636970616e74006044820152606401610688565b6000838152600860205260409020544211156117955760405162461bcd60e51b815260206004820152602360248201527f446562617465506f6f6c56323a20526566756e6420706572696f6420657870696044820152621c995960ea1b6064820152608401610688565b600281015460405163a9059cbb60e01b81526001600160a01b037f0000000000000000000000000000000000000000000000000000000000000000169163a9059cbb916117e691339160040161343f565b6020604051808303816000875af1158015611805573d6000803e3d6000fd5b505050506040513d601f19601f820116820180604052508101906118299190613458565b6118815760405162461bcd60e51b8152602060048201526024808201527f446562617465506f6f6c56323a20526566756e64207472616e736665722066616044820152631a5b195960e21b6064820152608401610688565b61188b833361278b565b827f79ff6a60b3e21b3630b207e2a7b0b50b69b197d3d7ca776108ed2afb8fbac8dc3383600201546040516118c192919061343f565b60405180910390a2506109ea6001600055565b6118dc6125af565b6040516370a0823160e01b81523060048201526000907f00000000000000000000000000000000000000000000000000000000000000006001600160a01b0316906370a0823190602401602060405180830381865afa158015611943573d6000803e3d6000fd5b505050506040513d601f19601f82011682018060405250810190611967919061367d565b9050600081116119c45760405162461bcd60e51b815260206004820152602260248201527f446562617465506f6f6c56323a204e6f2066756e647320746f20776974686472604482015261617760f01b6064820152608401610688565b7f00000000000000000000000000000000000000000000000000000000000000006001600160a01b031663a9059cbb611a056001546001600160a01b031690565b836040518363ffffffff1660e01b8152600401611a2392919061343f565b6020604051808303816000875af1158015611a42573d6000803e3d6000fd5b505050506040513d601f19601f82011682018060405250810190611a669190613458565b611ab25760405162461bcd60e51b815260206004820152601f60248201527f446562617465506f6f6c56323a205769746864726177616c206661696c6564006044820152606401610688565b50565b611abd6125af565b6001600160a01b038216611b135760405162461bcd60e51b815260206004820152601b60248201527f446562617465506f6f6c56323a20496e76616c696420746f6b656e00000000006044820152606401610688565b60008111611b635760405162461bcd60e51b815260206004820152601c60248201527f446562617465506f6f6c56323a20496e76616c696420616d6f756e74000000006044820152606401610688565b600a8054600c83905543600b8190556001600160a81b03199091166001600160a01b038516908117600160a01b179092556040805184815260208101929092527fed7f60bf056d1b78417c82bbbc5fe32284e4ff57356f801daa6844f110322a41910160405180910390a25050565b336001600160a01b037f00000000000000000000000000000000000000000000000000000000000000001614611c1a5760405162461bcd60e51b815260040161068890613358565b6001600160a01b03811660009081526009602052604081208054600a9290611c439084906133be565b92505081905550806001600160a01b0316600080516020613718833981519152600a604051611c90918152604060208201819052600490820152636c696b6560e01b606082015260800190565b60405180910390a250565b336001600160a01b037f00000000000000000000000000000000000000000000000000000000000000001614611ce35760405162461bcd60e51b815260040161068890613358565b6001600160a01b03811660009081526009602052604081208054600a9290611d0c9084906133be565b92505081905550806001600160a01b0316600080516020613718833981519152600a604051611c9091815260406020820181905260059082015264736861726560d81b606082015260800190565b80518015801590611d6c575060045481105b611d885760405162461bcd60e51b8152600401610688906133f2565b611d906125dc565b815160009081526006602052604090206007810154600160a01b900460ff16611dcb5760405162461bcd60e51b815260040161068890613696565b6007810154600160a81b900460ff1615611df75760405162461bcd60e51b815260040161068890613638565b6006810154611e485760405162461bcd60e51b815260206004820152601d60248201527f446562617465506f6f6c56323a204e6f207061727469636970616e74730000006044820152606401610688565b611e5a83600001518460200151612658565b611eb55760405162461bcd60e51b815260206004820152602660248201527f446562617465506f6f6c56323a2057696e6e6572206e6f74206120706172746960448201526518da5c185b9d60d21b6064820152608401610688565b611ebe836128aa565b611f0a5760405162461bcd60e51b815260206004820152601f60248201527f446562617465506f6f6c56323a20496e76616c6964207369676e6174757265006044820152606401610688565b60068101546002820154600091611f20916135ff565b90506000612710611f326014846135ff565b611f3c9190613616565b90506000611f4a82846136d8565b6020870151600786018054600160a81b6001600160a01b03808516600161ff0160a01b0319909316929092171760ff60a01b191690915560405163a9059cbb60e01b81529293507f0000000000000000000000000000000000000000000000000000000000000000169163a9059cbb91611fc891859060040161343f565b6020604051808303816000875af1158015611fe7573d6000803e3d6000fd5b505050506040513d601f19601f8201168201806040525081019061200b9190613458565b6120635760405162461bcd60e51b8152602060048201526024808201527f446562617465506f6f6c56323a2057696e6e6572207472616e736665722066616044820152631a5b195960e21b6064820152608401610688565b6020808701516001600160a01b0316600090815260099091526040812080546103e892906120929084906133be565b9091555050602080870151604080516103e88152928301819052600d908301526c3232b130ba32afbbb4b73732b960991b60608301526001600160a01b0316906000805160206137188339815191529060800160405180910390a2855160208701516040517f7ed5face07afb2b0e99df53523951350d2a3d4f5d105a0dd2110703efe3995379161212491859061343f565b60405180910390a2505050506109ea6001600055565b6121426125af565b6001600160a01b03811661216c57604051631e4fbdf760e01b815260006004820152602401610688565b611ab281612606565b80600081118015612187575060045481105b6121a35760405162461bcd60e51b8152600401610688906133f2565b60008281526006602052604090206007810154839190600160a01b900460ff166121df5760405162461bcd60e51b815260040161068890613696565b806004015442101561223f5760405162461bcd60e51b8152602060048201526024808201527f446562617465506f6f6c56323a2044656261746520686173206e6f74207374616044820152631c9d195960e21b6064820152608401610688565b80600501544211156122935760405162461bcd60e51b815260206004820152601e60248201527f446562617465506f6f6c56323a204465626174652068617320656e64656400006044820152606401610688565b60055460ff16156122e65760405162461bcd60e51b815260206004820181905260248201527f446562617465506f6f6c56323a20436f6e7472616374206973207061757365646044820152606401610688565b6122ee6125dc565b60008481526006602081905260409091206003810154918101549091116123575760405162461bcd60e51b815260206004820152601c60248201527f446562617465506f6f6c56323a204465626174652069732066756c6c000000006044820152606401610688565b6123618533612658565b156123ba5760405162461bcd60e51b815260206004820152602360248201527f446562617465506f6f6c56323a20416c72656164792070617274696369706174604482015262696e6760e81b6064820152608401610688565b60028101546040516323b872dd60e01b815233600482015230602482015260448101919091527f00000000000000000000000000000000000000000000000000000000000000006001600160a01b0316906323b872dd906064016020604051808303816000875af1158015612433573d6000803e3d6000fd5b505050506040513d601f19601f820116820180604052508101906124579190613458565b6124ae5760405162461bcd60e51b815260206004820152602260248201527f446562617465506f6f6c56323a2055534443207472616e73666572206661696c604482015261195960f21b6064820152608401610688565b600681018054600181810183556000928352602080842090920180546001600160a01b031916339081179091558084526007835260408085208054938401815585528385209092018990558352600990915281208054606492906125139084906133be565b90915550506040513390600080516020613718833981519152906125679060648152604060208201819052601490820152733232b130ba32afb830b93a34b1b4b830ba34b7b760611b606082015260800190565b60405180910390a260405133815285907f7dd8cb04159701bc1976c246434d7d96812782e7489e6c5c34db49a388fe9e809060200160405180910390a25061160c6001600055565b6001546001600160a01b031633146110c35760405163118cdaa760e01b8152336004820152602401610688565b6002600054036125ff57604051633ee5aeb560e01b815260040160405180910390fd5b6002600055565b600180546001600160a01b038381166001600160a01b0319831681179093556040519116919082907f8be0079c531659141344cd1fd0a4f28419497f9722a3daafe3b4186f6b6457e090600090a35050565b6000828152600660205260408120815b60068201548110156126ca57836001600160a01b031682600601828154811061269357612693613429565b6000918252602090912001546001600160a01b0316036126b8576001925050506110d4565b806126c281613481565b915050612668565b506000949350505050565b60606127027f00000000000000000000000000000000000000000000000000000000000000006002612985565b905090565b60606127027f00000000000000000000000000000000000000000000000000000000000000006003612985565b60006110d4612741612a30565b8360405161190160f01b8152600281019290925260228201526042902090565b6000806000806127718686612b5b565b9250925092506127818282612ba8565b5090949350505050565b6000828152600660205260408120905b600682015481101561160c57826001600160a01b03168260060182815481106127c6576127c6613429565b6000918252602090912001546001600160a01b031603612898576006820180546127f2906001906136d8565b8154811061280257612802613429565b6000918252602090912001546006830180546001600160a01b03909216918390811061283057612830613429565b9060005260206000200160006101000a8154816001600160a01b0302191690836001600160a01b0316021790555081600601805480612871576128716136eb565b600082815260209020810160001990810180546001600160a01b031916905501905561160c565b806128a281613481565b91505061279b565b6000807fb117e7df7afc3d596b66d8aed8b3987c92d6781a819d58bfe89281bd26f969c783600001518460200151856040015160405160200161290f949392919093845260208401929092526001600160a01b03166040830152606082015260800190565b604051602081830303815290604052805190602001209050600061293282612734565b90506000612944828660600151612761565b90507f00000000000000000000000000000000000000000000000000000000000000006001600160a01b0316816001600160a01b0316149350505050919050565b606060ff831461299f5761299883612c61565b90506110d4565b8180546129ab9061349a565b80601f01602080910402602001604051908101604052809291908181526020018280546129d79061349a565b8015612a245780601f106129f957610100808354040283529160200191612a24565b820191906000526020600020905b815481529060010190602001808311612a0757829003601f168201915b505050505090506110d4565b6000306001600160a01b037f000000000000000000000000000000000000000000000000000000000000000016148015612a8957507f000000000000000000000000000000000000000000000000000000000000000046145b15612ab357507f000000000000000000000000000000000000000000000000000000000000000090565b612702604080517f8b73c3c69bb8fe3d512ecc4cf759cc79239f7b179b0ffacaa9a75d522b39400f60208201527f0000000000000000000000000000000000000000000000000000000000000000918101919091527f000000000000000000000000000000000000000000000000000000000000000060608201524660808201523060a082015260009060c00160405160208183030381529060405280519060200120905090565b60008060008351604103612b955760208401516040850151606086015160001a612b8788828585612ca0565b955095509550505050612ba1565b50508151600091506002905b9250925092565b6000826003811115612bbc57612bbc613701565b03612bc5575050565b6001826003811115612bd957612bd9613701565b03612bf75760405163f645eedf60e01b815260040160405180910390fd5b6002826003811115612c0b57612c0b613701565b03612c2c5760405163fce698f760e01b815260048101829052602401610688565b6003826003811115612c4057612c40613701565b036109ea576040516335e2f38360e21b815260048101829052602401610688565b60606000612c6e83612d6f565b604080516020808252818301909252919250600091906020820181803683375050509182525060208101929092525090565b600080807f7fffffffffffffffffffffffffffffff5d576e7357a4501ddfe92f46681b20a0841115612cdb5750600091506003905082612d65565b604080516000808252602082018084528a905260ff891692820192909252606081018790526080810186905260019060a0016020604051602081039080840390855afa158015612d2f573d6000803e3d6000fd5b5050604051601f1901519150506001600160a01b038116612d5b57506000925060019150829050612d65565b9250600091508190505b9450945094915050565b600060ff8216601f8111156110d457604051632cd44ac360e21b815260040160405180910390fd5b828054828255906000526020600020908101928215612dec579160200282015b82811115612dec57825182546001600160a01b0319166001600160a01b03909116178255602090920191600190910190612db7565b50612df8929150612dfc565b5090565b5b80821115612df85760008155600101612dfd565b80356001600160a01b0381168114612e2857600080fd5b919050565b60008060408385031215612e4057600080fd5b612e4983612e11565b946020939093013593505050565b634e487b7160e01b600052604160045260246000fd5b600082601f830112612e7e57600080fd5b813567ffffffffffffffff80821115612e9957612e99612e57565b604051601f8301601f19908116603f01168101908282118183101715612ec157612ec1612e57565b81604052838152866020858801011115612eda57600080fd5b836020870160208301376000602085830101528094505050505092915050565b600080600060608486031215612f0f57600080fd5b612f1884612e11565b925060208401359150604084013567ffffffffffffffff811115612f3b57600080fd5b612f4786828701612e6d565b9150509250925092565b600060208284031215612f6357600080fd5b5035919050565b6000815180845260005b81811015612f9057602081850181015186830182015201612f74565b506000602082860101526020601f19601f83011685010191505092915050565b60006101208b8352806020840152612fca8184018c612f6a565b604084019a909a5250506060810196909652608086019490945260a08501929092526001600160a01b031660c0840152151560e083015215156101009091015292915050565b6000806000806080858703121561302657600080fd5b843567ffffffffffffffff81111561303d57600080fd5b61304987828801612e6d565b97602087013597506040870135966060013595509350505050565b60006020828403121561307657600080fd5b6110d182612e11565b600081518084526020808501945080840160005b838110156130af57815187529582019590820190600101613093565b509495945050505050565b6020815260006110d1602083018461307f565b600080604083850312156130e057600080fd5b823591506130f060208401612e11565b90509250929050565b60ff60f81b8816815260e06020820152600061311860e0830189612f6a565b828103604084015261312a8189612f6a565b606084018890526001600160a01b038716608085015260a0840186905283810360c0850152905061315b818561307f565b9a9950505050505050505050565b600081518084526020808501945080840160005b838110156130af5781516001600160a01b03168752958201959082019060010161317d565b6020815281516020820152600060208301516101408060408501526131cb610160850183612f6a565b91506040850151606085015260608501516080850152608085015160a085015260a085015160c085015260c0850151601f198584030160e08601526132108382613169565b92505060e085015161010061322f818701836001600160a01b03169052565b86015190506101206132448682018315159052565b90950151151593019290925250919050565b6000806000806080858703121561326c57600080fd5b843593506020850135925060408501359150606085013567ffffffffffffffff81111561329857600080fd5b6132a487828801612e6d565b91505092959194509250565b6000602082840312156132c257600080fd5b813567ffffffffffffffff808211156132da57600080fd5b90830190608082860312156132ee57600080fd5b60405160808101818110838211171561330957613309612e57565b6040528235815261331c60208401612e11565b60208201526040830135604082015260608301358281111561333d57600080fd5b61334987828601612e6d565b60608301525095945050505050565b60208082526030908201527f446562617465506f6f6c56323a204f6e6c79206f7261636c652063616e20636160408201526f3636103a3434b990333ab731ba34b7b760811b606082015260800190565b634e487b7160e01b600052601160045260246000fd5b808201808211156110d4576110d46133a8565b8281526040602082015260006133ea6040830184612f6a565b949350505050565b6020808252601f908201527f446562617465506f6f6c56323a20496e76616c69642064656261746520494400604082015260600190565b634e487b7160e01b600052603260045260246000fd5b6001600160a01b03929092168252602082015260400190565b60006020828403121561346a57600080fd5b8151801515811461347a57600080fd5b9392505050565b600060018201613493576134936133a8565b5060010190565b600181811c908216806134ae57607f821691505b60208210810361133157634e487b7160e01b600052602260045260246000fd5b601f82111561351857600081815260208120601f850160051c810160208610156134f55750805b601f850160051c820191505b8181101561351457828155600101613501565b5050505b505050565b815167ffffffffffffffff81111561353757613537612e57565b61354b81613545845461349a565b846134ce565b602080601f83116001811461358057600084156135685750858301515b600019600386901b1c1916600185901b178555613514565b600085815260208120601f198616915b828110156135af57888601518255948401946001909101908401613590565b50858210156135cd5787850151600019600388901b60f8161c191681555b5050505050600190811b01905550565b6040815260006135f06040830185612f6a565b90508260208301529392505050565b80820281158282048414176110d4576110d46133a8565b60008261363357634e487b7160e01b600052601260045260246000fd5b500490565b60208082526025908201527f446562617465506f6f6c56323a2057696e6e657220616c7265616479206465636040820152641b185c995960da1b606082015260800190565b60006020828403121561368f57600080fd5b5051919050565b60208082526022908201527f446562617465506f6f6c56323a20446562617465206973206e6f742061637469604082015261766560f01b606082015260800190565b818103818111156110d4576110d46133a8565b634e487b7160e01b600052603160045260246000fd5b634e487b7160e01b600052602160045260246000fdfe4c3089477cda1ac100291a040b3ac97ff5f55b6d8b2acfb56a59b9419d95ce04a2646970667358221220ea8b2abe05285598a2e3730846887381575d56910e5834ada3812065df63040764736f6c63430008140033",
  "linkReferences": {},
  "deployedLinkReferences": {}
}