{
  "_format": "hh-sol-artifact-1",
  "contractName": "DebatePoolV2",
  "sourceName": "contracts/DebatePoolV2.sol",
  "abi": [
    {
      "inputs": [
        {
          "internalType": "address",
          "name": "_usdcToken",
          "type": "address"
        },
        {
          "internalType": "address",
          "name": "_oracle",
          "type": "address"
        }
      ],
      "stateMutability": "nonpayable",
      "type": "constructor"
    },
    {
      "inputs": [],
      "name": "ECDSAInvalidSignature",
      "type": "error"
    },
    {
      "inputs": [
        {
          "internalType": "uint256",
          "name": "length",
          "type": "uint256"
        }
      ],
      "name": "ECDSAInvalidSignatureLength",
      "type": "error"
    },
    {
      "inputs": [
        {
          "internalType": "bytes32",
          "name": "s",
          "type": "bytes32"
        }
      ],
      "name": "ECDSAInvalidSignatureS",
      "type": "error"
    },
    {
      "inputs": [],
      "name": "InvalidShortString",
      "type": "error"
    },
    {
      "inputs": [
        {
          "internalType": "address",
          "name": "owner",
          "type": "address"
        }
      ],
      "name": "OwnableInvalidOwner",
      "type": "error"
    },
    {
      "inputs": [
        {
          "internalType": "address",
          "name": "account",
          "type": "address"
        }
      ],
      "name": "OwnableUnauthorizedAccount",
      "type": "error"
    },
    {
      "inputs": [],
      "name": "ReentrancyGuardReentrantCall",
      "type": "error"
    },
    {
      "inputs": [
        {
          "internalType": "string",
          "name": "str",
          "type": "string"
        }
      ],
      "name": "StringTooLong",
      "type": "error"
    },
    {
      "anonymous": false,
      "inputs": [
        {
          "indexed": true,
          "internalType": "address",
          "name": "user",
          "type": "address"
        },
        {
          "indexed": false,
          "internalType": "uint256",
          "name": "amount",
          "type": "uint256"
        },
        {
          "indexed": false,
          "internalType": "uint256",
          "name": "points",
          "type": "uint256"
        }
      ],
      "name": "AirdropClaimed",
      "type": "event"
    },
    {
      "anonymous": false,
      "inputs": [
        {
          "indexed": true,
          "internalType": "address",
          "name": "token",
          "type": "address"
        },
        {
          "indexed": false,
          "internalType": "uint256",
          "name": "totalAmount",
          "type": "uint256"
        },
        {
          "indexed": false,
          "internalType": "uint256",
          "name": "snapshotBlock",
          "type": "uint256"
        }
      ],
      "name": "AirdropSetup",
      "type": "event"
    },
    {
      "anonymous": false,
      "inputs": [
        {
          "indexed": true,
          "internalType": "uint256",
          "name": "debateId",
          "type": "uint256"
        },
        {
          "indexed": false,
          "internalType": "string",
          "name": "topic",
          "type": "string"
        },
        {
          "indexed": false,
          "internalType": "uint256",
          "name": "entryFee",
          "type": "uint256"
        }
      ],
      "name": "DebateCreated",
      "type": "event"
    },
    {
      "anonymous": false,
      "inputs": [],
      "name": "EIP712DomainChanged",
      "type": "event"
    },
    {
      "anonymous": false,
      "inputs": [
        {
          "indexed": false,
          "internalType": "bool",
          "name": "paused",
          "type": "bool"
        }
      ],
      "name": "EmergencyPauseToggled",
      "type": "event"
    },
    {
      "anonymous": false,
      "inputs": [
        {
          "indexed": true,
          "internalType": "address",
          "name": "previousOwner",
          "type": "address"
        },
        {
          "indexed": true,
          "internalType": "address",
          "name": "newOwner",
          "type": "address"
        }
      ],
      "name": "OwnershipTransferred",
      "type": "event"
    },
    {
      "anonymous": false,
      "inputs": [
        {
          "indexed": true,
          "internalType": "uint256",
          "name": "debateId",
          "type": "uint256"
        },
        {
          "indexed": false,
          "internalType": "address",
          "name": "participant",
          "type": "address"
        }
      ],
      "name": "ParticipantJoined",
      "type": "event"
    },
    {
      "anonymous": false,
      "inputs": [
        {
          "indexed": true,
          "internalType": "address",
          "name": "user",
          "type": "address"
        },
        {
          "indexed": false,
          "internalType": "uint256",
          "name": "points",
          "type": "uint256"
        },
        {
          "indexed": false,
          "internalType": "string",
          "name": "reason",
          "type": "string"
        }
      ],
      "name": "PointsAwarded",
      "type": "event"
    },
    {
      "anonymous": false,
      "inputs": [
        {
          "indexed": true,
          "internalType": "uint256",
          "name": "debateId",
          "type": "uint256"
        },
        {
          "indexed": false,
          "internalType": "address",
          "name": "participant",
          "type": "address"
        },
        {
          "indexed": false,
          "internalType": "uint256",
          "name": "amount",
          "type": "uint256"
        }
      ],
      "name": "RefundProcessed",
      "type": "event"
    },
    {
      "anonymous": false,
      "inputs": [
        {
          "indexed": true,
          "internalType": "uint256",
          "name": "debateId",
          "type": "uint256"
        },
        {
          "indexed": false,
          "internalType": "address",
          "name": "winner",
          "type": "address"
        },
        {
          "indexed": false,
          "internalType": "uint256",
          "name": "prize",
          "type": "uint256"
        }
      ],
      "name": "WinnerDeclared",
      "type": "event"
    },
    {
      "inputs": [],
      "name": "BASIS_POINTS",
      "outputs": [
        {
          "internalType": "uint256",
          "name": "",
          "type": "uint256"
        }
      ],
      "stateMutability": "view",
      "type": "function"
    },
    {
      "inputs": [],
      "name": "DEBATE_PARTICIPATION_POINTS",
      "outputs": [
        {
          "internalType": "uint256",
          "name": "",
          "type": "uint256"
        }
      ],
      "stateMutability": "view",
      "type": "function"
    },
    {
      "inputs": [],
      "name": "DEBATE_WINNER_POINTS",
      "outputs": [
        {
          "internalType": "uint256",
          "name": "",
          "type": "uint256"
        }
      ],
      "stateMutability": "view",
      "type": "function"
    },
    {
      "inputs": [],
      "name": "LIKE_POINTS",
      "outputs": [
        {
          "internalType": "uint256",
          "name": "",
          "type": "uint256"
        }
      ],
      "stateMutability": "view",
      "type": "function"
    },
    {
      "inputs": [],
      "name": "PLATFORM_FEE_PERCENTAGE",
      "outputs": [
        {
          "internalType": "uint256",
          "name": "",
          "type": "uint256"
        }
      ],
      "stateMutability": "view",
      "type": "function"
    },
    {
      "inputs": [],
      "name": "REFUND_PERIOD",
      "outputs": [
        {
          "internalType": "uint256",
          "name": "",
          "type": "uint256"
        }
      ],
      "stateMutability": "view",
      "type": "function"
    },
    {
      "inputs": [],
      "name": "SHARE_POINTS",
      "outputs": [
        {
          "internalType": "uint256",
          "name": "",
          "type": "uint256"
        }
      ],
      "stateMutability": "view",
      "type": "function"
    },
    {
      "inputs": [],
      "name": "TIMEOUT_PERIOD",
      "outputs": [
        {
          "internalType": "uint256",
          "name": "",
          "type": "uint256"
        }
      ],
      "stateMutability": "view",
      "type": "function"
    },
    {
      "inputs": [
        {
          "internalType": "address",
          "name": "",
          "type": "address"
        }
      ],
      "name": "airdropClaimed",
      "outputs": [
        {
          "internalType": "uint256",
          "name": "",
          "type": "uint256"
        }
      ],
      "stateMutability": "view",
      "type": "function"
    },
    {
      "inputs": [],
      "name": "airdropEnabled",
      "outputs": [
        {
          "internalType": "bool",
          "name": "",
          "type": "bool"
        }
      ],
      "stateMutability": "view",
      "type": "function"
    },
    {
      "inputs": [],
      "name": "airdropSnapshotBlock",
      "outputs": [
        {
          "internalType": "uint256",
          "name": "",
          "type": "uint256"
        }
      ],
      "stateMutability": "view",
      "type": "function"
    },
    {
      "inputs": [],
      "name": "airdropToken",
      "outputs": [
        {
          "internalType": "contract IERC20",
          "name": "",
          "type": "address"
        }
      ],
      "stateMutability": "view",
      "type": "function"
    },
    {
      "inputs": [
        {
          "components": [
            {
              "internalType": "address",
              "name": "user",
              "type": "address"
            },
            {
              "internalType": "uint256",
              "name": "points",
              "type": "uint256"
            },
            {
              "internalType": "string",
              "name": "reason",
              "type": "string"
            },
            {
              "internalType": "uint256",
              "name": "timestamp",
              "type": "uint256"
            },
            {
              "internalType": "bytes",
              "name": "signature",
              "type": "bytes"
            }
          ],
          "internalType": "struct DebatePoolV2.PointsAward",
          "name": "award",
          "type": "tuple"
        }
      ],
      "name": "awardLikePoints",
      "outputs": [],
      "stateMutability": "nonpayable",
      "type": "function"
    },
    {
      "inputs": [
        {
          "components": [
            {
              "internalType": "address",
              "name": "user",
              "type": "address"
            },
            {
              "internalType": "uint256",
              "name": "points",
              "type": "uint256"
            },
            {
              "internalType": "string",
              "name": "reason",
              "type": "string"
            },
            {
              "internalType": "uint256",
              "name": "timestamp",
              "type": "uint256"
            },
            {
              "internalType": "bytes",
              "name": "signature",
              "type": "bytes"
            }
          ],
          "internalType": "struct DebatePoolV2.PointsAward",
          "name": "award",
          "type": "tuple"
        }
      ],
      "name": "awardPoints",
      "outputs": [],
      "stateMutability": "nonpayable",
      "type": "function"
    },
    {
      "inputs": [
        {
          "components": [
            {
              "internalType": "address",
              "name": "user",
              "type": "address"
            },
            {
              "internalType": "uint256",
              "name": "points",
              "type": "uint256"
            },
            {
              "internalType": "string",
              "name": "reason",
              "type": "string"
            },
            {
              "internalType": "uint256",
              "name": "timestamp",
              "type": "uint256"
            },
            {
              "internalType": "bytes",
              "name": "signature",
              "type": "bytes"
            }
          ],
          "internalType": "struct DebatePoolV2.PointsAward",
          "name": "award",
          "type": "tuple"
        }
      ],
      "name": "awardSharePoints",
      "outputs": [],
      "stateMutability": "nonpayable",
      "type": "function"
    },
    {
      "inputs": [
        {
          "internalType": "uint256",
          "name": "userPointsAmount",
          "type": "uint256"
        },
        {
          "internalType": "uint256",
          "name": "totalPoints",
          "type": "uint256"
        },
        {
          "internalType": "bytes32",
          "name": "messageHash",
          "type": "bytes32"
        },
        {
          "internalType": "bytes",
          "name": "signature",
          "type": "bytes"
        }
      ],
      "name": "claimAirdrop",
      "outputs": [],
      "stateMutability": "nonpayable",
      "type": "function"
    },
    {
      "inputs": [
        {
          "internalType": "string",
          "name": "topic",
          "type": "string"
        },
        {
          "internalType": "uint256",
          "name": "entryFee",
          "type": "uint256"
        },
        {
          "internalType": "uint256",
          "name": "maxParticipants",
          "type": "uint256"
        },
        {
          "internalType": "uint256",
          "name": "duration",
          "type": "uint256"
        }
      ],
      "name": "createDebate",
      "outputs": [
        {
          "internalType": "uint256",
          "name": "",
          "type": "uint256"
        }
      ],
      "stateMutability": "nonpayable",
      "type": "function"
    },
    {
      "inputs": [
        {
          "internalType": "uint256",
          "name": "",
          "type": "uint256"
        }
      ],
      "name": "debates",
      "outputs": [
        {
          "internalType": "uint256",
          "name": "id",
          "type": "uint256"
        },
        {
          "internalType": "string",
          "name": "topic",
          "type": "string"
        },
        {
          "internalType": "uint256",
          "name": "entryFee",
          "type": "uint256"
        },
        {
          "internalType": "uint256",
          "name": "maxParticipants",
          "type": "uint256"
        },
        {
          "internalType": "uint256",
          "name": "startTime",
          "type": "uint256"
        },
        {
          "internalType": "uint256",
          "name": "endTime",
          "type": "uint256"
        },
        {
          "internalType": "address",
          "name": "winner",
          "type": "address"
        },
        {
          "internalType": "bool",
          "name": "isActive",
          "type": "bool"
        },
        {
          "internalType": "bool",
          "name": "isCompleted",
          "type": "bool"
        }
      ],
      "stateMutability": "view",
      "type": "function"
    },
    {
      "inputs": [
        {
          "components": [
            {
              "internalType": "uint256",
              "name": "debateId",
              "type": "uint256"
            },
            {
              "internalType": "address",
              "name": "winner",
              "type": "address"
            },
            {
              "internalType": "uint256",
              "name": "timestamp",
              "type": "uint256"
            },
            {
              "internalType": "bytes",
              "name": "signature",
              "type": "bytes"
            }
          ],
          "internalType": "struct DebatePoolV2.WinnerResult",
          "name": "result",
          "type": "tuple"
        }
      ],
      "name": "declareWinner",
      "outputs": [],
      "stateMutability": "nonpayable",
      "type": "function"
    },
    {
      "inputs": [],
      "name": "eip712Domain",
      "outputs": [
        {
          "internalType": "bytes1",
          "name": "fields",
          "type": "bytes1"
        },
        {
          "internalType": "string",
          "name": "name",
          "type": "string"
        },
        {
          "internalType": "string",
          "name": "version",
          "type": "string"
        },
        {
          "internalType": "uint256",
          "name": "chainId",
          "type": "uint256"
        },
        {
          "internalType": "address",
          "name": "verifyingContract",
          "type": "address"
        },
        {
          "internalType": "bytes32",
          "name": "salt",
          "type": "bytes32"
        },
        {
          "internalType": "uint256[]",
          "name": "extensions",
          "type": "uint256[]"
        }
      ],
      "stateMutability": "view",
      "type": "function"
    },
    {
      "inputs": [],
      "name": "emergencyPaused",
      "outputs": [
        {
          "internalType": "bool",
          "name": "",
          "type": "bool"
        }
      ],
      "stateMutability": "view",
      "type": "function"
    },
    {
      "inputs": [
        {
          "internalType": "uint256",
          "name": "debateId",
          "type": "uint256"
        }
      ],
      "name": "emergencyRefund",
      "outputs": [],
      "stateMutability": "nonpayable",
      "type": "function"
    },
    {
      "inputs": [
        {
          "internalType": "uint256",
          "name": "debateId",
          "type": "uint256"
        }
      ],
      "name": "getDebate",
      "outputs": [
        {
          "components": [
            {
              "internalType": "uint256",
              "name": "id",
              "type": "uint256"
            },
            {
              "internalType": "string",
              "name": "topic",
              "type": "string"
            },
            {
              "internalType": "uint256",
              "name": "entryFee",
              "type": "uint256"
            },
            {
              "internalType": "uint256",
              "name": "maxParticipants",
              "type": "uint256"
            },
            {
              "internalType": "uint256",
              "name": "startTime",
              "type": "uint256"
            },
            {
              "internalType": "uint256",
              "name": "endTime",
              "type": "uint256"
            },
            {
              "internalType": "address[]",
              "name": "participants",
              "type": "address[]"
            },
            {
              "internalType": "address",
              "name": "winner",
              "type": "address"
            },
            {
              "internalType": "bool",
              "name": "isActive",
              "type": "bool"
            },
            {
              "internalType": "bool",
              "name": "isCompleted",
              "type": "bool"
            }
          ],
          "internalType": "struct DebatePoolV2.Debate",
          "name": "",
          "type": "tuple"
        }
      ],
      "stateMutability": "view",
      "type": "function"
    },
    {
      "inputs": [
        {
          "internalType": "address",
          "name": "user",
          "type": "address"
        }
      ],
      "name": "getUserDebates",
      "outputs": [
        {
          "internalType": "uint256[]",
          "name": "",
          "type": "uint256[]"
        }
      ],
      "stateMutability": "view",
      "type": "function"
    },
    {
      "inputs": [
        {
          "internalType": "address",
          "name": "user",
          "type": "address"
        }
      ],
      "name": "getUserPoints",
      "outputs": [
        {
          "internalType": "uint256",
          "name": "",
          "type": "uint256"
        }
      ],
      "stateMutability": "view",
      "type": "function"
    },
    {
      "inputs": [
        {
          "internalType": "uint256",
          "name": "debateId",
          "type": "uint256"
        },
        {
          "internalType": "address",
          "name": "user",
          "type": "address"
        }
      ],
      "name": "isParticipant",
      "outputs": [
        {
          "internalType": "bool",
          "name": "",
          "type": "bool"
        }
      ],
      "stateMutability": "view",
      "type": "function"
    },
    {
      "inputs": [
        {
          "internalType": "uint256",
          "name": "debateId",
          "type": "uint256"
        }
      ],
      "name": "joinDebate",
      "outputs": [],
      "stateMutability": "nonpayable",
      "type": "function"
    },
    {
      "inputs": [],
      "name": "nextDebateId",
      "outputs": [
        {
          "internalType": "uint256",
          "name": "",
          "type": "uint256"
        }
      ],
      "stateMutability": "view",
      "type": "function"
    },
    {
      "inputs": [],
      "name": "oracle",
      "outputs": [
        {
          "internalType": "address",
          "name": "",
          "type": "address"
        }
      ],
      "stateMutability": "view",
      "type": "function"
    },
    {
      "inputs": [],
      "name": "owner",
      "outputs": [
        {
          "internalType": "address",
          "name": "",
          "type": "address"
        }
      ],
      "stateMutability": "view",
      "type": "function"
    },
    {
      "inputs": [
        {
          "internalType": "uint256",
          "name": "debateId",
          "type": "uint256"
        }
      ],
      "name": "processExpiredDebate",
      "outputs": [],
      "stateMutability": "nonpayable",
      "type": "function"
    },
    {
      "inputs": [
        {
          "internalType": "uint256",
          "name": "",
          "type": "uint256"
        }
      ],
      "name": "refundDeadlines",
      "outputs": [
        {
          "internalType": "uint256",
          "name": "",
          "type": "uint256"
        }
      ],
      "stateMutability": "view",
      "type": "function"
    },
    {
      "inputs": [],
      "name": "renounceOwnership",
      "outputs": [],
      "stateMutability": "nonpayable",
      "type": "function"
    },
    {
      "inputs": [
        {
          "internalType": "uint256",
          "name": "debateId",
          "type": "uint256"
        }
      ],
      "name": "requestRefund",
      "outputs": [],
      "stateMutability": "nonpayable",
      "type": "function"
    },
    {
      "inputs": [
        {
          "internalType": "address",
          "name": "_airdropToken",
          "type": "address"
        },
        {
          "internalType": "uint256",
          "name": "_totalAmount",
          "type": "uint256"
        }
      ],
      "name": "setupAirdrop",
      "outputs": [],
      "stateMutability": "nonpayable",
      "type": "function"
    },
    {
      "inputs": [],
      "name": "toggleEmergencyPause",
      "outputs": [],
      "stateMutability": "nonpayable",
      "type": "function"
    },
    {
      "inputs": [],
      "name": "totalAirdropAmount",
      "outputs": [
        {
          "internalType": "uint256",
          "name": "",
          "type": "uint256"
        }
      ],
      "stateMutability": "view",
      "type": "function"
    },
    {
      "inputs": [
        {
          "internalType": "address",
          "name": "newOwner",
          "type": "address"
        }
      ],
      "name": "transferOwnership",
      "outputs": [],
      "stateMutability": "nonpayable",
      "type": "function"
    },
    {
      "inputs": [],
      "name": "usdcToken",
      "outputs": [
        {
          "internalType": "contract IERC20",
          "name": "",
          "type": "address"
        }
      ],
      "stateMutability": "view",
      "type": "function"
    },
    {
      "inputs": [
        {
          "internalType": "address",
          "name": "",
          "type": "address"
        },
        {
          "internalType": "uint256",
          "name": "",
          "type": "uint256"
        }
      ],
      "name": "userDebates",
      "outputs": [
        {
          "internalType": "uint256",
          "name": "",
          "type": "uint256"
        }
      ],
      "stateMutability": "view",
      "type": "function"
    },
    {
      "inputs": [
        {
          "internalType": "address",
          "name": "",
          "type": "address"
        }
      ],
      "name": "userPoints",
      "outputs": [
        {
          "internalType": "uint256",
          "name": "",
          "type": "uint256"
        }
      ],
      "stateMutability": "view",
      "type": "function"
    },
    {
      "inputs": [],
      "name": "withdrawPlatformFees",
      "outputs": [],
      "stateMutability": "nonpayable",
      "type": "function"
    }
  ],
  "bytecode": "0x6101a060405260016004556005805460ff19169055600a805460ff60a01b191690553480156200002e57600080fd5b506040516200411538038062004115833981016040819052620000519162000349565b604080518082018252600c81526b2232b130ba32a837b7b62b1960a11b60208083019190915282518084019093526001808452603160f81b91840191909152600055903380620000bc57604051631e4fbdf760e01b8152600060048201526024015b60405180910390fd5b620000c7816200025e565b50620000d5826002620002b0565b61012052620000e6816003620002b0565b61014052815160208084019190912060e052815190820120610100524660a0526200017460e05161010051604080517f8b73c3c69bb8fe3d512ecc4cf759cc79239f7b179b0ffacaa9a75d522b39400f60208201529081019290925260608201524660808201523060a082015260009060c00160405160208183030381529060405280519060200120905090565b60805250503060c0526001600160a01b038216620001e05760405162461bcd60e51b815260206004820152602260248201527f446562617465506f6f6c56323a20496e76616c69642055534443206164647265604482015261737360f01b6064820152608401620000b3565b6001600160a01b038116620002445760405162461bcd60e51b8152602060048201526024808201527f446562617465506f6f6c56323a20496e76616c6964206f7261636c65206164646044820152637265737360e01b6064820152608401620000b3565b6001600160a01b0391821661016052166101805262000567565b600180546001600160a01b038381166001600160a01b0319831681179093556040519116919082907f8be0079c531659141344cd1fd0a4f28419497f9722a3daafe3b4186f6b6457e090600090a35050565b6000602083511015620002d057620002c883620002e9565b9050620002e3565b81620002dd848262000426565b5060ff90505b92915050565b600080829050601f8151111562000317578260405163305a27a960e01b8152600401620000b39190620004f2565b8051620003248262000542565b179392505050565b80516001600160a01b03811681146200034457600080fd5b919050565b600080604083850312156200035d57600080fd5b62000368836200032c565b915062000378602084016200032c565b90509250929050565b634e487b7160e01b600052604160045260246000fd5b600181811c90821680620003ac57607f821691505b602082108103620003cd57634e487b7160e01b600052602260045260246000fd5b50919050565b601f8211156200042157600081815260208120601f850160051c81016020861015620003fc5750805b601f850160051c820191505b818110156200041d5782815560010162000408565b5050505b505050565b81516001600160401b0381111562000442576200044262000381565b6200045a8162000453845462000397565b84620003d3565b602080601f831160018114620004925760008415620004795750858301515b600019600386901b1c1916600185901b1785556200041d565b600085815260208120601f198616915b82811015620004c357888601518255948401946001909101908401620004a2565b5085821015620004e25787850151600019600388901b60f8161c191681555b5050505050600190811b01905550565b600060208083528351808285015260005b81811015620005215785810183015185820160400152820162000503565b506000604082860101526040601f19601f8301168501019250505092915050565b80516020808301519190811015620003cd5760001960209190910360031b1b16919050565b60805160a05160c05160e0516101005161012051610140516101605161018051613af062000625600039600081816103d90152818161065f01528181610a2d015281816113f90152612bc20152600081816102680152818161084c01528181610f7c0152818161171901528181611b7501528181611c47015281816121f80152612647015260006129730152600061294101526000612e1e01526000612df601526000612d5101526000612d7b01526000612da50152613af06000f3fe608060405234801561001057600080fd5b506004361061025e5760003560e01c80638da5cb5b11610146578063d1b6dd30116100c3578063f2fde38b11610087578063f2fde38b1461054a578063f50ddbc71461055d578063f5d8e5d91461057d578063f5fce24514610590578063f67dc95f1461059a578063fde59fa3146102c757600080fd5b8063d1b6dd30146104e8578063dd8704c114610508578063dd9151291461051b578063e1f1c4a71461052e578063f0f588361461053757600080fd5b8063b073f6871161010a578063b073f687146104a8578063b0f3c981146104b1578063b68c72b9146104c4578063be3d48c6146104cd578063d0b7830b146104e057600080fd5b80638da5cb5b1461042857806398d336af14610439578063a29cdc7214610459578063a4b2409e1461046c578063aeefe31f1461047f57600080fd5b80634d06068a116101df578063715018a6116101a3578063715018a6146103b9578063758d9b89146103c15780637dc0d1d0146103d45780637f6578d3146103fb57806384b0196e146104055780638c7971c51461042057600080fd5b80634d06068a1461033857806359758fcf1461034b5780635abead8a14610373578063704115ad1461038657806370e5deb9146103a657600080fd5b8063201042891161022657806320104289146102e257806327c830a914610306578063361955131461031357806336dc37ab1461031c5780633a73d46e1461032f57600080fd5b806311eac85514610263578063147e291f146102a757806315548232146102b15780631c2155d6146102c75780631eca9561146102cf575b600080fd5b61028a7f000000000000000000000000000000000000000000000000000000000000000081565b6040516001600160a01b0390911681526020015b60405180910390f35b6102af6105ba565b005b6102b9601481565b60405190815260200161029e565b6102b9600a81565b6102b96102dd366004613141565b61060f565b600a546102f690600160a01b900460ff1681565b604051901515815260200161029e565b6005546102f69060ff1681565b6102b960045481565b6102af61032a36600461316b565b610640565b6102b9600b5481565b600a5461028a906001600160a01b031681565b61035e61035936600461316b565b61093d565b60405161029e999897969594939291906131ca565b6102b96103813660046132f6565b610a20565b61039961039436600461334a565b610e72565b60405161029e91906133a0565b6102af6103b436600461316b565b610ede565b6102af611049565b6102f66103cf3660046133b3565b61105d565b61028a7f000000000000000000000000000000000000000000000000000000000000000081565b6102b962093a8081565b61040d611072565b60405161029e97969594939291906133df565b6102b9606481565b6001546001600160a01b031661028a565b61044c61044736600461316b565b6110b8565b60405161029e9190613488565b6102af61046736600461353c565b6112cf565b6102af61047a36600461316b565b61157a565b6102b961048d36600461334a565b6001600160a01b031660009081526009602052604090205490565b6102b9600c5481565b6102af6104bf366004613596565b61183c565b6102b96103e881565b6102af6104db366004613596565b6119b3565b6102af611b55565b6102b96104f636600461334a565b600d6020526000908152604090205481565b6102af610516366004613141565b611d33565b6102af610529366004613596565b611e50565b6102b961271081565b6102af61054536600461364c565b611fef565b6102af61055836600461334a565b61239f565b6102b961056b36600461334a565b60096020526000908152604090205481565b6102af61058b36600461316b565b6123da565b6102b96201518081565b6102b96105a836600461316b565b60086020526000908152604090205481565b6105c2612814565b6005805460ff8082161560ff1990921682179092556040519116151581527fb5838f871ddee4623a406029b1a0b6013e0ec30f2dc114307f21459a800a82969060200160405180910390a1565b6007602052816000526040600020818154811061062b57600080fd5b90600052602060002001600091509150505481565b6001546001600160a01b03163314806106815750336001600160a01b037f000000000000000000000000000000000000000000000000000000000000000016145b6106f85760405162461bcd60e51b815260206004820152603960248201527f446562617465506f6f6c56323a204f6e6c79206f776e6572206f72206f72616360448201527f6c652063616e2063616c6c20746869732066756e6374696f6e0000000000000060648201526084015b60405180910390fd5b8060008111801561070a575060045481105b6107265760405162461bcd60e51b81526004016106ef906136f4565b61072e612841565b6000828152600660205260409020600581015461074f906201518090613741565b421161079d5760405162461bcd60e51b815260206004820152601d60248201527f446562617465506f6f6c56323a204e6f7420657870697265642079657400000060448201526064016106ef565b6007810154600160a81b900460ff16156107f95760405162461bcd60e51b815260206004820152601f60248201527f446562617465506f6f6c56323a20416c726561647920636f6d706c657465640060448201526064016106ef565b60005b600682015481101561091957600082600601828154811061081f5761081f613754565b600091825260209091200154600284015460405163a9059cbb60e01b81526001600160a01b0392831693507f00000000000000000000000000000000000000000000000000000000000000009092169163a9059cbb916108849185919060040161376a565b6020604051808303816000875af11580156108a3573d6000803e3d6000fd5b505050506040513d601f19601f820116820180604052508101906108c79190613783565b50847f79ff6a60b3e21b3630b207e2a7b0b50b69b197d3d7ca776108ed2afb8fbac8dc8285600201546040516108fe92919061376a565b60405180910390a25080610911816137ac565b9150506107fc565b50600701805461ffff60a01b1916600160a81b1790556109396001600055565b5050565b6006602052600090815260409020805460018201805491929161095f906137c5565b80601f016020809104026020016040519081016040528092919081815260200182805461098b906137c5565b80156109d85780601f106109ad576101008083540402835291602001916109d8565b820191906000526020600020905b8154815290600101906020018083116109bb57829003601f168201915b50505060028401546003850154600486015460058701546007909701549596929591945092506001600160a01b0381169060ff600160a01b8204811691600160a81b90041689565b6000336001600160a01b037f00000000000000000000000000000000000000000000000000000000000000001614610ab35760405162461bcd60e51b815260206004820152603060248201527f446562617465506f6f6c56323a204f6e6c79206f7261636c652063616e20636160448201526f3636103a3434b990333ab731ba34b7b760811b60648201526084016106ef565b60055460ff1615610b065760405162461bcd60e51b815260206004820181905260248201527f446562617465506f6f6c56323a20436f6e74726163742069732070617573656460448201526064016106ef565b6000855111610b635760405162461bcd60e51b815260206004820152602360248201527f446562617465506f6f6c56323a20546f7069632063616e6e6f7420626520656d60448201526270747960e81b60648201526084016106ef565b60008411610bca5760405162461bcd60e51b815260206004820152602e60248201527f446562617465506f6f6c56323a20456e74727920666565206d7573742062652060448201526d067726561746572207468616e20360941b60648201526084016106ef565b60018311610c335760405162461bcd60e51b815260206004820152603060248201527f446562617465506f6f6c56323a204d75737420616c6c6f77206174206c65617360448201526f742032207061727469636970616e747360801b60648201526084016106ef565b60008211610c995760405162461bcd60e51b815260206004820152602d60248201527f446562617465506f6f6c56323a204475726174696f6e206d757374206265206760448201526c0726561746572207468616e203609c1b60648201526084016106ef565b6004805460009182610caa836137ac565b909155509050426000610cbd8583613741565b9050604051806101400160405280848152602001898152602001888152602001878152602001838152602001828152602001600067ffffffffffffffff811115610d0957610d0961322a565b604051908082528060200260200182016040528015610d32578160200160208202803683370190505b50815260006020808301829052600160408085018290526060909401839052878352600682529290912083518155908301519091820190610d739082613848565b5060408201516002820155606082015160038201556080820151600482015560a0820151600582015560c08201518051610db79160068401916020909101906130ab565b5060e082015160079091018054610100840151610120909401511515600160a81b0260ff60a81b19941515600160a01b026001600160a81b03199092166001600160a01b03909416939093171792909216179055610e1862093a8082613741565b60008481526008602052604090819020919091555183907f6f1ada89a34bf137d8ad7b96784cda535ed20442ace125386c0ab1efe849aa4890610e5e908b908b90613908565b60405180910390a250909695505050505050565b6001600160a01b038116600090815260076020908152604091829020805483518184028101840190945280845260609392830182828015610ed257602002820191906000526020600020905b815481526020019060010190808311610ebe575b50505050509050919050565b610ee6612814565b80600081118015610ef8575060045481105b610f145760405162461bcd60e51b81526004016106ef906136f4565b610f1c612841565b6000828152600660205260408120905b6006820154811015610919576000826006018281548110610f4f57610f4f613754565b600091825260209091200154600284015460405163a9059cbb60e01b81526001600160a01b0392831693507f00000000000000000000000000000000000000000000000000000000000000009092169163a9059cbb91610fb49185919060040161376a565b6020604051808303816000875af1158015610fd3573d6000803e3d6000fd5b505050506040513d601f19601f82011682018060405250810190610ff79190613783565b50847f79ff6a60b3e21b3630b207e2a7b0b50b69b197d3d7ca776108ed2afb8fbac8dc82856002015460405161102e92919061376a565b60405180910390a25080611041816137ac565b915050610f2c565b611051612814565b61105b600061286b565b565b600061106983836128bd565b90505b92915050565b60006060806000806000606061108661293a565b61108e61296c565b60408051600080825260208201909252600f60f81b9b939a50919850469750309650945092509050565b61111b6040518061014001604052806000815260200160608152602001600081526020016000815260200160008152602001600081526020016060815260200160006001600160a01b031681526020016000151581526020016000151581525090565b8160008111801561112d575060045481105b6111495760405162461bcd60e51b81526004016106ef906136f4565b600660008481526020019081526020016000206040518061014001604052908160008201548152602001600182018054611182906137c5565b80601f01602080910402602001604051908101604052809291908181526020018280546111ae906137c5565b80156111fb5780601f106111d0576101008083540402835291602001916111fb565b820191906000526020600020905b8154815290600101906020018083116111de57829003601f168201915b50505050508152602001600282015481526020016003820154815260200160048201548152602001600582015481526020016006820180548060200260200160405190810160405280929190818152602001828054801561128557602002820191906000526020600020905b81546001600160a01b03168152600190910190602001808311611267575b5050509183525050600791909101546001600160a01b038116602083015260ff600160a01b8204811615156040840152600160a81b90910416151560609091015291505b50919050565b6112d7612841565b600a54600160a01b900460ff166113305760405162461bcd60e51b815260206004820181905260248201527f446562617465506f6f6c56323a2041697264726f70206e6f742061637469766560448201526064016106ef565b600084116113805760405162461bcd60e51b815260206004820181905260248201527f446562617465506f6f6c56323a204e6f20706f696e747320746f20636c61696d60448201526064016106ef565b604080517f09abcf75d4d2eff6e6e603a9b1412f04c8e2c793239c046c8c6ba628cf522c2a6020820152908101859052606081018490526080810183905260009060a00160405160208183030381529060405280519060200120905060006113e782612999565b905060006113f582856129c6565b90507f00000000000000000000000000000000000000000000000000000000000000006001600160a01b0316816001600160a01b0316146114485760405162461bcd60e51b81526004016106ef9061392a565b600086600c54896114599190613961565b6114639190613978565b9050600081116114b55760405162461bcd60e51b815260206004820181905260248201527f446562617465506f6f6c56323a204e6f20746f6b656e7320746f20636c61696d60448201526064016106ef565b600a5460405163a9059cbb60e01b81526001600160a01b039091169063a9059cbb906114e7903390859060040161376a565b6020604051808303816000875af1158015611506573d6000803e3d6000fd5b505050506040513d601f19601f8201168201806040525081019061152a9190613783565b5060408051828152602081018a905233917fd0755a9ef5a74f50d34b3503bb5b65ad71a112c001b76dfa6412c9aa4a1f43b0910160405180910390a2505050506115746001600055565b50505050565b8060008111801561158c575060045481105b6115a85760405162461bcd60e51b81526004016106ef906136f4565b6115b0612841565b6000828152600660205260409020600581015442116116115760405162461bcd60e51b815260206004820181905260248201527f446562617465506f6f6c56323a20446562617465206e6f74206578706972656460448201526064016106ef565b6007810154600160a81b900460ff161561163d5760405162461bcd60e51b81526004016106ef9061399a565b61164783336128bd565b6116935760405162461bcd60e51b815260206004820152601f60248201527f446562617465506f6f6c56323a204e6f742061207061727469636970616e740060448201526064016106ef565b6000838152600860205260409020544211156116fd5760405162461bcd60e51b815260206004820152602360248201527f446562617465506f6f6c56323a20526566756e6420706572696f6420657870696044820152621c995960ea1b60648201526084016106ef565b600281015460405163a9059cbb60e01b81526001600160a01b037f0000000000000000000000000000000000000000000000000000000000000000169163a9059cbb9161174e91339160040161376a565b6020604051808303816000875af115801561176d573d6000803e3d6000fd5b505050506040513d601f19601f820116820180604052508101906117919190613783565b6117e95760405162461bcd60e51b8152602060048201526024808201527f446562617465506f6f6c56323a20526566756e64207472616e736665722066616044820152631a5b195960e21b60648201526084016106ef565b6117f383336129f0565b827f79ff6a60b3e21b3630b207e2a7b0b50b69b197d3d7ca776108ed2afb8fbac8dc33836002015460405161182992919061376a565b60405180910390a2506109396001600055565b611844612841565b60008160200151116118ac5760405162461bcd60e51b815260206004820152602b60248201527f446562617465506f6f6c56323a20506f696e7473206d7573742062652067726560448201526a061746572207468616e20360ac1b60648201526084016106ef565b60008160400151511161190d5760405162461bcd60e51b8152602060048201526024808201527f446562617465506f6f6c56323a20526561736f6e2063616e6e6f7420626520656044820152636d70747960e01b60648201526084016106ef565b61191681612b0f565b6119325760405162461bcd60e51b81526004016106ef9061392a565b60208082015182516001600160a01b03166000908152600990925260408220805491929091611962908490613741565b9250508190555080600001516001600160a01b0316600080516020613a9b8339815191528260200151836040015160405161199e9291906139df565b60405180910390a26119b06001600055565b50565b6119bb612841565b600a816020015114611a215760405162461bcd60e51b815260206004820152602960248201527f446562617465506f6f6c56323a20496e76616c696420736861726520706f696e6044820152681d1cc8185b5bdd5b9d60ba1b60648201526084016106ef565b6040805180820182526005815264736861726560d81b6020918201529082015180519101207fc4cdc3d8a828364413eb5a76eb1fa4225d58cb47d3674544d05ebb54f20c552914611ab45760405162461bcd60e51b815260206004820152601c60248201527f446562617465506f6f6c56323a20496e76616c696420726561736f6e0000000060448201526064016106ef565b611abd81612b0f565b611ad95760405162461bcd60e51b81526004016106ef9061392a565b80516001600160a01b031660009081526009602052604081208054600a9290611b03908490613741565b9250508190555080600001516001600160a01b0316600080516020613a9b833981519152600a60405161199e91815260406020820181905260059082015264736861726560d81b606082015260800190565b611b5d612814565b6040516370a0823160e01b81523060048201526000907f00000000000000000000000000000000000000000000000000000000000000006001600160a01b0316906370a0823190602401602060405180830381865afa158015611bc4573d6000803e3d6000fd5b505050506040513d601f19601f82011682018060405250810190611be89190613a00565b905060008111611c455760405162461bcd60e51b815260206004820152602260248201527f446562617465506f6f6c56323a204e6f2066756e647320746f20776974686472604482015261617760f01b60648201526084016106ef565b7f00000000000000000000000000000000000000000000000000000000000000006001600160a01b031663a9059cbb611c866001546001600160a01b031690565b836040518363ffffffff1660e01b8152600401611ca492919061376a565b6020604051808303816000875af1158015611cc3573d6000803e3d6000fd5b505050506040513d601f19601f82011682018060405250810190611ce79190613783565b6119b05760405162461bcd60e51b815260206004820152601f60248201527f446562617465506f6f6c56323a205769746864726177616c206661696c65640060448201526064016106ef565b611d3b612814565b6001600160a01b038216611d915760405162461bcd60e51b815260206004820152601b60248201527f446562617465506f6f6c56323a20496e76616c696420746f6b656e000000000060448201526064016106ef565b60008111611de15760405162461bcd60e51b815260206004820152601c60248201527f446562617465506f6f6c56323a20496e76616c696420616d6f756e740000000060448201526064016106ef565b600a8054600c83905543600b8190556001600160a81b03199091166001600160a01b038516908117600160a01b179092556040805184815260208101929092527fed7f60bf056d1b78417c82bbbc5fe32284e4ff57356f801daa6844f110322a41910160405180910390a25050565b611e58612841565b600a816020015114611ebd5760405162461bcd60e51b815260206004820152602860248201527f446562617465506f6f6c56323a20496e76616c6964206c696b6520706f696e746044820152671cc8185b5bdd5b9d60c21b60648201526084016106ef565b60408051808201825260048152636c696b6560e01b6020918201529082015180519101207f16a69a64601e323737c13af3e3dd037eca589d19787dde3fb106c4d760353fed14611f4f5760405162461bcd60e51b815260206004820152601c60248201527f446562617465506f6f6c56323a20496e76616c696420726561736f6e0000000060448201526064016106ef565b611f5881612b0f565b611f745760405162461bcd60e51b81526004016106ef9061392a565b80516001600160a01b031660009081526009602052604081208054600a9290611f9e908490613741565b9250508190555080600001516001600160a01b0316600080516020613a9b833981519152600a60405161199e918152604060208201819052600490820152636c696b6560e01b606082015260800190565b80518015801590612001575060045481105b61201d5760405162461bcd60e51b81526004016106ef906136f4565b612025612841565b815160009081526006602052604090206007810154600160a01b900460ff166120605760405162461bcd60e51b81526004016106ef90613a19565b6007810154600160a81b900460ff161561208c5760405162461bcd60e51b81526004016106ef9061399a565b60068101546120dd5760405162461bcd60e51b815260206004820152601d60248201527f446562617465506f6f6c56323a204e6f207061727469636970616e747300000060448201526064016106ef565b6120ef836000015184602001516128bd565b61214a5760405162461bcd60e51b815260206004820152602660248201527f446562617465506f6f6c56323a2057696e6e6572206e6f74206120706172746960448201526518da5c185b9d60d21b60648201526084016106ef565b61215383612bff565b61216f5760405162461bcd60e51b81526004016106ef9061392a565b6006810154600282015460009161218591613961565b90506000612710612197601484613961565b6121a19190613978565b905060006121af8284613a5b565b6020870151600786018054600160a81b6001600160a01b03808516600161ff0160a01b0319909316929092171760ff60a01b191690915560405163a9059cbb60e01b81529293507f0000000000000000000000000000000000000000000000000000000000000000169163a9059cbb9161222d91859060040161376a565b6020604051808303816000875af115801561224c573d6000803e3d6000fd5b505050506040513d601f19601f820116820180604052508101906122709190613783565b6122c85760405162461bcd60e51b8152602060048201526024808201527f446562617465506f6f6c56323a2057696e6e6572207472616e736665722066616044820152631a5b195960e21b60648201526084016106ef565b6020808701516001600160a01b0316600090815260099091526040812080546103e892906122f7908490613741565b9091555050602080870151604080516103e88152928301819052600d908301526c3232b130ba32afbbb4b73732b960991b60608301526001600160a01b031690600080516020613a9b8339815191529060800160405180910390a2855160208701516040517f7ed5face07afb2b0e99df53523951350d2a3d4f5d105a0dd2110703efe3995379161238991859061376a565b60405180910390a2505050506109396001600055565b6123a7612814565b6001600160a01b0381166123d157604051631e4fbdf760e01b8152600060048201526024016106ef565b6119b08161286b565b806000811180156123ec575060045481105b6124085760405162461bcd60e51b81526004016106ef906136f4565b60008281526006602052604090206007810154839190600160a01b900460ff166124445760405162461bcd60e51b81526004016106ef90613a19565b80600401544210156124a45760405162461bcd60e51b8152602060048201526024808201527f446562617465506f6f6c56323a2044656261746520686173206e6f74207374616044820152631c9d195960e21b60648201526084016106ef565b80600501544211156124f85760405162461bcd60e51b815260206004820152601e60248201527f446562617465506f6f6c56323a204465626174652068617320656e646564000060448201526064016106ef565b60055460ff161561254b5760405162461bcd60e51b815260206004820181905260248201527f446562617465506f6f6c56323a20436f6e74726163742069732070617573656460448201526064016106ef565b612553612841565b60008481526006602081905260409091206003810154918101549091116125bc5760405162461bcd60e51b815260206004820152601c60248201527f446562617465506f6f6c56323a204465626174652069732066756c6c0000000060448201526064016106ef565b6125c685336128bd565b1561261f5760405162461bcd60e51b815260206004820152602360248201527f446562617465506f6f6c56323a20416c72656164792070617274696369706174604482015262696e6760e81b60648201526084016106ef565b60028101546040516323b872dd60e01b815233600482015230602482015260448101919091527f00000000000000000000000000000000000000000000000000000000000000006001600160a01b0316906323b872dd906064016020604051808303816000875af1158015612698573d6000803e3d6000fd5b505050506040513d601f19601f820116820180604052508101906126bc9190613783565b6127135760405162461bcd60e51b815260206004820152602260248201527f446562617465506f6f6c56323a2055534443207472616e73666572206661696c604482015261195960f21b60648201526084016106ef565b600681018054600181810183556000928352602080842090920180546001600160a01b03191633908117909155808452600783526040808520805493840181558552838520909201899055835260099091528120805460649290612778908490613741565b90915550506040513390600080516020613a9b833981519152906127cc9060648152604060208201819052601490820152733232b130ba32afb830b93a34b1b4b830ba34b7b760611b606082015260800190565b60405180910390a260405133815285907f7dd8cb04159701bc1976c246434d7d96812782e7489e6c5c34db49a388fe9e809060200160405180910390a2506115746001600055565b6001546001600160a01b0316331461105b5760405163118cdaa760e01b81523360048201526024016106ef565b60026000540361286457604051633ee5aeb560e01b815260040160405180910390fd5b6002600055565b600180546001600160a01b038381166001600160a01b0319831681179093556040519116919082907f8be0079c531659141344cd1fd0a4f28419497f9722a3daafe3b4186f6b6457e090600090a35050565b6000828152600660205260408120815b600682015481101561292f57836001600160a01b03168260060182815481106128f8576128f8613754565b6000918252602090912001546001600160a01b03160361291d5760019250505061106c565b80612927816137ac565b9150506128cd565b506000949350505050565b60606129677f00000000000000000000000000000000000000000000000000000000000000006002612c99565b905090565b60606129677f00000000000000000000000000000000000000000000000000000000000000006003612c99565b600061106c6129a6612d44565b8360405161190160f01b8152600281019290925260228201526042902090565b6000806000806129d68686612e6f565b9250925092506129e68282612ebc565b5090949350505050565b6000828152600660205260408120905b600682015481101561157457826001600160a01b0316826006018281548110612a2b57612a2b613754565b6000918252602090912001546001600160a01b031603612afd57600682018054612a5790600190613a5b565b81548110612a6757612a67613754565b6000918252602090912001546006830180546001600160a01b039092169183908110612a9557612a95613754565b9060005260206000200160006101000a8154816001600160a01b0302191690836001600160a01b0316021790555081600601805480612ad657612ad6613a6e565b600082815260209020810160001990810180546001600160a01b0319169055019055611574565b80612b07816137ac565b915050612a00565b6000807f3f1d2751ce91023ddbb199169d15e32e1da24b78acebc8791e2543f34520bd93836000015184602001518560400151805190602001208660600151604051602001612b899594939291909485526001600160a01b0393909316602085015260408401919091526060830152608082015260a00190565b6040516020818303038152906040528051906020012090506000612bac82612999565b90506000612bbe8286608001516129c6565b90507f00000000000000000000000000000000000000000000000000000000000000006001600160a01b0316816001600160a01b0316149350505050919050565b6000807fb117e7df7afc3d596b66d8aed8b3987c92d6781a819d58bfe89281bd26f969c7836000015184602001518560400151604051602001612c64949392919093845260208401929092526001600160a01b03166040830152606082015260800190565b6040516020818303038152906040528051906020012090506000612c8782612999565b90506000612bbe8286606001516129c6565b606060ff8314612cb357612cac83612f75565b905061106c565b818054612cbf906137c5565b80601f0160208091040260200160405190810160405280929190818152602001828054612ceb906137c5565b8015612d385780601f10612d0d57610100808354040283529160200191612d38565b820191906000526020600020905b815481529060010190602001808311612d1b57829003601f168201915b5050505050905061106c565b6000306001600160a01b037f000000000000000000000000000000000000000000000000000000000000000016148015612d9d57507f000000000000000000000000000000000000000000000000000000000000000046145b15612dc757507f000000000000000000000000000000000000000000000000000000000000000090565b612967604080517f8b73c3c69bb8fe3d512ecc4cf759cc79239f7b179b0ffacaa9a75d522b39400f60208201527f0000000000000000000000000000000000000000000000000000000000000000918101919091527f000000000000000000000000000000000000000000000000000000000000000060608201524660808201523060a082015260009060c00160405160208183030381529060405280519060200120905090565b60008060008351604103612ea95760208401516040850151606086015160001a612e9b88828585612fb4565b955095509550505050612eb5565b50508151600091506002905b9250925092565b6000826003811115612ed057612ed0613a84565b03612ed9575050565b6001826003811115612eed57612eed613a84565b03612f0b5760405163f645eedf60e01b815260040160405180910390fd5b6002826003811115612f1f57612f1f613a84565b03612f405760405163fce698f760e01b8152600481018290526024016106ef565b6003826003811115612f5457612f54613a84565b03610939576040516335e2f38360e21b8152600481018290526024016106ef565b60606000612f8283613083565b604080516020808252818301909252919250600091906020820181803683375050509182525060208101929092525090565b600080807f7fffffffffffffffffffffffffffffff5d576e7357a4501ddfe92f46681b20a0841115612fef5750600091506003905082613079565b604080516000808252602082018084528a905260ff891692820192909252606081018790526080810186905260019060a0016020604051602081039080840390855afa158015613043573d6000803e3d6000fd5b5050604051601f1901519150506001600160a01b03811661306f57506000925060019150829050613079565b9250600091508190505b9450945094915050565b600060ff8216601f81111561106c57604051632cd44ac360e21b815260040160405180910390fd5b828054828255906000526020600020908101928215613100579160200282015b8281111561310057825182546001600160a01b0319166001600160a01b039091161782556020909201916001909101906130cb565b5061310c929150613110565b5090565b5b8082111561310c5760008155600101613111565b80356001600160a01b038116811461313c57600080fd5b919050565b6000806040838503121561315457600080fd5b61315d83613125565b946020939093013593505050565b60006020828403121561317d57600080fd5b5035919050565b6000815180845260005b818110156131aa5760208185018101518683018201520161318e565b506000602082860101526020601f19601f83011685010191505092915050565b60006101208b83528060208401526131e48184018c613184565b604084019a909a5250506060810196909652608086019490945260a08501929092526001600160a01b031660c0840152151560e083015215156101009091015292915050565b634e487b7160e01b600052604160045260246000fd5b60405160a0810167ffffffffffffffff811182821017156132635761326361322a565b60405290565b600082601f83011261327a57600080fd5b813567ffffffffffffffff808211156132955761329561322a565b604051601f8301601f19908116603f011681019082821181831017156132bd576132bd61322a565b816040528381528660208588010111156132d657600080fd5b836020870160208301376000602085830101528094505050505092915050565b6000806000806080858703121561330c57600080fd5b843567ffffffffffffffff81111561332357600080fd5b61332f87828801613269565b97602087013597506040870135966060013595509350505050565b60006020828403121561335c57600080fd5b61106982613125565b600081518084526020808501945080840160005b8381101561339557815187529582019590820190600101613379565b509495945050505050565b6020815260006110696020830184613365565b600080604083850312156133c657600080fd5b823591506133d660208401613125565b90509250929050565b60ff60f81b8816815260e0602082015260006133fe60e0830189613184565b82810360408401526134108189613184565b606084018890526001600160a01b038716608085015260a0840186905283810360c085015290506134418185613365565b9a9950505050505050505050565b600081518084526020808501945080840160005b838110156133955781516001600160a01b031687529582019590820190600101613463565b6020815281516020820152600060208301516101408060408501526134b1610160850183613184565b91506040850151606085015260608501516080850152608085015160a085015260a085015160c085015260c0850151601f198584030160e08601526134f6838261344f565b92505060e0850151610100613515818701836001600160a01b03169052565b860151905061012061352a8682018315159052565b90950151151593019290925250919050565b6000806000806080858703121561355257600080fd5b843593506020850135925060408501359150606085013567ffffffffffffffff81111561357e57600080fd5b61358a87828801613269565b91505092959194509250565b6000602082840312156135a857600080fd5b813567ffffffffffffffff808211156135c057600080fd5b9083019060a082860312156135d457600080fd5b6135dc613240565b6135e583613125565b81526020830135602082015260408301358281111561360357600080fd5b61360f87828601613269565b6040830152506060830135606082015260808301358281111561363157600080fd5b61363d87828601613269565b60808301525095945050505050565b60006020828403121561365e57600080fd5b813567ffffffffffffffff8082111561367657600080fd5b908301906080828603121561368a57600080fd5b6040516080810181811083821117156136a5576136a561322a565b604052823581526136b860208401613125565b6020820152604083013560408201526060830135828111156136d957600080fd5b6136e587828601613269565b60608301525095945050505050565b6020808252601f908201527f446562617465506f6f6c56323a20496e76616c69642064656261746520494400604082015260600190565b634e487b7160e01b600052601160045260246000fd5b8082018082111561106c5761106c61372b565b634e487b7160e01b600052603260045260246000fd5b6001600160a01b03929092168252602082015260400190565b60006020828403121561379557600080fd5b815180151581146137a557600080fd5b9392505050565b6000600182016137be576137be61372b565b5060010190565b600181811c908216806137d957607f821691505b6020821081036112c957634e487b7160e01b600052602260045260246000fd5b601f82111561384357600081815260208120601f850160051c810160208610156138205750805b601f850160051c820191505b8181101561383f5782815560010161382c565b5050505b505050565b815167ffffffffffffffff8111156138625761386261322a565b6138768161387084546137c5565b846137f9565b602080601f8311600181146138ab57600084156138935750858301515b600019600386901b1c1916600185901b17855561383f565b600085815260208120601f198616915b828110156138da578886015182559484019460019091019084016138bb565b50858210156138f85787850151600019600388901b60f8161c191681555b5050505050600190811b01905550565b60408152600061391b6040830185613184565b90508260208301529392505050565b6020808252601f908201527f446562617465506f6f6c56323a20496e76616c6964207369676e617475726500604082015260600190565b808202811582820484141761106c5761106c61372b565b60008261399557634e487b7160e01b600052601260045260246000fd5b500490565b60208082526025908201527f446562617465506f6f6c56323a2057696e6e657220616c7265616479206465636040820152641b185c995960da1b606082015260800190565b8281526040602082015260006139f86040830184613184565b949350505050565b600060208284031215613a1257600080fd5b5051919050565b60208082526022908201527f446562617465506f6f6c56323a20446562617465206973206e6f742061637469604082015261766560f01b606082015260800190565b8181038181111561106c5761106c61372b565b634e487b7160e01b600052603160045260246000fd5b634e487b7160e01b600052602160045260246000fdfe4c3089477cda1ac100291a040b3ac97ff5f55b6d8b2acfb56a59b9419d95ce04a2646970667358221220ca19df4d2361d55cbc2c89623f6fa9eed5452554f158f5cb99afd999ae81715c64736f6c63430008140033",
  "linkReferences": {},
  "deployedLinkReferences": {}
}